:1000000025C03FC03EC03DC03CC03BC03AC039C027
:1000100038C037C036C035C034C033C065C080C0BA
:1000200031C02FC01FC12DC02CC02BC02AC029C079
:1000300028C027C045464765666700202B2D2E3017
:1000400031323334353637383968000011241FBE59
:10005000CFEFD4E0DEBFCDBF11E0A0E0B1E0E6E33A
:10006000F7E002C005900D92A432B107D9F711E074
:10007000A4E2B1E001C01D92A936B107E1F781D039
:1000800058C3BECF1F920F920FB60F9211248F93B9
:100090009F93EF93FF938091250190E040968F719D
:1000A0009078992324F40197806E9F6F0196FC014C
:1000B000EC5FFE4F808187BDE0912501F0E0EC5FB1
:1000C000FE4F8081809588BDE0912401F0E0E050F2
:1000D000FF4F808185B9FF91EF919F918F910F9094
:1000E0000FBE0F901F9018951F920F920FB60F9290
:1000F00011248F939F93EF93FF93E091240195B187
:10010000F0E0E050FF4F80818095892385B9FF9111
:10011000EF919F918F910F900FBE0F901F901895A8
:100120001F920F920FB60F9211242F938F939F93CC
:10013000EF93FF938091240125B190E001968370A5
:100140009078992324F401978C6F9F6F0196FC019E
:10015000E050FF4F8081822B85B9FF91EF919F91F5
:100160008F912F910F900FBE0F901F9018958FE0D9
:1001700087B984B980EC8AB915B818B88CE18BB905
:100180000895F5DF83E395D014BC16BC17BC18BCEA
:1001900083E085BD87E080936E007894809125018F
:1001A0008F5F8093250180912501803139F4109271
:1001B0002501809124018F5F809324018091240187
:1001C000843011F4109224012FE788E391E021504C
:1001D00080409040E1F700C00000E0CF90916701BF
:1001E000891728F490916701891720F014C01092A4
:1001F00067010895982FE92FF0E0EA5DFE4F208116
:10020000E92FE81BF0E0EA5DFE4F20839F5F20911D
:100210006701921780F390916701981B9093670193
:100220000895CF9390916701903460F4E091670155
:10023000F0E0EA5DFE4F8083809167018F5F8093DD
:1002400067010EC0C82F81E0C9DFE0916701F0E0CF
:10025000EA5DFE4FC083809167018F5F80936701E5
:10026000CF9108951F920F920FB60F9211242F93E2
:100270003F934F935F936F937F938F939F93AF932E
:10028000BF93EF93FF938091C60080936801C9DF0D
:10029000FF91EF91BF91AF919F918F917F916F915E
:1002A0005F914F913F912F910F900FBE0F901F9034
:1002B0001895109267011092C5008093C4001092A7
:1002C000C00088E98093C10086E08093C20081E08D
:1002D000809366010895ACE0B0E0E0E7F1E048C14A
:1002E000C82ED92EA62EB72EE42EF52EE82FF92FE4
:1002F00017821682838181FF2FC18C2F9D2F01963B
:10030000882E992EEC2DFD2D0381EA2DFB2D03FD6A
:10031000C89503FF00803196102DAE2EBF2E1123FD
:1003200009F415C1153261F403FDC89503FF00807F
:100330003196102DAE2EBF2E153211F020E020C0C8
:100340006C2D7D2D812F90E055D16E2C7F2CE62CCD
:10035000F72CD8CF112309F4FAC0612F70E08BE39A
:1003600090E02C8738D12C85892B69F0EA2DFB2D64
:1003700003FDC89503FF00803196102DAE2EBF2ED1
:1003800027FFE8CF09C0133229F01C3609F0E7C077
:100390002068ECCF20E1EACF022F112309F4D7C067
:1003A000612F70E084E390E02C8715D12C85892B98
:1003B00051F06E2C7F2CF4E06F0E711C6C2D7D2D96
:1003C0008FE390E014C0133639F0133791F01335F2
:1003D00059F5022F01600DC06E2C7F2C82E0680E53
:1003E000711C6C2D7D2DEE2DFF2D8081918102D110
:1003F000AECF6E2C7F2CF2E06F0E711CEE2DFF2D18
:10040000E080F180EE2DFF2D00FDC89500FF0080FB
:100410003196802DEE2EFF2E882309F498CF6C2D77
:100420007D2D90E0E7D0EECF143611F0193641F56E
:100430006E2C7F2C27FF0AC0F4E06F0E711CEE2D8E
:10044000FF2D60817181828193810BC0F2E06F0E7C
:10045000711CEE2DFF2D60817181882777FD8095BD
:10046000982F022F0F7E97FF08C09095809570956A
:1004700061957F4F8F4F9F4F00642AE030E036C078
:10048000103799F040F41835B1F01F3609F05FC00D
:1004900028E030E014C0153719F0183741F057C084
:1004A000022F0F7E2AE030E00AC0022F00610462B2
:1004B00020E130E004C0022F046020E132E06E2C25
:1004C0007F2C07FF0AC0F4E06F0E711CEE2DFF2D8C
:1004D000608171818281938109C0F2E06F0E711C8D
:1004E000EE2DFF2D6081718180E090E0482D592D27
:1004F000BCD0182F181906FF05C06C2D7D2D8DE27C
:1005000090E078D004FF16C0EC2FFD2FE10FF11D15
:100510008081803379F06C2D7D2D80E390E06AD06E
:1005200002FF08C00072802F90E06C2D7D2D885A4C
:100530009F4F60D01150E82DF92DE10FF11D808102
:100540006C2D7D2D90E056D01111F4CF00CFEC2D05
:10055000FD2D8681978105C08FEF9FEF02C0022F8E
:100560001FCF2C96EEE020C02F923F924F925F92C9
:100570006F927F928F929F92AF92BF92CF92DF92B3
:10058000EF92FF920F931F93CF93DF93CDB7DEB718
:10059000CA1BDB0B0FB6F894DEBF0FBECDBF0994AC
:1005A0002A88398848885F846E847D848C849B8403
:1005B000AA84B984C884DF80EE80FD800C811B8111
:1005C000AA81B981CE0FD11D0FB6F894DEBF0FBE40
:1005D000CDBFED010895E82FF92FC8953196061685
:1005E00029F00020D1F7802D912D089531978E2F7D
:1005F0009F2F08950F931F93CF93DF93E62FF72F2D
:10060000238121FD03C08FEF9FEF2AC022FF17C077
:100610004681578124813581421753074CF4A081CC
:10062000B1812A2F3B2F2F5F3F4F318320838C9343
:10063000268137812F5F3F4F3783268311C0C62F16
:10064000D72F092F182F0084F185E02D0995892BCC
:10065000D1F68E819F8101969F838E83812F902F6B
:10066000DF91CF911F910F910895E42FF52FAA27C5
:10067000283069F1203199F1E8946F936E7F6E5FB5
:100680007F4F8F4F9F4FAF4FB1E041D0B4E03FD08D
:10069000670F781F891F9A1FA11D680F791F8A1F76
:1006A000911DA11D6A0F711D811D911DA11D23D0DA
:1006B00009F468943F91062E000C3019000C000CD0
:1006C0003019305D3193CEF68E2F9F2F0895462F2F
:1006D0004770405D4193B3E00FD0C9F7F5CF462F87
:1006E0004F70405D4A3318F0495D31FD40524193EF
:1006F00002D0A9F7E9CFB4E0A695979587957795AD
:100700006795BA95C9F70097610571050895262F79
:10071000372F482F592F0A2E06945795479537950E
:100720002795BA95C9F7620F731F841F951FA01DE7
:060730000895F894FFCFCC
:10073600010204080019324A62788EA2B4C5D4E1D7
:10074600ECF4FAFEFFFEFAF4ECE1D4C5B4A28E781E
:04075600624A3219A8
:00000001FF
