:100000000C9439000C9456000C9456000C94560035
:100010000C9456000C9456000C9456000C94560008
:100020000C9456000C9458000C9456000C945600F6
:100030000C9456000C9456000C9456000C945600E8
:100040000C9403040C9456000C9494030C945600E6
:100050000C9456000C9456000C9456000C945600C8
:100060000C9456000C94560041542B434D47533D7D
:10007000000011241FBECFEFD8E0DEBFCDBF11E0DE
:10008000A0E0B1E0E0E8FAE002C005900D92AC35E6
:10009000B107D9F711E0ACE5B1E001C01D92A83F6E
:1000A000B107E1F70E942A030C943E050C9400006E
:1000B0001F920F920FB60F9211242F933F934F93DD
:1000C0005F936F937F938F939F93AF93BF93CF93E0
:1000D000DF93EF93FF9380919201882309F453C03B
:1000E0008091F701882309F44EC0C0E0D1E08C2F45
:1000F00090E0FC01EE0FFF1FE251FE4F0190F081F6
:10010000E02D208130E0FC01E651FE4F008002C06E
:10011000359527950A94E2F720FD21C0FC01E451B2
:10012000FE4F2081211105C0FC01E451FE4FD08318
:1001300024C0FC01EB50FE4F208121111EC0FC01A8
:10014000EB50FE4FD083880F991FFC01EB51FE4FFF
:100150000190F081E02D309781F009950EC0FC01EF
:10016000EB50FE4F2081222341F0FC01EB50FE4F6B
:100170001082FC01E451FE4F1082CF5F8091F701A5
:10018000C81708F4B4CFFF91EF91DF91CF91BF91E1
:10019000AF919F918F917F916F915F914F913F911F
:1001A0002F910F900FBE0F901F901895CF93DF9354
:1001B00045EF51E0FA0110822CEE31E0F901108296
:1001C00085EE91E0FC0111821082CEEED1E0198221
:1001D0001882AAEEB1E01C9263EF71E0FB0110827D
:1001E000FA011182F9011182FC01138212821B8231
:1001F0001A8211961C92FB0111821092F701DF9175
:10020000CF910895DC019091F701923018F5E091BB
:10021000F701F0E0EE0FFF1FEB51FE4F318320831B
:10022000E091F701F0E0EE0FFF1FE251FE4FB183C6
:10023000A083E091F701F0E0E651FE4F6083E0918A
:10024000F701F0E0ED50FE4F40838091F7018F5FA2
:100250008093F70108951092B20091E09093B1005D
:10026000E0E7F0E0808181608083909392010895BF
:1002700080E091E00E94DA0381E390E00E94C404F0
:1002800082E390E00E94C4040895FB01982F9295A8
:100290009F708F709A3018F4905D908302C0995CC3
:1002A00090838A3018F4805D818302C0895C8183E9
:1002B000128208956F927F928F929F92AF92BF9217
:1002C000CF92DF92EF92FF920F931F93CF93DF9322
:1002D000CDB7DEB7C85AD1090FB6F894DEBF0FBE4E
:1002E000CDBFDC017B01BE016F5F7F4F8CE8FB015E
:1002F00011928A95E9F7FB0101900020E9F7CF01FF
:10030000019720E330E340E0FC0120833183428306
:10031000FB0101900020E9F7CF0101970F2EF0E3D8
:100320006F2EF1E37F2E812CF02DFC016082718213
:100330008282FB0101900020E9F73197208331830D
:1003400042839E0123573F4F84E1F90111928A9520
:10035000E9F780E040E014C0FD01E20FF31F908157
:10036000292F30E0205331092A30310540F4EDE8DF
:10037000F0E0EC0FFD1FE40FF11D90834F5F8F5FE6
:10038000282F30E0FD0101900020E9F73197EA1BAA
:10039000FB0B2E173F0700F3842F40FF0CC0FE011C
:1003A000E357FF4F01900020E9F7319726E430E052
:1003B000318320834F5F4423B9F090E0E92FF0E0D0
:1003C000ADE8B0E0AC0FBD1FAE0FBF1F2C91319652
:1003D0006DE870E06C0F7D1FE60FF71F30813C93D6
:1003E00020839E5F941750F3BE016F557F4F0E948C
:1003F0004501BE016F557F4FCE0101966C010E94F1
:10040000FA04F60101900020E9F7319789E391E3BE
:10041000A0E080839183A283BE0163577F4FC60112
:100420000E94FA04F60101900020E9F7319780E379
:1004300090E3A0E080839183A283F60101900020E5
:10044000E9F7319780839183A283F701019000201F
:10045000E9F731978F010E191F09BE016C557F4FC7
:10046000802F0E944501BE016C557F4FC6010E943E
:10047000FA04802F8770B9F01127C801880F991FDF
:10048000880F991F880F991F801B910B8C0112F404
:10049000095F1F4F159507951595079515950795B4
:1004A0000F5F1F4F14C01127C801880F991F880FB5
:1004B000991F880F991F801B910B8C0112F4095F03
:1004C0001F4F1595079515950795159507950115D6
:1004D000110509F445C0712C912C812C0F2EF7E0E9
:1004E000AF2EB12CF02DCC24CA94D12C612CB501A7
:1004F00069197109F701E80DF11D408150E0092CDF
:1005000002C0559547950A94E2F7C601062E02C02F
:10051000880F991F0A94E2F7809584239181292FEF
:1005200030E002C0220F331F6A95E2F7822B9394CA
:1005300097E0991202C08394962CBE016C557F4FB0
:100540000E944501BE016C557F4FCE0101960E946D
:10055000FA0473948394872D90E08017910738F202
:1005600088E690E00E94E8048E010F5F1F4FF801BB
:1005700001900020E9F73197E01BF10BF695E79524
:100580008FEF8E0F4AE0BE016C557F4F90E00E94C6
:100590000705CE018C559F4F0E94D9048DE090E055
:1005A0000E94C404C8010E94DA038AE00E94CE03BC
:1005B000EFEFF0E722E0E150F0402040E1F700C02B
:1005C0000000C8010E94D9048AE190E00E94C4049E
:1005D000C855DF4F0FB6F894DEBF0FBECDBFDF9119
:1005E000CF911F910F91FF90EF90DF90CF90BF9030
:1005F000AF909F908F907F906F900895CF93DF93EF
:10060000CDB7DEB76A970FB6F894DEBF0FBECDBF89
:100610008DE0E0E1F1E0DE01119601900D928A9506
:10062000E1F78DE0EDE1F1E0DE011E9601900D9223
:100630008A95E1F7BE016F5F7F4FCE010E960E9453
:100640005A016A960FB6F894DEBF0FBECDBFDF9198
:10065000CF91089580E48AB980E88BB983E30E9442
:10066000BC030E94AE040E94D60028E331E041E0C2
:1006700067E089E290E00E9402010E942B017894D9
:100680008AE291E00E94DA030E94F4038133E1F7E9
:1006900086E491E00E94DA030E94FE02F5CF909179
:1006A000E901891728F49091E901891720F014C015
:1006B0001092E9010895982FE92FF0E0ED56FE4FD2
:1006C0002081E92FE81BF0E0ED56FE4F20839F5F6D
:1006D0002091E901921780F39091E901981B909382
:1006E000E9010895CF939091E901913560F4E0918B
:1006F000E901F0E0ED56FE4F80838091E9018F5FC4
:100700008093E9010FC0C82F81E00E944F03E09160
:10071000E901F0E0ED56FE4FC0838091E9018F5F63
:100720008093E901CF9108951F920F920FB60F9217
:1007300011242F933F934F935F936F937F938F93E6
:100740009F93AF93BF93EF93FF938091C6008093E5
:10075000F2010E947203FF91EF91BF91AF919F91BF
:100760008F917F916F915F914F913F912F910F905A
:100770000FBE0F901F9018951092E9011092C500BE
:100780008093C4001092C00088E98093C10086E085
:100790008093C20081E08093E40108959091E40188
:1007A000992339F0E0ECF0E0908195FFFDCF809344
:1007B000C6000895CF93DF932091E401222389F0AE
:1007C000FC012081222369F0DC011196E0ECF0E0CD
:1007D000C6ECD0E0908195FFFDCF28832D912111AB
:1007E000F9CFDF91CF910895CF938091E9018823CC
:1007F00039F0C091930181E00E944F038C2F01C01A
:100800008FEFCF9108951F920F920FB60F92112480
:100810002F938F939F93EF93FF9386B5845386BD59
:1008200080916201882359F1809161018150809308
:10083000610180916101811122C080915E019091DE
:100840005F0180FF02C0409A01C0409880915E0124
:1008500090915F019695879590935F0180935E01DB
:1008600082E08093610180916001815080936001FA
:1008700080916001811103C010926201409A8091C1
:100880006601811161C080916701882309F180911F
:100890006401815080936401811156C010926701F8
:1008A0001092680180915C01823C09F44DC0E09196
:1008B0006901F0E0E659FE4F8083809169018F5F06
:1008C00080936901883208F43FC0109269013CC0EE
:1008D00080916801811112C0319936C081E0809306
:1008E000680110925D0110925C0193E090936401A5
:1008F00098E0909363018093650126C08091640124
:1009000081508093640181111FC082E08093640153
:10091000319B0BC02091650180915C0190915D013C
:10092000822B90935D0180935C0180916501880F1B
:1009300080936501809163018150809363018111EF
:1009400003C081E080936701FF91EF919F918F91A8
:100950002F910F900FBE0F901F901895109262016B
:100960001092680110926701109266013998419ABD
:10097000389A409A82E085BD8CEC86BDEEE6F0E0C8
:100980008081816080830895909162019111FCCFF4
:1009900092E0909361019AE090936001880F990B27
:1009A000926090935F0180935E0181E08093620189
:1009B0000895CF93DF93EC018881882331F021964D
:1009C0000E94C40489918111FBCFDF91CF910895DA
:1009D000CF93DF93EC01FC019491892F992339F097
:1009E0000E94C4042196FE0184918111F9CFDF9108
:1009F000CF910895E62FF72FA82FB92F0D90002043
:100A0000E9F7119701900D920020E1F70895BB27B7
:100A10004A3031F4992322F4BDE2909581959F4F9D
:100A200001C0BB27E62FF72F5527AA27880F991F4C
:100A3000AA1FA41710F0A41B83955051B9F7A05D0D
:100A4000AA3308F0A95DA193009779F7B111B1938A
:100A50001192862F972F00C0A82FB92FE82FF92FBA
:100A6000672F71917723E1F7329704C07C916D93E2
:100A700070836291AE17BF07C8F30895F894FFCF53
:100A8000427574746F6E20436C69636B65640A0011
:100A9000486F772061726520796F753F002B373979
:100AA0003531323936323437370048656C6C6F2156
:100AB00020415652204D65676133323820426F6FB6
:100AC00074204F4B0A0020547279696E6720746F4E
:0C0AD0002073656E6420736D730A0000D3
:00000001FF
