:100000000C94C3010C94E0010C94E0010C94E00109
:100010000C94E0010C94E0010C94E0010C94E001DC
:100020000C94E0010C94E0010C94E0010C94E001CC
:100030000C94E0010C94E0010C94E0010C94E001BC
:100040000C94E0010C94E0010C94E0010C94E001AC
:100050000C94E001496E697469616C697A61746934
:100060006F6E004F6B00000000000000005F00009A
:100070000007000700147F147F14242A7F2A124CE3
:100080002C10686436495522500005030000001CFE
:100090002241000041221C0014083E081408083EBA
:1000A00008080000503000101010101000606000B0
:1000B0000020100804023E5149453E00427F4000A6
:1000C00042615149462141454B311814127F102796
:1000D000454545393C4A49493001710905033649CE
:1000E000494936064949291E003636000000563671
:1000F00000000814224100141414141400412214A6
:10010000080201510906324979413E7E1111117EE2
:100110007F494949363E414141227F4141221C7F6E
:10012000494949417F090909013E4149497A7F0806
:1001300008087F00417F41002040413F017F0814B3
:1001400022417F404040407F020C027F7F04081024
:100150007F3E4141413E7F090909063E4151215EF2
:100160007F09192946464949493101017F01013F6B
:100170004040403F1F2040201F3F4038403F631415
:1001800008146307087008076151494543007F411F
:10019000410002040810200041417F0004020102D6
:1001A0000440404040400001020400205454547870
:1001B0007F484444383844444420384444487F38D5
:1001C00054545418087E0901020C5252523E7F08C2
:1001D00004047800447D40002040443D007F102806
:1001E000440000417F40007C041804787C0804042B
:1001F0007838444444387C14141408081414187CC7
:100200007C080404084854545420043F4440203CD3
:100210004040207C1C2040201C3C4030403C442876
:100220001028440C5050503C4464544C4400083650
:10023000410000007F00000041360800080408105B
:1002400008FFFFFFFFFF7C1211127C7F49494931F3
:100250007F494949367F01010101603F213F607FAD
:100260004949494177087F087722414949367F103B
:1002700008047F7E1009047E7F08142241403E015D
:10028000017F7F020C027F7F0808087F3E414141C9
:100290003E7F0101017F7F090909063E414141225C
:1002A00001017F0101074848483F0E117F110E638D
:1002B000140814633F20203F60070808087F7F4030
:1002C0007E407F3F203F207F017F4848307F48307D
:1002D000007F007F484830224149493E7F083E4127
:1002E0003E462919097F20545454783C4A4A4A31E1
:1002F0007C545428007C04040C00603C243C60388E
:10030000545454186C107C106C00445454287C20B5
:1003100010087C7C2112097C7C10284400403804A1
:10032000047C7C0810087C7C1010107C3844444409
:10033000387C0404047C7C141414083844444400BD
:1003400004047C04040C5050503C08147C140844F1
:10035000281028443C20203C600C1010107C7C406D
:100360007C407C3C203C207C047C5050207C5020F5
:10037000007C007C50502028445454387C10384471
:1003800038485434147C11241FBECFE5D4E0DEBFBE
:10039000CDBF10E0A0E6B0E0E2ECF7E002C00590CF
:1003A0000D92A036B107D9F712E0A0E6B0E001C087
:1003B0001D92AF35B107E1F70E94E2010C94DF0313
:1003C0000C94000088E089B982E08BB988E18AB991
:1003D00086E880BD0E948A020E94110260E080E0EF
:1003E0000E94B50264E570E081E090E00E949E0307
:1003F00061E080E00E94B50263E670E081E090E099
:100400000E949E030E942902FFCFC49861307105AB
:1004100011F4C39A01C0C3988FB9779BFECFC49AD9
:10042000089588EF91E0E0E6F0E0DF019C011D9285
:1004300021503040E1F7109259021092580287EF94
:1004400091E090935B0280935A0281E080935C027A
:1004500008951F93CF93DF93809158029091590292
:1004600097FF05C0109259021092580209C0883FA8
:10047000914034F087EF91E09093590280935802B5
:1004800080915A0290915B0297FF05C010925B0227
:1004900010925A0209C0883F914034F087EF91E0F2
:1004A00090935B0280935A02C0915802D0915902F6
:1004B000CE0164E570E00E94B703162F60E070E0A3
:1004C00080680E94050260E070E0812F80640E94D5
:1004D000050209C0FE01E05AFF4F61E070E0808133
:1004E0000E940502219680915A0290915B028C171E
:1004F0009D0784F787EF91E090935902809358020B
:1005000010925B0210925A0210925C02DF91CF911E
:100510001F910895C29A87B38C6B87BBC298C29A09
:1005200080E58DB9C49A60E070E081E20E94050226
:1005300060E070E088EC0E94050260E070E086E018
:100540000E94050260E070E083E10E94050260E025
:1005500070E080E20E94050260E070E08CE00E94A2
:1005600005020E9411020C9429028E3088F4663034
:1005700078F494E5699FB001112496E0899F600D9D
:10058000711D112470935E0260935D0280E00895F6
:1005900081E008951F93CF93DF9340915D025091C6
:1005A0005E0220915802309159024217530724F4F9
:1005B0005093590240935802A62FA052A03628F01B
:1005C000603C10F0A05401C0AFE581309105F9F412
:1005D00080E090E025E0A29FD00111249A01205AEA
:1005E0003F4FFC01EA0FFB1FEA59FF4FE491E9017D
:1005F000C80FD91FEE0FE88301968530910589F762
:100600004B5F5F4F50935E0240935D026EC0029756
:1006100009F06BC09A0124553109809158029091DC
:1006200059022817390724F43093590220935802AD
:1006300037FD7FC080E090E065E0A69FD0011124E7
:100640001CE0D8E1FC01EA0FFB1FEA59FF4FE491DF
:10065000EE0F6E2F6470619F602D1124FE2FF270DB
:100660007F2F770F7F0F770F672B7E2F78707D9FFF
:10067000702D1124672BE295EF707E2F7270C72FBB
:10068000CC0FC70FCC0FFE2FF1707F2F770F7F0F8E
:10069000C72B7E2F7470719F702D1124C72BE870AB
:1006A000ED9FE02D1124CE2BF901E05AFF4F60831E
:1006B00061832E5F3F4FB901605A7F4FFB01EE5AB5
:1006C000FF4FC083FB01ED5AFF4FC0830196853079
:1006D000910509F0B7CFCA010B9668EF71E00E944F
:1006E000B70390935E0280935D0280915D029091CA
:1006F0005E0220915A0230915B022817390724F4D8
:1007000090935B0280935A02FC01E05AFF4F1082E3
:10071000873F21E0920731F410925E0210925D0251
:1007200082E008C0019690935E0280935D0280E0B3
:1007300001C081E0DF91CF911F9108950F931F9326
:10074000CF93DF938C01EB0106C0C8010E94CA025F
:10075000813039F02196FE0164916111F6CF80E07D
:1007600001C081E0DF91CF911F910F91089597FB18
:10077000072E16F4009407D077FD09D00E94CB0312
:1007800007FC05D03EF4909581959F4F0895709594
:1007900061957F4F0895AA1BBB1B51E107C0AA1F9B
:1007A000BB1FA617B70710F0A61BB70B881F991F12
:1007B0005A95A9F780959095BC01CD010895F894BC
:0207C000FFCF69
:00000001FF
