:100000000C9436000C9453000C9453000C94530041
:100010000C9453000C9453000C9453000C94530014
:100020000C9453000C9453000C9453000C943A021B
:100030000C9453000C9453000C9453000C945300F4
:100040000C9453000C9453000C9453000C945300E4
:100050000C94530045464765666700202B2D2E30D3
:1000600031323334353637383968000011241FBE39
:10007000CFE5D4E0DEBFCDBF10E0A0E6B0E0E2E621
:10008000FEE002C005900D92A43CB107D9F711E043
:10009000A4ECB0E001C01D92A131B107E1F70E94CC
:1000A0004B010C942F070C940000F89488B3E09156
:1000B000CB00F0E0E05AFF4F807F9081892B88BB16
:1000C0008091CB008F5F8093CB008091C9008F5FC0
:1000D0008093C9008091CB00883011F41092CB003E
:1000E0008FE097E20197F1F700C0000018BA78940A
:1000F0000895F89488B3E091CB00F0E0E05AFF4F08
:10010000807F9081892B88BB8091C900815080932A
:10011000C9008091CB00811104C087E08093CB009F
:1001200005C08091CB0081508093CB008FE097E297
:100130000197F1F700C0000018BA78940895F89478
:1001400085B3E091CA00F0E0E05AFF4F807F9081D4
:10015000892B85BB8091CA008F5F8093CA008091F4
:10016000C8008F5F8093C8008091CA00883011F466
:100170001092CA008FE097E20197F1F700C00000EB
:1001800015BA78940895F89485B3E091CA00F0E028
:10019000E05AFF4F807F9081892B85BB8091C800FA
:1001A00081508093C8008091CA00811104C087E00B
:1001B0008093CA0005C08091CA0081508093CA0014
:1001C0008FE097E20197F1F700C0000015BA78942C
:1001D0000895979A8FE99FE00197F1F700C000001A
:1001E00097988091C7008F5F8093C7000895969A73
:1001F0008FE99FE00197F1F700C000009698809189
:10020000C70081508093C700089590B39870909371
:10021000C60081E0911180E0089502C00E9479003B
:100220000E9405018823D1F31092C900089590B36C
:1002300094709093C50081E0911180E0089502C010
:100240000E94C3000E9417018823D1F31092C800B6
:10025000089590B390719093C40081E0911180E073
:10026000089508C00E94F7008FE99FE00197F1F719
:1002700000C000000E9429018823A1F31092C7004A
:1002800008958FE084BB87BB80EC81BB18BA15BA98
:100290008CE182BB08950E94410183E30E946102C8
:1002A000789488E690E00E946E02E12CF12CC0E088
:1002B000D0E000E010E00F2EF1E38F2EF1E09F2E52
:1002C000F02D0F2EF7EFAF2EF0E0BF2EF02D0F2EFA
:1002D000FFE16F2EF1E07F2EF02D0F2EF3EC4F2E6D
:1002E000F0E05F2EF02D0F2EFFE92F2EF0E03F2ED5
:1002F000F02D8DE00E9499020E9487028A35D9F084
:1003000028F4883549F0893591F019C0893779F09A
:100310008A3789F0883799F40F2EFDE0EF2EF1E04F
:10032000FF2EF02DC9E7D0E005E510E008C073010D
:10033000E201810104C07401E50109EE10E00E94B0
:1003400087028D32A1F0803309F446C08B3209F068
:1003500049C00E94A302D62E662321F0F801099518
:10036000DA94E1F789E890E00E946E023BC00E94B7
:10037000A302D62E662359F1F0E0C937DF0749F40E
:100380000E9405018823F9F08DE890E00E946E023A
:100390001EC080E0C33CD80749F40E94170188239F
:1003A00091F08FE990E00E946E0211C0E0E0C73F3B
:1003B000DE0749F40E942901882329F081EB90E0AF
:1003C0000E946E0204C0FE010995DA94A9F689E83C
:1003D00090E00E946E0206C0F701099589E890E05E
:1003E0000E946E020E94960284CF90910D0189179F
:1003F00028F490910D01891720F014C010920D017E
:100400000895982FE92FF0E0E453FF4F2081E92F62
:10041000E81BF0E0E453FF4F20839F5F20910D0124
:10042000921780F390910D01981B90930D01089500
:10043000CF9390910D01903460F4E0910D01F0E0C4
:10044000E453FF4F808380910D018F5F80930D01F6
:100450000FC0C82F81E00E94F501E0910D01F0E08E
:10046000E453FF4FC08380910D018F5F80930D0196
:10047000CF9108951F920F920FB60F9211242F93D0
:100480003F934F935F936F937F938F939F93AF931C
:10049000BF93EF93FF938CB180930E010E941802DB
:1004A000FF91EF91BF91AF919F918F917F916F914C
:1004B0005F914F913F912F910F900FBE0F901F9022
:1004C000189510920D0110BC89B91BB888E98AB93A
:1004D00086E880BD81E080930C010895FC01809145
:1004E0000C01882351F09081992339F031965D9B5E
:1004F000FECF9CB991919111FACF089580910D0191
:10050000882319F080910E0108958FEF0895CF93FD
:1005100080910D01882339F0C091CC0081E00E94C8
:10052000F5018C2F01C08FEFCF91089510920D012E
:100530000895CF93C82F0E947E028C13FCCF809128
:100540000D01CF910895CF92DF92EF92FF920F931A
:100550001F93CF93DF9300D0CDB7DEB71A821982F5
:1005600080910D018823E1F18091CC008D3209F456
:1005700041C0992787FD9095C0970A97F0F1EDEC5F
:10058000F0E00BC021912D32D1F1332727FD3095BA
:10059000205331092A30310590F18F0120910D014E
:1005A00030E0CF018C5C9040821793075CF360E0F1
:1005B00070E080E090E035C0009749F480910D0133
:1005C0000E94F5016C2D7D2D8E2D9F2D2AC08C5CF7
:1005D00090400E94F5016C2D7D2D8E2D9F2D21C008
:1005E00060E070E080E090E01CC060E070E080E0DF
:1005F00090E017C00CEC10E002C00CEC10E04AE0F8
:1006000050E0BE016F5F7F4FC8010E948E04C62E6E
:10061000D72EE82EF92E89819A818017910761F6ED
:10062000E4CF0F900F90DF91CF911F910F91FF902A
:10063000EF90DF90CF9008956F927F929F92AF924C
:10064000BF92CF92DF92EF92FF920F931F93CF93BF
:10065000DF93CDB7DEB72C970FB6F894DEBF0FBE91
:10066000CDBF082F192FE62EF72E642E752EE82FFA
:10067000F92F17821682838181FF3AC18C2F9D2F1B
:100680000196A82EB92EE02FF12FD380EE2DFF2D4D
:10069000D3FCC895D3FE00803196202DEE2EFF2E80
:1006A000222309F420C1253261F4D3FCC895D3FE7E
:1006B00000803196202DEE2EFF2E253211F0912C48
:1006C00020C0602F712F822F90E092D2C62CD72CA1
:1006D0006C2C7D2CD8CF222309F405C1622F70E049
:1006E0008BE590E02C8775D22C85892B69F0EE2D57
:1006F000FF2DD3FCC895D3FE00803196202DEE2E21
:10070000FF2E97FEE8CF0CC0233221F4F92DF061C3
:100710009F2EEDCF2C3639F4292D2068922EE7CF6D
:10072000222309F4E0C0622F70E084E590E02C877A
:1007300050D22C85892B51F0C62CD72CF4E0CF0E4B
:10074000D11C602F712F8FE390E015C0233641F04C
:10075000233799F0233561F5F92DF1609F2E0DC0F7
:10076000C62CD72C22E0C20ED11C602F712FE62D93
:10077000F72D808191813CD2ABCFC62CD72C22E0C3
:10078000C20ED11CE62DF72D60807180E62DF72D6D
:1007900090FCC89590FE00803196802D6E2E7F2EA5
:1007A000882309F495CF602F712F90E021D2EECFEE
:1007B000243611F0293651F5C62CD72C97FE0AC0E5
:1007C000F4E0CF0ED11CE62DF72D6081718182817E
:1007D00093810BC0F2E0CF0ED11CE62DF72D608186
:1007E0007181882777FD8095982FF92DFF7E9F2EA8
:1007F00097FF09C090958095709561957F4F8F4FB9
:100800009F4FF0649F2E2AE030E03BC02037A1F0DC
:1008100040F42835D1F02F3609F065C028E030E0EB
:1008200019C0253719F0283751F05DC0292D2F7ECA
:10083000922E2AE030E00EC0892D8061982E992DED
:100840009462992E20E130E005C0E92DE4609E2EEF
:1008500020E132E0C62CD72C97FE0AC0F4E0CF0E80
:10086000D11CE62DF72D608171818281938109C0B1
:10087000F2E0CF0ED11CE62DF72D6081718180E072
:1008800090E04A2D5B2DE8D1782E7A1896FE05C0AF
:10089000602F712F8DE290E0ABD194FE17C0EC2F4A
:1008A000FD2FE70DF11D8081803381F0602F712FC6
:1008B00080E390E09DD192FE09C0292D2072822F05
:1008C00090E0602F712F885A9F4F92D17A94EA2D31
:1008D000FB2DE70DF11D8081602F712F90E088D1F5
:1008E0007110F4CFF5CEE02FF12F8681978102C0F1
:1008F0008FEF9FEF2C960FB6F894DEBF0FBECDBFE3
:10090000DF91CF911F910F91FF90EF90DF90CF90EB
:10091000BF90AF909F907F906F900895A3E0B0E05C
:10092000E3E9F4E04DC2062F172F5B834A8361157C
:10093000710521F0E62FF72F808391832A813B8177
:100940002115310531F0225031092332310508F0EB
:100950002EC1E82EF92ECE2CDF2C3FEFC31AD30A7E
:10096000AC2CBD2CEE2DFF2D8080882D90E029D160
:10097000892B19F0EC2CFD2CEECFFDE28F120BC071
:10098000AE2CBF2C22E0A20EB11CEE2DFF2D8180DB
:10099000992493940CC0FBE28F1208C0AE2CBF2C9C
:1009A00022E0A20EB11CEE2DFF2D8180912C8A81B8
:1009B0009B818F7E892BA1F4F0E38F1227C0EA2D53
:1009C000FB2D80818F7D883581F58180F2E0AF0E2F
:1009D000B11C292D2260922E40E150E05B834A83B6
:1009E0008A819B818830910521F144F4029759F561
:1009F000C12CD12CE12C30E4F32E3CC0EA81FB81E8
:100A0000EA30F10539F0709781F11DC02A813B81F0
:100A1000232B31F72AE030E03B832A832CECC22ED3
:100A2000DC2CEC2C2CE0F22E25C04A815B81452B7E
:100A3000B9F648E050E05B834A83C12CD12CE12C0D
:100A400090E1F92E17C060E070E080E090E8EA8164
:100A5000FB812E2F3F2F442737FD4095542F63D124
:100A6000C22ED32EE42EF52E05C0C12CD12CE12CA4
:100A700088E0F82E20E060E070E080E090E04A81BD
:100A80005B81442E552E662457FC6094762C2A2CCC
:100A90003B2C50ED580D59835A3078F03FEB380D10
:100AA0003A3120F4E9ECE80DE98307C03FE9380D5D
:100AB0003A31B0F5F9EAF80DF9833981432F50E066
:100AC000EA81FB814E175F075CF527FD22C0C61641
:100AD000D706E806F906D0F0572D462D352D242DE2
:100AE00044D1842F952F422F532F682F792F972F82
:100AF000862F752F642FF9816F0F711D811D911D38
:100B000061307105810520E8920710F02FEF01C0D8
:100B100021E03FEFA31AB30AE22DF32D8080B7CF77
:100B2000392D317001151105A1F0222341F0F1E0BA
:100B3000AF1AB108E02FF12FB182A0820AC091FE56
:100B40001CC0F2E0AF1AB108E02FF12FB182A082F1
:100B500014C027FF12C0332329F060E070E080E06A
:100B600090E804C06FEF7FEF8FEF9FE722E230E065
:100B70003093100120930F0116C0332341F090955C
:100B80008095709561957F4F8F4F9F4F0CC097FF59
:100B90000AC082E290E09093100180930F016FEF02
:100BA0007FEF8FEF9FE7362F272F482F04C030E0CD
:100BB00020E040E090E0632F722F842F2396E2E143
:100BC0001BC19111ADC0803219F089508550D0F70A
:100BD0000895E82FF92FC8953196061629F00020C0
:100BE000D1F7802D912D089531978E2F9F2F089545
:100BF0000F931F93CF93DF93182F092FC62FD72F53
:100C00008B8181FD03C08FEF9FEF21C082FF11C058
:100C10004E815F812C813D814217530784F4E88126
:100C2000F9812E2F3F2F2F5F3F4F39832883108369
:100C300006C0E885F985812F0995892B21F72E813A
:100C40003F812F5F3F4F3F832E83812F902FDF9176
:100C5000CF911F910F910895E42FF52FAA272830E7
:100C600069F1203199F1E8946F936E7F6E5F7F4F49
:100C70008F4F9F4FAF4FB1E041D0B4E03FD0670FEF
:100C8000781F891F9A1FA11D680F791F8A1F911D48
:100C9000A11D6A0F711D811D911DA11D23D009F495
:100CA00068943F91062E000C3019000C000C30198E
:100CB000305D3193CEF68E2F9F2F0895462F4770CB
:100CC000405D4193B3E00FD0C9F7F5CF462F4F7089
:100CD000405D4A3318F0495D31FD4052419302D0E6
:100CE000A9F7E9CFB4E0A69597958795779567958D
:100CF000BA95C9F70097610571050895262F372F1A
:100D0000482F592F0A2E06945795479537952795C2
:100D1000BA95C9F7620F731F841F951FA01D089510
:100D2000992788270895A1E21A2EAA1BBB1BFD0153
:100D30000DC0AA1FBB1FEE1FFF1FA217B307E407BA
:100D4000F50720F0A21BB30BE40BF50B661F771F12
:100D5000881F991F1A9469F76095709580959095F2
:100D60009B01AC01BD01CF010895E894DF93CF93BF
:100D7000FC01DB010E9417077F936F93E9019A0141
:100D8000AC01BF93AF933F932F93DF010E941707EE
:100D900026F46C1B7D0B820B930B9E01EB01FC0177
:100DA0000E942607AF91BF912F913F910E94260785
:100DB000BE01CF01F9012F913F91CF91DF910895AD
:100DC0002F923F924F925F926F927F928F929F925B
:100DD000AF92BF92CF92DF92EF92FF920F931F9349
:100DE000CF93DF93CDB7DEB7CA1BDB0B0FB6F894FA
:100DF000DEBF0FBECDBF09942A88398848885F843A
:100E00006E847D848C849B84AA84B984C884DF80AA
:100E1000EE80FD800C811B81AA81B981CE0FD11D8E
:100E20000FB6F894DEBF0FBECDBFED010895A29FAF
:100E3000B001B39FC001A39F700D811D1124911DAE
:100E4000B29F700D811D1124911D08950E941707F6
:100E5000460F571FC81FD91F08F431960895F894FC
:020E6000FFCFC2
:100E620001050406020A080968656C6C6F206D6151
:100E7200782177616974696E6720666F7220636F8B
:100E82006D6D616E64732E0A006F6B0A00456E64AD
:100E9200206F66205820726561636865640A0045A8
:100EA2006E64206F66205920726561636865640A0A
:100EB20000456E64206F66205A2072656163686522
:040EC200640A0000BE
:00000001FF
