:100000003AC054C053C052C051C050C04FC04EC07F
:100010004DC04CC04BC04AC049C0ACC147C046C02F
:1000200013C444C078C342C041C040C03FC03EC0BA
:100030003DC03CC02041542B434C49503D310D0044
:100040002041542B434D47463D310D00204154453E
:10005000300D002041540D004154480D0020415402
:100060002B434D47533D22002B373935313239363A
:1000700032343737000011241FBECFEFD2E0DEBF8D
:10008000CDBF11E0A0E0B1E0ECE5FBE002C00590DF
:100090000D92AC32B107D9F712E0ACE2B1E001C089
:1000A0001D92A83CB107E1F7F2D156C5A9CF9FEB4D
:1000B000980F963030F09FE9980F963020F08053DB
:1000C0000895892F0895892F08951F93CF93DF9363
:1000D000EC0188818A3249F0FE01319610E0EF018F
:1000E000182781918A32D9F701C010E08A81DFDFB9
:1000F000912F9F70981309C08981D9DF12951F70C5
:1001000091E0181390E0892F01C080E0DF91CF913A
:100110001F910895FC019F012F5F3F4F822F932F66
:1001200040814C3211F0F901F6CF08950F931F93DF
:10013000CF93DF938B0164E270E0BBD4009709F4A6
:1001400057C0EC01219645E050E060E071E0CE013F
:10015000D4D4892B09F04EC0CE01B7DF882309F42F
:100160004BC0CE01D7DFD6DFFC012081213449F41A
:1001700021E0F8012083CEDFEC0188818C3229F464
:100180000DC0F801108280E03AC0CE01C3DFAC019F
:100190004C1B5D0BBE01C801019698D4CE01BADF9D
:1001A000FC012081F80123A3B5DFEC0188818C32AA
:1001B00049F0CE01AFDFAC014C1B5D0BBE01C801A5
:1001C0000E9684D4CE01A6DFFC012081F80124A381
:1001D000A1DFEC0188818C3289F0CE019BDFAC017C
:1001E0004C1B5D0BBE01C8014B9670D481E007C06B
:1001F00080E005C080E003C080E001C081E0DF91C5
:10020000CF911F910F910895579A5F9A2FEF83ED29
:1002100090E3215080409040E1F700C000005F98DB
:100220002FEF83ED90E3215080409040E1F700C034
:10023000000008951F93CF93DF93CDB7DEB7649787
:100240000FB6F894DEBF0FBECDBF83E590E00AD4B1
:100250002FEF84E39CE0215080409040E1F700C004
:10026000000010E009C0B1D3E1E0F0E0EC0FFD1FA9
:10027000E10FF11D80831F5FC9D38111F4CFE1E04D
:10028000F0E0EC0FFD1FE10FF11D1082BAD366E024
:1002900071E0CE01019641D421E0892B09F420E0E0
:1002A000822F64960FB6F894DEBF0FBECDBFDF91EC
:1002B000CF911F9108958CE490E0D4D32FEF89E67D
:1002C00098E1215080409040E1F700C0000099D3B0
:1002D00080E490E0C7D32FEF89E698E12150804079
:1002E0009040E1F700C000008CD384E390E0BAD3E3
:1002F0002FEF89E698E1215080409040E1F700C05F
:1003000000007FD30895882319F0813041F00895CB
:10031000109281001092850010928400089510922E
:1003200085001092840081E080936F00109280001D
:1003300084E0809381000895CF93C82F8091E601D7
:10034000C817B1F0F894C23049F0C33019F0C13089
:1003500061F408C05A9881E0D6DF07C05A9A80E05D
:10036000D2DF03C05A9A80E0CEDFC093E6017894D2
:10037000CF9108951F920F920FB60F9211242F93D1
:100380003F934F935F936F937F938F939F93AF931D
:10039000BF93EF93FF938091E4019091E501019663
:1003A0009093E5018093E4018091E4019091E5014F
:1003B0008A33924030F082E0BFDF1092E501109264
:1003C000E401FF91EF91BF91AF919F918F917F9148
:1003D0006F915F914F913F912F910F900FBE0F90B2
:1003E0001F9018958DE590E03DD388E690E03AD3D4
:1003F00082E215D38DE013D32FEF80E792E02150F6
:1004000080409040E1F700C000008091C602833533
:1004100011F48DE204D384EA92E016D38BE3FFD289
:100420008091C702873511F48DE2F9D281EB92E019
:100430000BD38AE1F4D2E5D208958091E6018330AE
:1004400029F190D1882311F14DE06AE588E891E027
:10045000A7D180938701E0918701F0E0E857FE4F34
:10046000108263EA72E088E891E060DE882369F038
:100470008091E601823011F483E05EDF8091E30138
:10048000882319F01092E301ADDFDBD10895CF93FB
:10049000DF93CDB7DEB760970FB6F894DEBF0FBE1F
:1004A000CDBF529A7CD283E360D1789482E044DF5E
:1004B00013E0C0DE8093E2018091E20181110BC064
:1004C0002FEF89E698E1215080409040E1F700C08D
:1004D0000000115071F78091E20181110AC094DE91
:1004E0002FEF85EE9AEA215080409040E1F700C05E
:1004F0000000E1DE86D2A1DFC6C067D28983898190
:100500008A3009F0B4C0E0912C01F0E0E35DFE4FC9
:10051000108210922C0164E171E08DE291E0FDD235
:10052000892BC1F162E270E08DE291E0C2D28C01D0
:100530007C012FEFE21AF20A62E270E0C701B9D241
:100540000115110539F1009729F1AC01401B510B40
:10055000B701CE010296BAD268E670E0CE010296EB
:1005600091D2892BB9F481E08093E3018091E60177
:10057000833011F482E0E0DE88E590E073D28FEF03
:100580009EE924E2815090402040E1F700C0000045
:1005900038D2B1CF6AE171E08DE291E0BED2892B11
:1005A00009F471C062E270E08DE291E082D28C01C8
:1005B0007C018FEFE81AF80A62E270E0C70179D295
:1005C0000115110509F45FC0009709F45CC0AC0186
:1005D000401B510BB701CE01029678D268E670E05D
:1005E000CE0102964FD2892B09F04DC010922C01FA
:1005F000ECD18983E0912C018981F0E0E35DFE4F2D
:10060000808380912C018F5F80932C0189818A30B7
:1006100079F7E0912C01F0E0E35DFE4F10826FE18D
:1006200071E08DE291E079D2892B59F08091E60159
:10063000833011F482E080DE81E08093E301E1D138
:100640005ACF63E271E08DE291E067D2892B21F00D
:1006500081E072DED6D14FCF67E271E08DE291E0AA
:100660005CD2892B81F083E067DECBD144CFE0916F
:100670002C018981F0E0E35DFE4F808380912C01A5
:100680008F5F80932C01C2D1811137CF34CF9091ED
:10069000A102891728F49091A102891720F014C0B3
:1006A0001092A1020895982FE92FF0E0EA5BFD4F28
:1006B0002081E92FE81BF0E0EA5BFD4F20839F5F7C
:1006C0002091A102921780F39091A102981B909320
:1006D000A1020895CF93C82F9091A1029A3560F49A
:1006E000E091A102F0E0EA5BFD4F80838091A102DE
:1006F0008F5F8093A1020DC081E0C9DFE091A1026C
:10070000F0E0EA5BFD4FC0838091A1028F5F809390
:10071000A102CF9108951F920F920FB60F9211244C
:100720002F933F934F935F936F937F938F939F93F9
:10073000AF93BF93EF93FF938091C6008093A20283
:10074000C9DFFF91EF91BF91AF919F918F917F9101
:100750006F915F914F913F912F910F900FBE0F902E
:100760001F9018958091A10208951092A1021092F5
:10077000C5008093C4001092C00088E98093C10036
:1007800086E08093C20081E08093A002089580916A
:10079000A102882319F08091A20208958FEF089595
:1007A000FF920F931F93CF93DF93EC01F62E042F4C
:1007B0008091A102882371F180914602841791F003
:1007C000A62FB0E011971097F9F410C0212F30E058
:1007D000F901EA5BFD4F9081901751F02A173B0712
:1007E000A1F406C020E030E010E002C09D0110E05E
:1007F000A9014F5F5F4F66E472E0CE014FD11F5FEA
:10080000812F45DF812F17C010E01F5F9091A1025B
:100810001917E0F2BCDF8013FDCF8091A1028F1584
:1008200008F4F82E4F2D50E066E472E0CE0136D188
:100830008F2D2DDF8F2DDF91CF911F910F91FF9085
:1008400008951092A10208951F920F920FB60F9271
:1008500011242F938F939F93EF93FF9386B582522A
:1008600086BD8091ED01882359F18091EC01815082
:100870008093EC018091EC01811122C08091E9010B
:100880009091EA0180FF02C0289A01C028988091C7
:10089000E9019091EA01969587959093EA018093FA
:1008A000E90183E08093EC018091EB01815080931A
:1008B000EB018091EB01811103C01092ED01289AA8
:1008C0008091F101811161C08091F201882309F1C9
:1008D0008091EF0181508093EF01811156C01092F9
:1008E000F2011092F3018091E701823C09F44DC0BE
:1008F000E091F501F0E0EA50FE4F80838091F50130
:100900008F5F8093F501803508F43FC01092F501A8
:100910003CC08091F301811112C0199936C081E069
:100920008093F3011092E8011092E70194E0909314
:10093000EF0198E09093EE018093F00126C0809142
:10094000EF01815019F08093EF011FC083E0809385
:10095000EF01199B0BC02091F0018091E70190916C
:10096000E801822B9093E8018093E7018091F001E8
:10097000880F8093F0018091EE0181508093EE0109
:10098000811103C081E08093F201FF91EF919F916B
:100990008F912F910F900FBE0F901F90189510926E
:1009A000ED011092F3011092F2011092F1012198E1
:1009B000299A209A289A82E085BD8EED86BDEEE6C2
:1009C000F0E080818160808308959091F5018091AD
:1009D000F401981306C08091F5019091F4019817E5
:1009E000D1F3E091F401F0E0EA50FE4F8081909164
:1009F000F4019F5F9093F401903510F01092F40190
:100A000008951092F5011092F40108959091F40167
:100A10002091F50181E0291301C080E008959091B3
:100A2000ED019111FCCF93E09093EC019AE090934B
:100A3000EB01880F990B92609093EA018093E90192
:100A400081E08093ED010895CF93DF93EC018881DD
:100A5000882329F02196E3DF89918111FCCFDF9172
:100A6000CF910895CF93DF93EC01FC01849188230B
:100A700031F0D5DF2196FE0184918111FACFDF910B
:100A8000CF910895E62FF72FA82FB92F8D91C895F4
:100A9000319680190110D1F3990B0895E62FF72FA5
:100AA000A82FB92F02C001900D9241505040D8F7A5
:100AB0000895E82FF92F8191861721F08823D9F71F
:100AC0009927089531978E2F9F2F0895A82FB92F1A
:100AD000E62FF72F4150504060F051F001900D92F9
:100AE0000020C1F7E61BF70B31978E2F9F2F08953B
:100AF0001C9201900020E9F7F5CFE62FF72FA82FE1
:100B0000B92F4150504030F08D910190801919F467
:100B10000020B9F7881B990B0895E62FF72F519104
:100B20005523C9F06E2F7F2FA82FB92F4D91451750
:100B30004111E1F769F48A2F9B2F0190002051F0B9
:100B40004D9140154111C9F3E62FF72F4111ECCF1C
:0C0B500081E090E001970895F894FFCF39
:100B5C004750524D43004F4B0048656C6C6F204D15
:100B6C00617821002B434C4950002B434D540050CD
:0C0B7C006F7300537079004F6666000034
:00000001FF
