:10000000E9C103C202C201C200C2FFC1FEC1FDC1FB
:10001000FCC1FBC1FAC1F9C1F8C1F7C1F6C1F5C114
:1000200004C8F3C1FEC6F1C1F0C1EFC1EEC1EDC11C
:10003000ECC1EBC141542B434C49503D310D0041C3
:10004000542B434D47463D310D00415445300D0082
:100050004D5347733A200047534D3A20554E415671
:1000600041494C41424C450047534D3A204F4B00CB
:100070004750533A204E4F2056414C494400475078
:10008000533A204F4B004154480D00475053206EC7
:100090006F74207265616479203A280041542B43C3
:1000A0004D47533D22002B37393531323936323402
:1000B000373700000000000000005F00000007006C
:1000C0000700147F147F14242A7F2A124C2C1068F6
:1000D0006436495522500005030000001C224100EF
:1000E0000041221C0014083E081408083E080800BD
:1000F0000050300010101010100060600000201040
:100100000804023E5149453E00427F400042615191
:1001100049462141454B311814127F10274545456A
:10012000393C4A4949300171090503364949493684
:10013000064949291E0036360000005636000008E0
:100140001422410014141414140041221408020152
:10015000510906324979413E7E1111117E7F49498C
:1001600049363E414141227F4141221C7F49494954
:10017000417F090909013E4149497A7F0808087F02
:1001800000417F41002040413F017F081422417F10
:10019000404040407F020C027F7F0408107F3E41B8
:1001A00041413E7F090909063E4151215E7F0919FF
:1001B0002946464949493101017F01013F404040FC
:1001C0003F1F2040201F3F4038403F631408146306
:1001D00007087008076151494543007F414100020B
:1001E000040810200041417F000402010204404045
:1001F000404040000102040020545454787F484499
:1002000044383844444420384444487F3854545493
:1002100018087E0901020C5252523E7F08040478ED
:1002200000447D40002040443D007F1028440000F1
:10023000417F40007C041804787C0804047838442A
:100240004444387C14141408081414187C7C0804E2
:1002500004084854545420043F4440203C4040206B
:100260007C1C2040201C3C4030403C44281028444A
:100270000C5050503C4464544C440008364100003B
:10028000007F000000413608000804081008FFFF46
:10029000FFFFFF7C1211127C7F494949317F494998
:1002A00049367F01010101603F213F607F49494993
:1002B0004177087F087722414949367F1008047F3B
:1002C0007E1009047E7F08142241403E01017F7F99
:1002D000020C027F7F0808087F3E4141413E7F01BA
:1002E00001017F7F090909063E4141412201017F49
:1002F0000101074848483F0E117F110E631408148E
:10030000633F20203F60070808087F7F407E407FD2
:100310003F203F207F017F4848307F4830007F00EA
:100320007F484830224149493E7F083E413E4629A8
:1003300019097F20545454783C4A4A4A317C545419
:1003400028007C04040C00603C243C603854545465
:10035000186C107C106C00445454287C2010087CCD
:100360007C2112097C7C10284400403804047C7CE9
:100370000810087C7C1010107C38444444387C04FD
:1003800004047C7C14141408384444440004047CA1
:1003900004040C5050503C08147C140844281028C5
:1003A000443C20203C600C1010107C7C407C407C45
:1003B0003C203C207C047C5050207C5020007C0061
:1003C0007C50502028445454387C103844384854C9
:1003D00034147C0011241FBECFEFD4E0DEBFCDBFAC
:1003E00011E0A0E0B1E0E4E9F3E102C005900D9274
:1003F000AC31B107D9F713E0ACE1B1E001C01D9217
:10040000A73DB107E1F77AD2C3C7FACD9FEB980FAA
:10041000963030F09FE9980F963020F08053089581
:10042000892F0895892F08951F93CF93DF93EC01AF
:1004300088818A3249F0FE01319610E0EF011827D9
:1004400081918A32D9F701C010E08A81DFDF912FD4
:100450009F70981309C08981D9DF12951F7091E0B0
:10046000181390E0892F01C080E0DF91CF911F9198
:100470000895FC019F012F5F3F4F822F932F4081F2
:100480004C3211F0F901F6CF08950F931F93CF93DB
:10049000DF938B0164E270E0F3D6009709F458C053
:1004A000EC01219645E050E060E071E0CE010CD710
:1004B000892B09F04FC0CE01B7DF882309F44CC067
:1004C000CE01D7DFD6DFFC012081213421F421E0E9
:1004D000F801208302C0F8011082CBDFEC01888193
:1004E0008C3249F0CE01C5DFAC014C1B5D0BBE0167
:1004F000C8010196D2D6CE01BCDFFC012081F801F3
:1005000023A3B7DFEC0188818C3249F0CE01B1DF43
:10051000AC014C1B5D0BBE01C8010E96BED6CE01D0
:10052000A8DFFC012081F80124A3A3DFEC0188816E
:100530008C3249F0CE019DDFAC014C1B5D0BBE013E
:10054000C8014B96AAD6CE0194DF93DF80E005C0A8
:100550008FEF03C08FEF01C08FEFDF91CF911F911D
:100560000F9108951F93CF93DF93CDB7DEB7A89770
:100570000FB6F894DEBF0FBECDBF86E091E099D4F0
:100580002FEF80E792E0215080409040E1F700C0DB
:1005900000006ED4182F8823A9F0682FCE01019691
:1005A000C5D4E1E0F0E0EC0FFD1FE10FF11D10827A
:1005B0006AE071E0CE01019697D621E0892B19F40B
:1005C00020E001C020E0822FA8960FB6F894DEBF8D
:1005D0000FBECDBFDF91CF911F9108958AE490E0C7
:1005E00082D42FEF84E39CE0215080409040E1F7DB
:1005F00000C000008FE390E076D42FEF84E39CE00E
:10060000215080409040E1F700C0000084E390E07A
:100610006AD42FEF84E39CE0215080409040E1F7C2
:1006200000C00000E4D408953A9A429A2FEF83ED77
:1006300090E3215080409040E1F700C000004298D4
:100640002FEF83ED90E3215080409040E1F700C010
:10065000000008958CE990E046D486EA90E043D407
:1006600082E21BD48DE019D42FEF80E792E0215075
:1006700080409040E1F700C0000080916F03882324
:1006800049F080E793E015D48CE207D48DE793E03E
:1006900010D403C08BE890E026D48AE1FED3809189
:1006A00020018F5F809320010895EF92FF920F93B6
:1006B0001F93CF93DF93CDB7DEB7CF54D1090FB6D9
:1006C000F894DEBF0FBECDBFD3D380931C018091C1
:1006D0001C01843008F494C08DE08CD4882309F484
:1006E0008FC04DE060E4CE01019630D4E1E0F0E04F
:1006F000EC0FFD1FE80FF11D10826DE071E0CE01DF
:100700000196F2D5892BD1F162E270E0CE0101961B
:10071000B7D58C017C012FEFE21AF20A62E270E099
:10072000C701AED50115110509F46AC0009709F497
:1007300067C0AC01401B510BB701CE018F5B9F4FCF
:10074000ACD566EA70E0CE018F5B9F4F82D5892BD6
:1007500009F056C0CE01019660D4E1E0F0E0EC0F64
:10076000FD1FE80FF11D108262E171E0CE010196DC
:10077000BBD5892B09F444C06DDF42C066E171E04E
:10078000CE010196B1D5892BD9F1CE01019645D480
:10079000E1E0F0E0EC0FFD1FE80FF11D108227D41F
:1007A00086E890E0A0D38FEF94E32CE08150904056
:1007B0002040E1F700C0000062E270E0CE01019647
:1007C0005FD58C017C018FEFE81AF80A62E270E0D5
:1007D000C70156D50115110599F0009789F0AC01B4
:1007E000401B510BB701CE018F5B9F4F56D566EA78
:1007F00070E0CE018F5B9F4F2CD5892B09F42ADF47
:10080000C15BDF4F0FB6F894DEBF0FBECDBFDF91E7
:10081000CF911F910F91FF90EF900895CF93DF93A9
:1008200000D000D000D0CDB7DEB7D3D060E080E0FC
:1008300073D180916F03882331F06EE770E081E01F
:1008400090E08DD205C060E770E081E090E087D253
:1008500061E080E061D180911F01882331F068E67A
:1008600070E081E090E07BD205C067E570E081E058
:1008700090E075D262E080E04FD160E773E081E004
:1008800090E04BD263E080E047D16DE773E081E018
:1008900090E043D264E080E03FD160E570E081E029
:1008A00090E05DD2809120014AE050E0BE016F5F90
:1008B0007F4F90E038D5BE016F5F7F4F81E090E0C1
:1008C0002CD265E080E028D180911D0190911E011D
:1008D0004AE050E0BE016F5F7F4F25D5BE016F5FDC
:1008E0007F4F81E090E019D28CD026960FB6F89415
:1008F000DEBF0FBECDBFDF91CF910895CF93DF93C1
:10090000CDB7DEB7C054D1090FB6F894DEBF0FBE25
:10091000CDBF36D483E3AFD2DBD078945AD060E039
:1009200080E0FAD06AE281E090E011D16AD01ADE6C
:1009300080931F0181110AC077DE2FEF8BE792E9C8
:10094000215080409040E1F700C000000BDE809312
:100950001F0144DEF12C8E010F5F1F4FD02EE12EC0
:10096000C12CA3DE1AC022D48A3011F08D3071F46C
:10097000F801EF0DF11D10826FE673E08D2D9E2DB5
:1009800084DD811109C030D4FC2C07C0F801EF0DC3
:10099000F11D8083F39401C0FC2C2BD48111E3CF93
:1009A0003DDF20911D0130911E012F5F3F4F30939D
:1009B0001E0120931D01D5CF29986130710511F4D6
:1009C000289A01C028988EBD0DB407FEFDCF299A44
:1009D000089588EF91E0E8E2F1E0DF019C011D92CB
:1009E00021503040E1F7109227011092260187EF45
:1009F00091E0909325018093240181E0809321016F
:100A000008950F931F93CF93DF93809126019091C8
:100A1000270199232CF4109227011092260109C076
:100A2000883F914034F087EF91E0909327018093C5
:100A30002601809124019091250199232CF4109294
:100A400025011092240109C0883F914034F087EFBE
:100A500091E09093250180932401C0912601D091CB
:100A60002701CE0164E570E0CDD3162F60E070E081
:100A70008068A2DF60E070E0812F80649DDF80915C
:100A80002401909125018C179D078CF08E01085D43
:100A90001E4F61E070E0F80181918F018DDF21969A
:100AA00080912401909125018C179D0794F787EF81
:100AB00091E09093270180932601109225011092D6
:100AC000240110922101DF91CF911F910F91089580
:100AD0002A9A84B18F6284B92A982A9A80E58CBDBB
:100AE000299A60E070E081E267DF60E070E088EC06
:100AF00063DF60E070E086E05FDF60E070E083E18C
:100B00005BDF60E070E080E257DF60E070E08CE087
:100B100053DF5FDF76DF08958E30A8F46630A8F4E7
:100B200090E09C01220F331F820F931F880F991FA3
:100B300024E5629F800D911D1124909323018093E1
:100B4000220180E0089581E0089581E008951F93D7
:100B5000CF93DF9320912201309123014091260110
:100B6000509127012417350724F43093270120934F
:100B70002601E0EEE60FE03630F0603C18F0E0EAE7
:100B8000E60F01C0EFE58130910549F56091220142
:100B900070912301CB01AB014B5F5F4F2E2F30E0F3
:100BA000F901EE0FFF1FEE0FFF1F2E0F3F1F261B39
:100BB000370B2D543F4FF901E80FF91FE491DC0189
:100BC000A85DBE4FEE0FEC9301968417950799F739
:100BD0006B5F7F4F709323016093220175C0029772
:100BE00009F072C0C90184559109409126015091C4
:100BF00027018417950724F49093270180932601F9
:100C000099230CF485C08E2F90E0FC01EE0FFF1F9E
:100C1000EE0FFF1FE80FF91FED54FF4FD901AB5244
:100C2000BF4FC90181529F4F18E14491440F542F87
:100C30005470652F660F560F550F550F642F627055
:100C4000762F770F670F660F562B742F7870719F72
:100C5000702D1124572B42954F70642F6170762FA1
:100C6000770F670F742F7270C72FCC0F7C0F770F21
:100C7000762B642F6470C62FCC0F6C0FC62FCC0F51
:100C8000CC0F672F6C2B4870419FC02D1124462F2D
:100C90004C2BED01219758835C93ED01CD5ADF4F2A
:100CA0004883ED01CC5ADF4F488331961296A8173E
:100CB000B90709F0BACFC9010B9668EF71E0A2D26B
:100CC000909323018093220180912201909123012E
:100CD00020912401309125012817390724F490939D
:100CE000250180932401FC01E85DFE4F1082873FBF
:100CF00021E0920731F4109223011092220182E048
:100D000008C00196909323018093220180E001C0E6
:100D100081E0DF91CF911F910895FF920F931F9370
:100D2000CF93DF938C01EB016881662369F0F12C8E
:100D3000C8010DDF813051F0F394FE01EF0DF11D7C
:100D400060816111F5CF04C080E003C081E001C083
:100D500080E0DF91CF911F910F91FF9008950F9345
:100D60001F93CF93DF938C01EB01FB01649166230A
:100D700051F0C801ECDE813041F02196FE01649112
:100D80006111F7CF04C080E003C081E001C080E0C2
:100D9000DF91CF911F910F9108959091D5038917FD
:100DA00028F49091D503891720F014C01092D50330
:100DB0000895982FE92FF0E0EC56FC4F2081E92FA1
:100DC000E81BF0E0EC56FC4F20839F5F2091D50399
:100DD000921780F39091D503981B9093D5030895B3
:100DE000CF93C82F9091D503903460F4E091D50350
:100DF000F0E0EC56FC4F80838091D5038F5F8093A9
:100E0000D5030DC081E0C9DFE091D503F0E0EC56D9
:100E1000FC4FC0838091D5038F5F8093D503CF9122
:100E200008951F920F920FB60F9211242F933F93A4
:100E30004F935F936F937F938F939F93AF93BF93E2
:100E4000EF93FF938091C6008093D603C9DFFF9193
:100E5000EF91BF91AF919F918F917F916F915F9132
:100E60004F913F912F910F900FBE0F901F901895AB
:100E70008091D50308951092D5031092C5008093F8
:100E8000C4001092C00088E98093C10086E080937E
:100E9000C20081E08093D40308959091D4039923F4
:100EA00039F0E0ECF0E0908195FFFDCF8093C60033
:100EB0000895CF93DF932091D403222389F0FC017E
:100EC0002081222369F0DC011196E0ECF0E0C6EC11
:100ED000D0E0808185FFFDCF28832D912111F9CFAE
:100EE000DF91CF910895CF93DF939C01FC01449152
:100EF000442381F0A0ECB0E0C6ECD0E00196F9010B
:100F000024913C9135FFFDCF28839C01FC01449145
:100F10004111F4CFDF91CF9108958091D5038823BB
:100F200019F08091D60308958FEF0895CF93C62FBF
:100F30002091D5032C17E0F34C2F50E064E973E0C7
:100F400094D18C2F2ADF8C2FCF910895FF920F938D
:100F50001F93CF93DF93EC01F62E042F8091D503DE
:100F6000882371F180919403841791F0A62FB0E04B
:100F700011971097F9F410C0212F30E0F901EC56C9
:100F8000FC4F9081901751F02A173B07A1F406C03F
:100F900020E030E010E002C09D0110E0A9014F5FA9
:100FA0005F4F64E973E0CE0160D11F5F812FF5DEF2
:100FB000812F17C010E01F5F9091D5031917E0F241
:100FC000ACDF8013FDCF8091D5038F1508F4F82E88
:100FD0004F2D50E064E973E0CE0147D18F2DDDDE67
:100FE0008F2DDF91CF911F910F91FF900895109257
:100FF000D50308959091D503992361F0682F772741
:1010000067FD709584E993E03BD121E0892B19F4C9
:1010100020E001C020E0822F0895CF93C091D50336
:101020006C2F84DF8C2FCF9108951F920F920FB6F3
:101030000F9211242F938F939F93EF93FF9386B575
:10104000825286BD80912603882359F18091250321
:1010500081508093250380912503811122C08091C6
:1010600022039091230380FF02C0419A01C041985E
:101070008091220390912303969587959093230363
:101080008093220383E08093250380912403815081
:101090008093240380912403811103C010922603BE
:1010A000419A80912A03811161C080912B0388238A
:1010B00009F180912803815080932803811156C043
:1010C00010922B0310922C0380912003823C09F490
:1010D0004DC0E0912E03F0E0E15DFC4F80838091F4
:1010E0002E038F5F80932E03803408F43FC010924C
:1010F0002E033CC080912C03811112C0309936C060
:1011000081E080932C03109221031092200394E03D
:101110009093280398E0909327038093290326C097
:1011200080912803815019F0809328031FC083E029
:1011300080932803309B0BC02091290380912003CA
:1011400090912103822B909321038093200380911F
:101150002903880F8093290380912703815080936E
:101160002703811103C081E080932B03FF91EF914E
:101170009F918F912F910F900FBE0F901F901895F8
:101180001092260310922C0310922B0310922A0324
:101190003898409A399A419A82E085BD8EED86BD95
:1011A000EEE6F0E0808181608083089590912E03C7
:1011B00080912D03981306C080912E0390912D03EA
:1011C0009817D1F3E0912D03F0E0E15DFC4F8081B1
:1011D00090912D039F5F90932D03903410F0109207
:1011E0002D038A3019F3089510922E0310922D03C7
:1011F000089590912D0320912E0381E0291301C0C1
:1012000080E0089597FB072E16F4009406D077FD32
:1012100008D00BD007FC05D03EF4909581959F4FE8
:101220000895709561957F4F0895AA1BBB1B51E1EE
:1012300007C0AA1FBB1FA617B70710F0A61BB70B46
:10124000881F991F5A95A9F780959095BC01CD01EB
:101250000895E62FF72FA82FB92F8D91C8953196B5
:1012600080190110D1F3990B0895E62FF72FA82FBD
:10127000B92F02C001900D9241505040D8F7089507
:10128000E82FF92F8191861721F08823D9F7992724
:10129000089531978E2F9F2F0895A82FB92FE62FED
:1012A000F72F4150504060F051F001900D92002016
:1012B000C1F7E61BF70B31978E2F9F2F08951C92D5
:1012C00001900020E9F7F5CFE62FF72FA82FB92FCF
:1012D0004150504030F08D910190801919F4002058
:1012E000B9F7881B990B0895E62FF72F51915523D5
:1012F000C9F06E2F7F2FA82FB92F4D91451741119F
:10130000E1F769F48A2F9B2F0190002051F04D9155
:1013100040154111C9F3E62FF72F4111ECCF81E0C1
:1013200090E001970895E62FF72F2E2F3F2FE89496
:101330004230C4F04532B4F44A3029F497FB1EF42D
:10134000909581959F4F642F77276FDF805D8A335B
:101350000CF0895D8193862F972F0097A1F716F4E3
:101360005DE251931082822F932F00C0A82FB92FD6
:10137000E82FF92F672F71917723E1F7329704C097
:101380007C916D9370836291AE17BF07C8F3089587
:04139000F894FFCFFF
:101394004750524D430041540D004F4B002B434DD9
:0C13A4005400506F730052494E47000087
:00000001FF
