:1000000055C06FC06EC06DC06CC06BC06AC069C0A7
:1000100068C09FC166C065C064C01AC262C061C0CA
:10002000D4C45FC039C45DC05CC05BC05AC059C095
:1000300058C057C041542B434C49503D310D0041ED
:10004000542B434D47463D310D00415445300D0082
:1000500041542B4353434C4B3D320D002041540D32
:10006000004154480D00475053206E6F7420726554
:10007000616479203A28002041542B434D47533D79
:1000800022002B00253243002B00687474703A2F35
:100090002F676F6F676C652E72752F23713D002B74
:1000A00037393531323936323437370011241FBEF3
:1000B000CFEFD4E0DEBFCDBF11E0A0E0B1E0ECE4D3
:1000C000FDE002C005900D92AC32B107D9F712E005
:1000D000ACE2B1E001C01D92A739B107E1F757D2F8
:1000E00033C68ECF9FEB980F963030F09FE9980F74
:1000F000963020F080530895892F0895892F089510
:100100001F93CF93DF93EC0188818A3249F0FE017F
:10011000319610E0EF01182781918A32D9F701C09A
:1001200010E08A81DFDF912F9F70981309C08981C9
:10013000D9DF12951F7091E0181390E0892F01C04C
:1001400080E0DF91CF911F910895FC019F012F5F07
:100150003F4F822F932F40814C3211F0F901F6CF9F
:1001600008950F931F93CF93DF938B0164E270E0A8
:1001700086D5009709F45AC0EC01219645E050E07D
:1001800061E071E0CE01B1D5892B09F051C0CE01FB
:10019000B7DF882309F44EC0CE01D7DFD6DFFC01DC
:1001A0002081213449F421E0F8012083CEDFEC01E5
:1001B00088818C3229F40DC0F801108280E03BC0A8
:1001C000CE01C3DFAC014C1B5D0BBE01C801019623
:1001D00063D5CE01BADFFC012081F80123A3B5DF8E
:1001E000EC0188818C3249F0CE01AFDFAC014C1BB1
:1001F0005D0BBE01C8010E964FD5CE01A6DFFC01F6
:100200002081F80124A3A1DFEC0188818C3249F020
:10021000CE019BDFAC014C1B5D0BBE01C8014B96B0
:100220003BD5CE0192DF91DF81E005C080E003C0C5
:1002300080E001C080E0DF91CF911F910F91089580
:100240003A9A429A2FEF83ED90E3215080409040FC
:10025000E1F700C0000042982FEF83ED90E32150BA
:1002600080409040E1F700C0000008951F93CF93B5
:10027000DF93CDB7DEB764970FB6F894DEBF0FBE3D
:10028000CDBF8CE590E0AFD42FEF80E792E0215016
:1002900080409040E1F700C0000010E009C056D453
:1002A000E1E0F0E0EC0FFD1FE10FF11D80831F5F27
:1002B0006ED48111F4CFE1E0F0E0EC0FFD1FE10F0F
:1002C000F11D10825FD46BE071E0CE0101961DD567
:1002D00021E0892B09F420E0822F64960FB6F89470
:1002E000DEBF0FBECDBFDF91CF911F91089580E596
:1002F00090E079D42FEF82E597E021508040904044
:10030000E1F700C000008AE490E06DD42FEF82E5B1
:1003100097E0215080409040E1F700C000008FE35B
:1003200090E061D42FEF82E597E02150804090402B
:10033000E1F700C0000084E390E055D42FEF84E3A0
:100340009CE0215080409040E1F700C000001AD4AA
:1003500008951F920F920FB60F9211242F938F932F
:100360009F938091820190918301019690938301E4
:10037000809382018E349E4038F081E08093810129
:1003800010928301109282019F918F912F910F9073
:100390000FBE0F901F901895882319F0813041F0FF
:1003A00008951092810010928500109284000895A3
:1003B000109285001092840081E080936F0010926B
:1003C000800084E0809381000895882319F08130B3
:1003D00031F008951092B1001092B2000895109279
:1003E000B20081E0809370001092B00087E08093AB
:1003F000B1000895CF93C82F80910001C81731F143
:10040000F894C130D1F090F0C23049F0C330D9F443
:100410002998439881E0C0DF80E0D7DF14C0299A93
:10042000439A80E0B9DF80E0D0DF0DC0299A439A7B
:1004300080E0B2DF80E0C9DF06C0299A439A80E0FD
:10044000ABDF81E0C2DFC09300017894CF910895C3
:100450001F920F920FB60F9211242F933F934F9339
:100460005F936F937F938F939F93AF93BF93EF931C
:10047000FF9380918401909185010196909385016D
:1004800080938401C99730F082E0B4DF1092850137
:1004900010928401FF91EF91BF91AF919F918F9145
:1004A0007F916F915F914F913F912F910F900FBE70
:1004B0000F901F901895CF93DF93EC016AE870E0DE
:1004C000BCD342E050E066E172E0CE01FCD368E8C4
:1004D00070E0CE0198D368E172E0CE01C3D364E846
:1004E00070E0CE0190D342E050E064E272E0CE01D1
:1004F000EAD362E870E0CE0186D366E272E0CE0114
:10050000B1D3DF91CF910895CF93DF93CDB7DEB70D
:10051000EC970FB6F894DEBF0FBECDBF87E790E033
:1005200062D38FE990E05FD382E23AD38DE038D393
:100530002FEF80E792E0215080409040E1F700C02B
:10054000000080911502882339F0CE010196B3DFB7
:10055000CE0101963AD303C086E690E044D38AE107
:100560001FD3809180018F5F80938001EC960FB63E
:10057000F894DEBF0FBECDBFDF91CF91089580917B
:100580008101882311F0289A089528980895CF931F
:10059000DF93CDB7DEB7CF55D1090FB6F894DEBFE4
:1005A0000FBECDBFBDD283E3A1D18FEF84B985B992
:1005B00078945CDE80937F0181110AC041DE2FEFC9
:1005C0008BE792E9215080409040E1F700C00000A5
:1005D0004DDE80937F018BDE15B880E00BDFF12CC0
:1005E000612C8E010F5F1F4F802E912E762C8091F3
:1005F0000001833009F4EDC076D1882309F4E9C005
:100600004DE060E58DE291E08CD180932C01E82FE4
:10061000F0E0E35DFE4F108265E172E08DE291E073
:10062000A0DD882369F080918101882319F06CDFB7
:100630006092810180910001823011F483E0DADE62
:10064000C1D1C7C083D28A3009F0B6C0F801EF0D1E
:10065000F11D10826EE071E0882D992D56D3892B03
:10066000E9F162E270E0882D992D09D37C016C01DB
:100670002FEFC21AD20A62E270E0C60100D35C0119
:1006800081E690E0B0D28FEF9EE924E28150904065
:100690002040E1F700C00000E114F104F9F0A114DA
:1006A000B104E1F0A5014E195F09B601CE018F5AE0
:1006B0009F4FF2D26FE970E0CE018F5A9F4FB1D2B7
:1006C000892B61F480910001833011F482E092DE85
:1006D00081E08093810156D2F62C7EC064E171E006
:1006E000882D992D12D3892B09F46CC062E270E039
:1006F000882D992DC4D26C017C018FEFE81AF80A7D
:1007000062E270E0C701BBD2C114D10409F45CC03D
:10071000009709F45BC0AC014C195D09B701CE012B
:100720008F5A9F4FB9D26FE970E0CE018F5A9F4F19
:1007300078D2892B09F04CC0F72C08D2F801EF0DC4
:10074000F11D8083F3948A30C1F7F801EF0DF11D9C
:10075000108269E171E0882D992DD7D2892B59F04B
:1007600080910001833011F482E044DE81E08093C7
:10077000810108D231C06DE171E0882D992DC5D27B
:10078000892B21F0862D36DEFDD126C061E271E095
:10079000882D992DBAD2892B21F081E02BDEF2D160
:1007A0001BC067E271E0882D992DAFD2892B89F0AB
:1007B00083E020DEE7D110C0F801EF0DF11D80834A
:1007C000F39407C0F72C05C0F72C03C0F72C01C029
:1007D000F72CDDD1811136CFD2DE80917D01909151
:1007E0007E01019690937E0180937D0180917D0131
:1007F00090917E0180FDFBCE2B9A9FEF20E782E057
:10080000915020408040E1F700C000002B98EFCECF
:1008100090919502891728F490919502891720F0FC
:1008200014C0109295020895982FE92FF0E0E65C2D
:10083000FD4F2081E92FE81BF0E0E65CFD4F2083AF
:100840009F5F20919502921780F390919502981BDB
:10085000909395020895CF93C82F909195029A3561
:1008600060F4E0919502F0E0E65CFD4F80838091BA
:1008700095028F5F809395020DC081E0C9DFE09102
:100880009502F0E0E65CFD4FC083809195028F5F9A
:1008900080939502CF9108951F920F920FB60F92F9
:1008A00011242F933F934F935F936F937F938F9375
:1008B0009F93AF93BF93EF93FF938091C600809374
:1008C0009602C9DFFF91EF91BF91AF919F918F91F8
:1008D0007F916F915F914F913F912F910F900FBE3C
:1008E0000F901F901895809195020895109295028F
:1008F0001092C5008093C4001092C00088E98093D4
:10090000C10086E08093C20081E080939402089544
:1009100080919502882319F08091960208958FEFB7
:100920000895FF920F931F93CF93DF93EC01F62E60
:10093000042F80919502882371F180913A028417E7
:1009400091F0A62FB0E011971097F9F410C0212F65
:1009500030E0F901E65CFD4F9081901751F02A17C5
:100960003B07A1F406C020E030E010E002C09D018A
:1009700010E0A9014F5F5F4F6AE372E0CE0167D1DB
:100980001F5F812F45DF812F17C010E01F5F9091FF
:1009900095021917E0F2BCDF8013FDCF809195021C
:1009A0008F1508F4F82E4F2D50E06AE372E0CE0167
:1009B0004ED18F2D2DDF8F2DDF91CF911F910F9174
:1009C000FF9008951092950208951F920F920FB60E
:1009D0000F9211242F938F939F93EF93FF9386B5DC
:1009E000825286BD80918C01882359F180918B01C0
:1009F000815080938B0180918B01811122C0809165
:100A000088019091890180FF02C0419A01C04198FC
:100A1000809188019091890196958795909389019D
:100A20008093880183E080938B0180918A018150BB
:100A300080938A0180918A01811103C010928C01F8
:100A4000419A80919001811161C080919101882328
:100A500009F180918E01815080938E01811156C0E1
:100A6000109291011092920180918601823C09F4CA
:100A70004DC0E0919401F0E0EB56FE4F80838091F1
:100A800094018F5F8093940188230CF03FC01092F3
:100A900094013CC080919201811112C0309936C0FE
:100AA00081E080939201109287011092860194E078
:100AB00090938E0198E090938D0180938F0126C0D2
:100AC00080918E01815019F080938E011FC083E0C8
:100AD00080938E01309B0BC020918F018091860105
:100AE00090918701822B909387018093860180915A
:100AF0008F01880F80938F0180918D0181508093A9
:100B00008D01811103C081E080939101FF91EF91EC
:100B10009F918F912F910F900FBE0F901F9018955E
:100B200010928C01109292011092910110929001FA
:100B30003898409A399A419A82E085BD8EED86BDFB
:100B4000EEE6F0E0808181608083089590919401C9
:100B500080919301981306C0809194019091930124
:100B60009817D1F3E0919301F0E0EB56FE4F8081AE
:100B7000909193019F5F90939301992314F41092A5
:100B80009301089510929401109293010895909109
:100B900093012091940181E0291301C080E0089520
:100BA00090918C019111FCCF93E090938B019AE08E
:100BB00090938A01880F990B92609093890180939A
:100BC000880181E080938C010895CF93DF93EC013D
:100BD0008881882329F02196E3DF89918111FCCF58
:100BE000DF91CF910895CF93DF93EC01FC018491C5
:100BF000882331F0D5DF2196FE0184918111FACF4F
:100C0000DF91CF910895E62FF72FA82FB92F0D90E0
:100C10000020E9F71197C89531960D920020D9F779
:100C20000895E62FF72FA82FB92F8D91C8953196EB
:100C300080190110D1F3990B0895E62FF72FA82FF3
:100C4000B92FC89531960D920020D9F70895E62F57
:100C5000F72FA82FB92F02C001900D92415050409C
:100C6000D8F70895E62FF72FA82FB92F0D90002061
:100C7000E9F7119701900D920020E1F70895E82F10
:100C8000F92F8191861721F08823D9F799270895A4
:100C900031978E2F9F2F0895A82FB92FE62FF72F6A
:100CA0004150504060F051F001900D920020C1F78A
:100CB000E61BF70B31978E2F9F2F08951C92019002
:100CC0000020E9F7F5CFE62FF72FA82FB92F0D90C9
:100CD0000020E9F711974150504028F00190002082
:100CE0000D92C9F708951C920895E62FF72FA82FAB
:100CF000B92F4150504030F08D910190801919F476
:100D00000020B9F7881B990B0895E62FF72F519112
:100D10005523C9F06E2F7F2FA82FB92F4D9145175E
:100D20004111E1F769F48A2F9B2F0190002051F0C7
:100D30004D9140154111C9F3E62FF72F4111ECCF2A
:0C0D400081E090E001970895F894FFCF47
:100D4C00034750524D430041540D004F4B002B4371
:100D5C004C4950002B434D5400506F730053707925
:0C0D6C0000547261636B004F666600006B
:00000001FF
