:10000000F6C110C20FC20EC20DC20CC20BC20AC290
:1000100009C208C207C206C205C204C203C202C2A4
:10002000B6C700C21BC7FEC1FDC1FCC1FBC1FAC1FE
:10003000F9C1F8C141542B434C49503D310D0041A9
:10004000542B434D47463D310D00415445300D0082
:1000500041540D004154480D004D5347733A200060
:1000600047534D3A204641494C0047534D3A204FA3
:100070004B004750533A204E4F5456414C49440090
:100080004750533A204F4B00475053206E6F742017
:100090007265616479203A280041542B434D4753DF
:1000A0003D22002B00253243002B00687474703A07
:1000B0002F2F676F6F676C652E72752F23713D0050
:1000C0002B373935313239363234373700000000BA
:1000D000000000005F00000007000700147F147F8D
:1000E00014242A7F2A124C2C106864364955225059
:1000F0000005030000001C2241000041221C0014E6
:10010000083E081408083E0808000050300010108F
:10011000101010006060000020100804023E5149D9
:10012000453E00427F400042615149462141454BD6
:10013000311814127F1027454545393C4A4949304A
:1001400001710905033649494936064949291E0006
:100150003636000000563600000814224100141400
:10016000141414004122140802015109063249797D
:10017000413E7E1111117E7F494949363E41414140
:10018000227F4141221C7F494949417F09090901D8
:100190003E4149497A7F0808087F00417F4100209D
:1001A00040413F017F081422417F404040407F0290
:1001B0000C027F7F0408107F3E4141413E7F0909C8
:1001C00009063E4151215E7F0919294646494949A0
:1001D0003101017F01013F4040403F1F2040201F6F
:1001E0003F4038403F6314081463070870080761F4
:1001F00051494543007F414100020408102000415D
:10020000417F0004020102044040404040000102DE
:10021000040020545454787F4844443838444444BB
:1002200020384444487F3854545418087E09010249
:100230000C5252523E7F0804047800447D40002056
:1002400040443D007F1028440000417F40007C0472
:100250001804787C0804047838444444387C141426
:100260001408081414187C7C0804040848545454D6
:1002700020043F4440203C4040207C1C2040201C67
:100280003C4030403C44281028440C5050503C44E2
:1002900064544C44000836410000007F00000041D7
:1002A0003608000804081008FFFFFFFFFF7C12114A
:1002B000127C7F494949317F494949367F01010113
:1002C00001603F213F607F4949494177087F0877B6
:1002D00022414949367F1008047F7E1009047E7F41
:1002E00008142241403E01017F7F020C027F7F08FB
:1002F00008087F3E4141413E7F0101017F7F09099E
:1003000009063E4141412201017F01010748484859
:100310003F0E117F110E63140814633F20203F60CD
:10032000070808087F7F407E407F3F203F207F01F5
:100330007F4848307F4830007F007F484830224166
:1003400049493E7F083E413E462919097F205454C1
:1003500054783C4A4A4A317C545428007C04040CAA
:1003600000603C243C6038545454186C107C106C71
:1003700000445454287C2010087C7C2112097C7C89
:1003800010284400403804047C7C0810087C7C1051
:1003900010107C38444444387C0404047C7C1414DD
:1003A0001408384444440004047C04040C505050A5
:1003B0003C08147C140844281028443C20203C604D
:1003C0000C1010107C7C407C407C3C203C207C0449
:1003D0007C5050207C5020007C007C5050202844D1
:1003E0005454387C10384438485434147C00112458
:1003F0001FBECFEFD4E0DEBFCDBF11E0A0E0B1E083
:10040000E8ECF3E102C005900D92AC31B107D9F7E9
:1004100014E0ACE1B1E001C01D92A138B107E1F7F1
:10042000FFD1D0C7EDCD9FEB980F963030F09FE90C
:10043000980F963020F080530895892F0895892FC2
:1004400008951F93CF93DF93EC0188818A3249F09E
:10045000FE01319610E0EF01182781918A32D9F719
:1004600001C010E08A81DFDF912F9F70981309C0CF
:100470008981D9DF12951F7091E0181390E0892FC0
:1004800001C080E0DF91CF911F910895FC019F0191
:100490002F5F3F4F822F932F40814C3211F0F90193
:1004A000F6CF08950F931F93CF93DF938B0164E2F0
:1004B00070E0EED6009709F458C0EC01219645E0B3
:1004C00050E060E071E0CE0119D7892B09F04FC0F0
:1004D000CE01B7DF882309F44CC0CE01D7DFD6DFC9
:1004E000FC012081213421F421E0F801208302C0A5
:1004F000F8011082CBDFEC0188818C3249F0CE010B
:10050000C5DFAC014C1B5D0BBE01C8010196CDD609
:10051000CE01BCDFFC012081F80123A3B7DFEC0191
:1005200088818C3249F0CE01B1DFAC014C1B5D0BF0
:10053000BE01C8010E96B9D6CE01A8DFFC0120810C
:10054000F80124A3A3DFEC0188818C3249F0CE01AD
:100550009DDFAC014C1B5D0BBE01C8014B96A5D6BF
:10056000CE0194DF93DF80E005C080E003C08FEF11
:1005700001C08FEFDF91CF911F910F9108953A9AAB
:10058000429A2FEF83ED90E3215080409040E1F7B5
:1005900000C0000042982FEF83ED90E3215080408F
:1005A0009040E1F700C0000008951F93CF93DF93C0
:1005B000CDB7DEB764970FB6F894DEBF0FBECDBFE0
:1005C00080E590E0F2D52FEF80E792E02150804067
:1005D0009040E1F700C0000010E009C099D5E1E0CB
:1005E000F0E0EC0FFD1FE10FF11D80831F5FB1D51F
:1005F0008111F4CFE1E0F0E0EC0FFD1FE10FF11D00
:100600001082A2D56AE071E0CE01019687D621E082
:10061000892B09F420E0822F64960FB6F894DEBF90
:100620000FBECDBFDF91CF911F9108958AE490E076
:10063000BCD52FEF82E597E0215080409040E1F754
:1006400000C000008FE390E0B0D52FEF82E597E087
:10065000215080409040E1F700C0000084E390E02A
:10066000A4D52FEF84E39CE0215080409040E1F737
:1006700000C0000069D50895CF93DF93EC016BEAC9
:1006800070E0E4D542E050E060E074E0CE0124D6B2
:1006900069EA70E0CE01C0D562E074E0CE01EBD52E
:1006A00065EA70E0CE01B8D542E050E06EE074E05B
:1006B000CE0112D663EA70E0CE01AED560E174E0FF
:1006C000CE01D9D5DF91CF910895CF93DF93CDB7E8
:1006D000DEB7EC970FB6F894DEBF0FBECDBF89E949
:1006E00090E063D580EC90E060D582E23BD58DE070
:1006F00039D52FEF80E792E0215080409040E1F71C
:1007000000C000008091FF03882339F0CE010196DC
:10071000B3DFCE0101963BD503C088E890E045D514
:100720008AE120D5809170018F5F80937001EC96F3
:100730000FB6F894DEBF0FBECDBFDF91CF91089505
:10074000CF93DF9300D000D000D0CDB7DEB75ED11D
:1007500060E080E0FED18091FF03882331F060E803
:1007600070E081E090E018D305C062E770E081E0BE
:1007700090E012D361E080E0ECD180916F0188239A
:1007800031F06AE670E081E090E006D305C060E6F3
:1007900070E081E090E000D362E080E0DAD160E0D8
:1007A00074E081E090E0D6D263E080E0D2D16DE0E9
:1007B00074E081E090E0CED264E080E0CAD169E5E7
:1007C00070E081E090E0E8D2809170014AE050E072
:1007D000BE016F5F7F4F90E0C0D5BE016F5F7F4F5E
:1007E00081E090E0B7D265E080E0B3D180916D0107
:1007F00090916E014AE050E0BE016F5F7F4FADD532
:10080000BE016F5F7F4F81E090E0A4D217D12696A2
:100810000FB6F894DEBF0FBECDBFDF91CF91089524
:10082000CF93DF93CDB7DEB7CF55D1090FB6F8948C
:10083000DEBF0FBECDBF56D483E33AD366D17894E2
:10084000E5D060E080E085D16AE281E090E09CD173
:10085000F5D0ABDE80936F0181110AC090DE2FEFDF
:100860008BE792E9215080409040E1F700C0000002
:100870009CDE80936F01DADEF12C8E010F5F1F4F3B
:10088000802E912E712C11D3882309F4A4C04DE041
:1008900060E58DE191E027D380931C01E82FF0E023
:1008A000E35EFE4F10826FEF73E08DE191E0FADDC1
:1008B0006BD391C02DD48A3009F080C0F801EF0DC0
:1008C000F11D10826DE071E0882D992D27D5892BBF
:1008D00099F162E270E0882D992DDAD47C016C01E7
:1008E0002FEFC21AD20A62E270E0C601D1D45C01D5
:1008F00084E590E05AD48FEF9EE924E28150904045
:100900002040E1F700C00000E114F104A9F0A114B7
:10091000B10491F0A5014E195F09B601CE018F5ABD
:100920009F4FC3D460EC70E0CE018F5A9F4F82D4AA
:10093000892B11F4CADE08D463E171E0882D992D6A
:10094000EDD4892B09F440C062E270E0882D992D26
:100950009FD47C016C018FEFC81AD80A62E270E064
:10096000C60196D4E114F10489F1009789F1AC0134
:100970004E195F09B601CE018F5A9F4F96D460EC95
:1009800070E0CE018F5A9F4F55D4892B19F5F72C63
:10099000BFD3F801EF0DF11D8083F3948A30C1F7C6
:1009A000F801EF0DF11D108268E171E0882D992D9D
:1009B000B5D4892B81F089DEC7D30DC0F801EF0DC6
:1009C000F11D8083F39407C0F72C05C0F72C03C0FA
:1009D000F72C01C0F72CBDD381116CCFB1DE809113
:1009E0006D0190916E01019690936E0180936D015F
:1009F0004ACF29986130710511F4289A01C02898CE
:100A00008EBD0DB407FEFDCF299A089588EF91E0C1
:100A1000E8E7F1E0DF019C011D9221503040E1F751
:100A2000109277011092760187EF91E09093750113
:100A30008093740181E08093710108950F931F9357
:100A4000CF93DF93809176019091770199232CF4D5
:100A5000109277011092760109C0883F914034F0DE
:100A600087EF91E0909377018093760180917401F4
:100A70009091750199232CF41092750110927401D4
:100A800009C0883F914034F087EF91E09093750161
:100A900080937401C0917601D0917701CE0164E515
:100AA00070E093D3162F60E070E08068A2DF60E012
:100AB00070E0812F80649DDF8091740190917501B9
:100AC0008C179D078CF08E0108581E4F61E070E076
:100AD000F80181918F018DDF2196809174019091B1
:100AE00075018C179D0794F787EF91E0909377013C
:100AF0008093760110927501109274011092710129
:100B0000DF91CF911F910F9108952A9A84B18F623E
:100B100084B92A982A9A80E58CBD299A60E070E011
:100B200081E267DF60E070E088EC63DF60E070E046
:100B300086E05FDF60E070E083E15BDF60E070E053
:100B400080E257DF60E070E08CE053DF5FDF76DF4C
:100B500008958E30A8F46630A8F490E09C01220F2E
:100B6000331F820F931F880F991F24E5629F800D0A
:100B7000911D1124909373018093720180E0089578
:100B800081E0089581E008951F93CF93DF93209132
:100B900072013091730140917601509177012417D1
:100BA000350724F43093770120937601E0EEE60FC9
:100BB000E03630F0603C18F0E0EAE60F01C0EFE507
:100BC0008130910549F56091720170917301CB01FB
:100BD000AB014B5F5F4F2E2F30E0F901EE0FFF1F8F
:100BE000EE0FFF1F2E0F3F1F261B370B23533F4FC8
:100BF000F901E80FF91FE491DC01A858BE4FEE0F90
:100C0000EC9301968417950799F76B5F7F4F70936C
:100C100073016093720175C0029709F072C0C90137
:100C20008455910940917601509177018417950779
:100C300024F4909377018093760199230CF485C076
:100C40008E2F90E0FC01EE0FFF1FEE0FFF1FE80F4D
:100C5000F91FE353FF4FD901AB5DBE4FC901815D61
:100C60009E4F18E14491440F542F5470652F660F26
:100C7000560F550F550F642F6270762F770F670F41
:100C8000660F562B742F7870719F702D1124572B7F
:100C900042954F70642F6170762F770F670F742F16
:100CA0007270C72FCC0F7C0F770F762B642F647078
:100CB000C62FCC0F6C0FC62FCC0FCC0F672F6C2B11
:100CC0004870419FC02D1124462F4C2BED012197D8
:100CD00058835C93ED01CD5ADF4F4883ED01CC5A28
:100CE000DF4F488331961296A817B90709F0BACF9B
:100CF000C9010B9668EF71E068D2909373018093FD
:100D00007201809172019091730120917401309170
:100D100075012817390724F49093750180937401A5
:100D2000FC01E858FE4F1082873F21E0920731F422
:100D3000109273011092720182E008C001969093A4
:100D400073018093720180E001C081E0DF91CF9157
:100D50001F910895FF920F931F93CF93DF938C0100
:100D6000EB016881662369F0F12CC8010DDF813049
:100D700051F0F394FE01EF0DF11D60816111F5CF8B
:100D800004C080E003C081E001C080E0DF91CF912A
:100D90001F910F91FF9008950F931F93CF93DF93AF
:100DA0008C01EB01FB016491662351F0C801ECDE7C
:100DB000813041F02196FE0164916111F7CF04C0AA
:100DC00080E003C081E001C080E0DF91CF911F91FE
:100DD0000F91089590917F04891728F490917F04D2
:100DE000891720F014C010927F040895982FE92FDE
:100DF000F0E0EC5DFB4F2081E92FE81BF0E0EC5DBB
:100E0000FB4F20839F5F20917F04921780F3909186
:100E10007F04981B90937F040895CF93C82F9091DF
:100E20007F049A3560F4E0917F04F0E0EC5DFB4FC5
:100E3000808380917F048F5F80937F040DC081E069
:100E4000C9DFE0917F04F0E0EC5DFB4FC08380914F
:100E50007F048F5F80937F04CF9108951F920F923C
:100E60000FB60F9211242F933F934F935F936F937D
:100E70007F938F939F93AF93BF93EF93FF93809153
:100E8000C60080938004C9DFFF91EF91BF91AF91BD
:100E90009F918F917F916F915F914F913F912F9192
:100EA0000F900FBE0F901F90189580917F040895AA
:100EB00010927F041092C5008093C4001092C0006D
:100EC00088E98093C10086E08093C20081E080932E
:100ED0007E04089580917F04882319F08091800416
:100EE00008958FEF0895FF920F931F93CF93DF9391
:100EF000EC01F62E042F80917F04882371F18091FC
:100F00002404841791F0A62FB0E011971097F9F4FC
:100F100010C0212F30E0F901EC5DFB4F908190175C
:100F200051F02A173B07A1F406C020E030E010E0A2
:100F300002C09D0110E0A9014F5F5F4F64E274E0C1
:100F4000CE018ED11F5F812F45DF812F17C010E0AA
:100F50001F5F90917F041917E0F2BCDF8013FDCF73
:100F600080917F048F1508F4F82E4F2D50E064E235
:100F700074E0CE0175D18F2D2DDF8F2DDF91CF91B4
:100F80001F910F91FF90089510927F0408951F9272
:100F90000F920FB60F9211242F938F939F93EF937D
:100FA000FF9386B5825286BD80917603882359F1DE
:100FB0008091750381508093750380917503811131
:100FC00022C0809172039091730380FF02C0419A06
:100FD00001C0419880917203909173039695879513
:100FE000909373038093720383E0809375038091E1
:100FF000740381508093740380917403811103C042
:1010000010927603419A80917A03811161C0809198
:101010007B03882309F180917803815080937803C2
:10102000811156C010927B0310927C038091700353
:10103000823C09F44DC0E0917E03F0E0E158FC4FA2
:10104000808380917E038F5F80937E0388230CF0E2
:101050003FC010927E033CC080917C03811112C07E
:10106000309936C081E080937C0310927103109216
:10107000700394E09093780398E0909377038093C3
:10108000790326C080917803815019F0809378030A
:101090001FC083E080937803309B0BC020917903BD
:1010A0008091700390917103822B909371038093D0
:1010B000700380917903880F80937903809177037F
:1010C000815080937703811103C081E080937B037B
:1010D000FF91EF919F918F912F910F900FBE0F90E5
:1010E0001F9018951092760310927C0310927B0348
:1010F00010927A033898409A399A419A82E085BDD5
:101100008EED86BDEEE6F0E08081816080830895FB
:1011100090917E0380917D03981306C080917E0399
:1011200090917D039817D1F3E0917D03F0E0E158B1
:10113000FC4F808190917D039F5F90937D03992365
:1011400014F410927D03089510927E0310927D0393
:10115000089590917D0320917E0381E0291301C0C1
:1011600080E00895909176039111FCCF93E09093E5
:1011700075039AE090937403880F990B9260909393
:1011800073038093720381E0809376030895CF9375
:10119000DF93EC018881882329F02196E3DF899190
:1011A0008111FCCFDF91CF910895CF93DF93EC01B4
:1011B000FC018491882331F0D5DF2196FE018491D2
:1011C0008111FACFDF91CF91089597FB072E16F486
:1011D000009406D077FD08D00BD007FC05D03EF474
:1011E000909581959F4F0895709561957F4F0895D3
:1011F000AA1BBB1B51E107C0AA1FBB1FA617B7073D
:1012000010F0A61BB70B881F991F5A95A9F7809558
:101210009095BC01CD010895E62FF72FA82FB92F87
:101220000D900020E9F71197C89531960D92002096
:10123000D9F70895E62FF72FA82FB92F8D91C895CC
:10124000319680190110D1F3990B0895E62FF72FED
:10125000A82FB92FC89531960D920020D9F708957F
:10126000E62FF72FA82FB92F02C001900D92415001
:101270005040D8F70895E62FF72FA82FB92F0D90DB
:101280000020E9F7119701900D920020E1F70895F1
:10129000E82FF92F8191861721F08823D9F7992714
:1012A000089531978E2F9F2F0895A82FB92FE62FDD
:1012B000F72F4150504060F051F001900D92002006
:1012C000C1F7E61BF70B31978E2F9F2F08951C92C5
:1012D00001900020E9F7F5CFE62FF72FA82FB92FBF
:1012E0000D900020E9F711974150504028F00190EF
:1012F00000200D92C9F708951C920895E62FF72F4C
:10130000A82FB92F4150504030F08D910190801995
:1013100019F40020B9F7881B990B0895E62FF72FD1
:1013200051915523C9F06E2F7F2FA82FB92F4D91C2
:1013300045174111E1F769F48A2F9B2F0190002096
:1013400051F04D9140154111C9F3E62FF72F41118E
:10135000ECCF81E090E001970895E62FF72F2E2F34
:101360003F2FE8944230C4F04532B4F44A3029F4B7
:1013700097FB1EF4909581959F4F642F772738DF58
:10138000805D8A330CF0895D8193862F972F0097BB
:10139000A1F716F45DE251931082822F932F00C0C3
:1013A000A82FB92FE82FF92F672F71917723E1F735
:1013B000329704C07C916D9370836291AE17BF0722
:0813C000C8F30895F894FFCF73
:1013C8004750524D430041540D004F4B002B434CA6
:0C13D8004950002B434D5400506F73002F
:00000001FF
