:1000000012C07EC02BC02AC029C028C027C026C06D
:1000100025C024C023C0FCC021C020C01FC01EC0FA
:100020001DC01CC01BC011241FBECFE5D4E0DEBF25
:10003000CDBF10E0A0E6B0E0ECE0F3E002C0059038
:100040000D92A238B107D9F710E0A2E8B0E001C0E4
:100050001D92A63CB107E1F702D056C1D1CFCF9394
:10006000DF93CDB7DEB72A970FB6F894DEBF0FBE89
:10007000CDBF83E3F8D01BD02FE788E391E0215078
:1000800080409040E1F700C0000078942CD080E6DA
:1000900090E0F5D0E5D08630E9F766E0CE01019634
:1000A000FBD00AD166E0CE0101965ED0F3CF87B3D4
:1000B000836087BBC098C19A8AE085BF80E48BBF0C
:1000C000FEC0CF93DF931F92CDB7DEB7C1988F717B
:1000D000806269830BD16981862F08D1C19A0F9004
:1000E000DF91CF91089562E085E0EBDF66E081E18A
:1000F000E8DF1092C5006BE480E0E3DFC09A08956A
:100100001F920F920FB60F9211242F933F934F938C
:100110005F936F937F938F939F93AF93BF93EF936F
:10012000FF938091C500882371F0C1988FEFDED0D6
:10013000C19AC0986BE480E0C4DFC09A1092C500F9
:1001400060E387E0BEDFFF91EF91BF91AF919F9198
:100150008F917F916F915F914F913F912F910F9070
:100160000FBE0F901F9018951F93CF93DF93EC0154
:10017000162F8091C5008111FCCFC09881E080933B
:10018000C5006AE480E09DDFC19881EEAFD0C19ADE
:10019000C19880EAABD0612FCE019CD0C19AC09AA1
:1001A000DF91CF911F9108959091C3008917C0F4FA
:1001B000982FE92FE81B2091C300921758F4A92F1C
:1001C000B0E0AE57BF4F2C91F0E0EE57FF4F2083C9
:1001D0009F5FEFCF9091C300981B9093C300089549
:1001E0001092C3000895CF93C82F8091C30080342C
:1001F00010F081E0D9DFE091C300F0E0EE57FF4F4F
:10020000C0838091C3008F5F8093C300CF91089516
:100210001F920F920FB60F9211242F933F934F937B
:100220005F936F937F938F939F93AF93BF93EF935E
:10023000FF93939A8CB18093C400D5DF9398FF917C
:10024000EF91BF91AF919F918F917F916F915F914E
:100250004F913F912F910F900FBE0F901F901895C7
:100260008091C30008951092C30089B91BB888E932
:100270008AB986E880BD81E08093C200089520910C
:10028000C200222341F0FC018191882321F05D9B73
:10029000FECF8CB9F9CF0895CF93C62F2091C3001C
:1002A0002C17E0F34C2F50E062E870E024D08C2F44
:1002B0007BDF8C2FCF9108951092C300089587B3F0
:1002C000837C87BB87B38C6287BB81E58DB981E076
:1002D0008EB90895282FFC018E2F821B861728F4D3
:1002E00081918FB9779BFECFF7CF08958FB9779B18
:1002F000FECF8FB10895FB01DC0102C001900D9289
:0C03000041505040D8F70895F894FFCF0A
:10030C0068656C6C6F206D61782177616974696EBA
:10031C006720666F7220636F6D6D616E64732E0A59
:02032C000000CF
:00000001FF
