:1000000025C03FC03EC03DC03CC03BC03AC039C027
:1000100038C037C036C035C034C033C032C031C03C
:1000200030C02FC0FAC12DC02CC02BC02AC029C09F
:1000300028C027C045464765666700202B2D2E3017
:1000400031323334353637383968000011241FBE59
:10005000CFEFD4E0DEBFCDBF11E0A0E0B1E0ECE037
:10006000FEE002C005900D92A436B107D9F711E069
:10007000A4E6B1E001C01D92A13BB107E1F7F2D0C7
:10008000C3C6BECFF89485B1E0916B01F0E0E050BB
:10009000FF4F807F9081892B85B980916B018F5FA5
:1000A00080936B01809169018F5F809369018091DA
:1000B0006B01883011F410926B018FED9EE2019775
:1000C000F1F700C0000015B878940895F89485B150
:1000D000E0916B01F0E0E050FF4F807F9081892B31
:1000E00085B98091690181508093690180916B018C
:1000F000811104C087E080936B0105C080916B0182
:10010000815080936B018FED9EE20197F1F700C063
:10011000000015B878940895F89488B1E0916A01C8
:10012000F0E0E050FF4F807F9081892B88B980916B
:100130006A018F5F80936A01809168018F5F80936D
:10014000680180916A01883011F410926A018FED84
:100150009EE20197F1F700C0000018B87894089566
:10016000F89488B1E0916A01F0E0E050FF4F807FA1
:100170009081892B88B980916801815080936801B2
:1001800080916A01811104C087E080936A0105C0F3
:1001900080916A01815080936A018FED9EE2019700
:1001A000F1F700C0000018B8789408955F9A8FECBA
:1001B00097E00197F1F700C000005F988091670118
:1001C0008F5F8093670108955E9A8FEC97E00197A7
:1001D000F1F700C000005E98809167018150809324
:1001E0006701089599B198709093660181E091112B
:1001F00080E0089501C06ADFF5DF8823E1F3109203
:100200006901089599B194709093650181E091110D
:1002100080E0089501C0A4DFF5DF8823E1F31092A8
:100220006801089599B190719093640181E09111F2
:1002300080E0089507C0C8DF8FE99FE00197F1F7DC
:1002400000C00000EFDF8823B1F31092670108952A
:100250008FE087B984B980EC8AB915B818B88CE1F9
:100260008BB90895F5DF83E3FFD0789488E091E0BF
:100270000DD1E12CF12CC0E0D0E000E010E00F2E19
:10028000FAE18F2EF1E09F2EF02D0F2EF4EEAF2E1F
:10029000F0E0BF2EF02D0F2EFAE06F2EF1E07F2E52
:1002A000F02D0F2EF0EB4F2EF0E05F2EF02D0F2EE5
:1002B000FCE82F2EF0E03F2EF02D8DE01BD109D170
:1002C0008A35D9F028F4883549F0893591F019C07C
:1002D000893779F08A3789F0883799F40F2EFAEF49
:1002E000EF2EF0E0FF2EF02DC6E6D0E002E410E0A5
:1002F00008C07301E201810104C07401E50106ED4B
:1003000010E0E7D08D3289F08033E1F18B3209F0D3
:100310003EC0F9D0D62E662321F0F8010995DA9473
:10032000E1F789E291E0B2D032C0EDD0D62E66235B
:1003300029F1F0E0C636DF0739F454DF8823D1F025
:100340008DE291E0A3D01AC080E0C03BD80739F419
:1003500059DF882379F08FE391E098D00FC0E0E077
:10036000C43EDE0739F45EDF882321F081E591E0A9
:100370008DD004C0FE010995DA94D9F689E291E0A6
:1003800085D005C0F701099589E291E07FD0AFD013
:1003900094CF9091AD01891728F49091AD01891700
:1003A00020F014C01092AD010895982FE92FF0E0CD
:1003B000E459FE4F2081E92FE81BF0E0E459FE4F9D
:1003C00020839F5F2091AD01921780F39091AD0142
:1003D000981B9093AD010895CF939091AD01903407
:1003E00060F4E091AD01F0E0E459FE4F808380912C
:1003F000AD018F5F8093AD010EC0C82F81E0C9DFD2
:10040000E091AD01F0E0E459FE4FC0838091AD0171
:100410008F5F8093AD01CF9108951F920F920FB619
:100420000F9211242F933F934F935F936F937F937A
:100430008F939F93AF93BF93EF93FF938091C600E9
:100440008093AE01C9DFFF91EF91BF91AF919F9172
:100450008F917F916F915F914F913F912F910F906D
:100460000FBE0F901F9018951092AD011092C5000D
:100470008093C4001092C00088E98093C10086E098
:100480008093C20081E08093AC010895CF93DF9305
:100490002091AC01222389F0FC012081222369F004
:1004A000DC011196E0ECF0E0C6ECD0E0908195FF25
:1004B000FDCF28832D912111F9CFDF91CF910895A0
:1004C0008091AD01882319F08091AE0108958FEFDE
:1004D0000895CF938091AD01882331F0C0916C01D4
:1004E00081E057DF8C2F01C08FEFCF9108951092DC
:1004F000AD010895CF93C82FE3DF8C13FDCF80911A
:10050000AD01CF910895CF92DF92EF92FF920F93BA
:100510001F93CF93DF9300D0CDB7DEB71A82198235
:100520008091AD018823D1F180916C018D3209F465
:100530003FC0992787FD9095C0970A97E0F1EDE6B7
:10054000F1E00BC021912D32C1F1332727FD309509
:10055000205331092A30310580F18F012091AD01FE
:1005600030E0CF018C569140821793075CF360E036
:1005700070E080E090E032C0009741F48091AD01DE
:1005800008DF6C2D7D2D8E2D9F2D28C08C5691401F
:1005900000DF6C2D7D2D8E2D9F2D20C060E070E042
:1005A00080E090E01BC060E070E080E090E016C06A
:1005B0000CE611E002C00CE611E04AE050E0BE019A
:1005C0006F5F7F4FC80187D1C62ED72EE82EF92E38
:1005D00089819A818017910779F6E5CF0F900F9066
:1005E000DF91CF911F910F91FF90EF90DF90CF900F
:1005F00008956F927F929F92AF92BF92CF92DF92B7
:10060000EF92FF920F931F93CF93DF93CDB7DEB797
:100610002C970FB6F894DEBF0FBECDBF082F192F51
:10062000E62EF72E642E752EE82FF92F17821682EC
:10063000838181FF3AC18C2F9D2F0196A82EB92E60
:10064000E02FF12FD380EE2DFF2DD3FCC895D3FEE4
:1006500000803196202DEE2EFF2E222309F420C19A
:10066000253261F4D3FCC895D3FE00803196202D4D
:10067000EE2EFF2E253211F0912C20C0602F712F0D
:10068000822F90E092D2C62CD72C6C2C7D2CD8CF08
:10069000222309F405C1622F70E08BE390E02C87E0
:1006A00075D22C85892B69F0EE2DFF2DD3FCC895D2
:1006B000D3FE00803196202DEE2EFF2E97FEE8CF40
:1006C0000CC0233221F4F92DF0619F2EEDCF2C3692
:1006D00039F4292D2068922EE7CF222309F4E0C0B7
:1006E000622F70E084E390E02C8750D22C85892B18
:1006F00051F0C62CD72CF4E0CF0ED11C602F712FF7
:100700008FE390E015C0233641F0233799F023356D
:1007100061F5F92DF1609F2E0DC0C62CD72C22E07B
:10072000C20ED11C602F712FE62DF72D8081918193
:100730003CD2ABCFC62CD72C22E0C20ED11CE62D6A
:10074000F72D60807180E62DF72D90FCC89590FE06
:1007500000803196802D6E2E7F2E882309F495CF50
:10076000602F712F90E021D2EECF243611F0293680
:1007700051F5C62CD72C97FE0AC0F4E0CF0ED11C41
:10078000E62DF72D60817181828193810BC0F2E0AB
:10079000CF0ED11CE62DF72D60817181882777FD62
:1007A0008095982FF92DFF7E9F2E97FF09C0909579
:1007B0008095709561957F4F8F4F9F4FF0649F2E6E
:1007C0002AE030E03BC02037A1F040F42835D1F0DA
:1007D0002F3609F065C028E030E019C0253719F040
:1007E000283751F05DC0292D2F7E922E2AE030E06F
:1007F0000EC0892D8061982E992D9462992E20E14A
:1008000030E005C0E92DE4609E2E20E132E0C62CE8
:10081000D72C97FE0AC0F4E0CF0ED11CE62DF72DA1
:10082000608171818281938109C0F2E0CF0ED11C79
:10083000E62DF72D6081718180E090E04A2D5B2DDF
:10084000E8D1782E7A1896FE05C0602F712F8DE2C0
:1008500090E0ABD194FE17C0EC2FFD2FE70DF11DFA
:100860008081803381F0602F712F80E390E09DD1F3
:1008700092FE09C0292D2072822F90E0602F712FE7
:10088000885A9F4F92D17A94EA2DFB2DE70DF11DE6
:100890008081602F712F90E088D17110F4CFF5CE58
:1008A000E02FF12F8681978102C08FEF9FEF2C966A
:1008B0000FB6F894DEBF0FBECDBFDF91CF911F9171
:1008C0000F91FF90EF90DF90CF90BF90AF909F90EF
:1008D0007F906F900895A3E0B0E0E0E7F4E049C2B4
:1008E000062F172F5B834A836115710521F0E62FD0
:1008F000F72F808391832A813B812115310531F0C7
:10090000225031092332310508F02EC1E82EF92E8C
:10091000CE2CDF2C3FEFC31AD30AAC2CBD2CEE2D0E
:10092000FF2D8080882D90E029D1892B19F0EC2CA7
:10093000FD2CEECFFDE28F120BC0AE2CBF2C22E0BF
:10094000A20EB11CEE2DFF2D8180992493940CC032
:10095000FBE28F1208C0AE2CBF2C22E0A20EB11C0D
:10096000EE2DFF2D8180912C8A819B818F7E892B9A
:10097000A1F4F0E38F1227C0EA2DFB2D80818F7D3B
:10098000883581F58180F2E0AF0EB11C292D2260FF
:10099000922E40E150E05B834A838A819B818830BC
:1009A000910521F144F4029759F5C12CD12CE12C89
:1009B00030E4F32E3CC0EA81FB81EA30F10539F0E6
:1009C000709781F11DC02A813B81232B31F72AE0EA
:1009D00030E03B832A832CECC22EDC2CEC2C2CE068
:1009E000F22E25C04A815B81452BB9F648E050E0E4
:1009F0005B834A83C12CD12CE12C90E1F92E17C0E6
:100A000060E070E080E090E8EA81FB812E2F3F2FCC
:100A1000442737FD4095542F63D1C22ED32EE42EA8
:100A2000F52E05C0C12CD12CE12C88E0F82E20E059
:100A300060E070E080E090E04A815B81442E552EBA
:100A4000662457FC6094762C2A2C3B2C50ED580DD4
:100A500059835A3078F03FEB380D3A3120F4E9EC05
:100A6000E80DE98307C03FE9380D3A31B0F5F9EAFE
:100A7000F80DF9833981432F50E0EA81FB814E174D
:100A80005F075CF527FD22C0C616D706E806F90603
:100A9000D0F0572D462D352D242D44D1842F952F60
:100AA000422F532F682F792F972F862F752F642F62
:100AB000F9816F0F711D811D911D613071058105D7
:100AC00020E8920710F02FEF01C021E03FEFA31ABA
:100AD000B30AE22DF32D8080B7CF392D3170011587
:100AE0001105A1F0222341F0F1E0AF1AB108E02F87
:100AF000F12FB182A0820AC091FE1CC0F2E0AF1AB1
:100B0000B108E02FF12FB182A08214C027FF12C0DC
:100B1000332329F060E070E080E090E804C06FEFDC
:100B20007FEF8FEF9FE722E230E03093B001209318
:100B3000AF0116C0332341F0909580957095619573
:100B40007F4F8F4F9F4F0CC097FF0AC082E290E00B
:100B50009093B0018093AF016FEF7FEF8FEF9FE72E
:100B6000362F272F482F04C030E020E040E090E0EF
:100B7000632F722F842F2396E2E117C19111ADC02C
:100B8000803219F089508550D0F70895E82FF92F59
:100B9000C8953196061629F00020D1F7802D912DA9
:100BA000089531978E2F9F2F08950F931F93CF9302
:100BB000DF93182F092FC62FD72F8B8181FD03C0FC
:100BC0008FEF9FEF21C082FF11C04E815F812C818A
:100BD0003D814217530784F4E881F9812E2F3F2F7E
:100BE0002F5F3F4F39832883108306C0E885F9853E
:100BF000812F0995892B21F72E813F812F5F3F4F50
:100C00003F832E83812F902FDF91CF911F910F91E2
:100C10000895E42FF52FAA27283069F1203199F1A2
:100C2000E8946F936E7F6E5F7F4F8F4F9F4FAF4FF4
:100C3000B1E041D0B4E03FD0670F781F891F9A1F01
:100C4000A11D680F791F8A1F911DA11D6A0F711DBB
:100C5000811D911DA11D23D009F468943F91062E9A
:100C6000000C3019000C000C3019305D3193CEF6B9
:100C70008E2F9F2F0895462F4770405D4193B3E01C
:100C80000FD0C9F7F5CF462F4F70405D4A3318F0AB
:100C9000495D31FD4052419302D0A9F7E9CFB4E05C
:100CA000A6959795879577956795BA95C9F7009713
:100CB000610571050895262F372F482F592F0A2EC9
:100CC00006945795479537952795BA95C9F7620FBA
:100CD000731F841F951FA01D0895992788270895C5
:100CE000A1E21A2EAA1BBB1BFD010DC0AA1FBB1F30
:100CF000EE1FFF1FA217B307E407F50720F0A21BA2
:100D0000B30BE40BF50B661F771F881F991F1A940E
:100D100069F760957095809590959B01AC01BD0138
:100D2000CF010895E894DF93CF93FC01DB0158D005
:100D30007F936F93E9019A01AC01BF93AF933F9307
:100D40002F93DF014DD026F46C1B7D0B820B930B90
:100D50009E01EB01FC0150D0AF91BF912F913F91CB
:100D60004BD0BE01CF01F9012F913F91CF91DF917F
:100D700008952F923F924F925F926F927F928F923F
:100D80009F92AF92BF92CF92DF92EF92FF920F931A
:100D90001F93CF93DF93CDB7DEB7CA1BDB0B0FB624
:100DA000F894DEBF0FBECDBF09942A8839884888E1
:100DB0005F846E847D848C849B84AA84B984C88477
:100DC000DF80EE80FD800C811B81AA81B981CE0F6E
:100DD000D11D0FB6F894DEBF0FBECDBFED01089553
:100DE000A29FB001B39FC001A39F01D0B29F700D1D
:100DF000811D1124911D0895F3DF460F571FC81F51
:0C0E0000D91F08F431960895F894FFCF34
:100E0C0001050406020A080968656C6C6F206D61A7
:100E1C00782177616974696E6720666F7220636FE1
:100E2C006D6D616E64732E0A006F6B0A00456E6403
:100E3C00206F66205820726561636865640A0045FE
:100E4C006E64206F66205920726561636865640A60
:100E5C0000456E64206F66205A2072656163686578
:040E6C00640A000014
:00000001FF
