:100000000C94C3010C94E0010C94E0010C94E00109
:100010000C94E0010C94E0010C94E0010C94E001DC
:100020000C94E0010C94E0010C94E0010C94780431
:100030000C94E0010C94E0010C94E0010C94E001BC
:100040000C94E0010C94E0010C94E0010C94E001AC
:100050000C94E0014F6B00496E697469616C697AB8
:100060006174696F6E00000000000000005F000016
:100070000007000700147F147F14242A7F2A124CE3
:100080002C10686436495522500005030000001CFE
:100090002241000041221C0014083E081408083EBA
:1000A00008080000503000101010101000606000B0
:1000B0000020100804023E5149453E00427F4000A6
:1000C00042615149462141454B311814127F102796
:1000D000454545393C4A49493001710905033649CE
:1000E000494936064949291E003636000000563671
:1000F00000000814224100141414141400412214A6
:10010000080201510906324979413E7E1111117EE2
:100110007F494949363E414141227F4141221C7F6E
:10012000494949417F090909013E4149497A7F0806
:1001300008087F00417F41002040413F017F0814B3
:1001400022417F404040407F020C027F7F04081024
:100150007F3E4141413E7F090909063E4151215EF2
:100160007F09192946464949493101017F01013F6B
:100170004040403F1F2040201F3F4038403F631415
:1001800008146307087008076151494543007F411F
:10019000410002040810200041417F0004020102D6
:1001A0000440404040400001020400205454547870
:1001B0007F484444383844444420384444487F38D5
:1001C00054545418087E0901020C5252523E7F08C2
:1001D00004047800447D40002040443D007F102806
:1001E000440000417F40007C041804787C0804042B
:1001F0007838444444387C14141408081414187CC7
:100200007C080404084854545420043F4440203CD3
:100210004040207C1C2040201C3C4030403C442876
:100220001028440C5050503C4464544C4400083650
:10023000410000007F00000041360800080408105B
:1002400008FFFFFFFFFF7C1211127C7F49494931F3
:100250007F494949367F01010101603F213F607FAD
:100260004949494177087F087722414949367F103B
:1002700008047F7E1009047E7F08142241403E015D
:10028000017F7F020C027F7F0808087F3E414141C9
:100290003E7F0101017F7F090909063E414141225C
:1002A00001017F0101074848483F0E117F110E638D
:1002B000140814633F20203F60070808087F7F4030
:1002C0007E407F3F203F207F017F4848307F48307D
:1002D000007F007F484830224149493E7F083E4127
:1002E0003E462919097F20545454783C4A4A4A31E1
:1002F0007C545428007C04040C00603C243C60388E
:10030000545454186C107C106C00445454287C20B5
:1003100010087C7C2112097C7C10284400403804A1
:10032000047C7C0810087C7C1010107C3844444409
:10033000387C0404047C7C141414083844444400BD
:1003400004047C04040C5050503C08147C140844F1
:10035000281028443C20203C600C1010107C7C406D
:100360007C407C3C203C207C047C5050207C5020F5
:10037000007C007C50502028445454387C10384471
:1003800038485434147C11241FBECFE5D4E0DEBFBE
:10039000CDBF10E0A0E6B0E0ECE0FAE002C00590CE
:1003A0000D92A436B107D9F712E0A4E6B0E001C07F
:1003B0001D92A63AB107E1F70E94E2010C940405F0
:1003C0000C940000CF93DF93CDB7DEB7EC970FB658
:1003D000F894DEBF0FBECDBF83E30E94A2040E944B
:1003E000C30278940E94400260E080E00E94EF0225
:1003F00067E570E081E090E00E94140461E080E035
:100400000E94EF0264E570E081E090E00E94140435
:100410000E94580260E080E00E94EF0280E690E0D7
:100420000E94AF042FEF80E792E02150804090407F
:10043000E1F700C000000E949F04182F682FCE0132
:1004400001960E94BF04E1E0F0E0EC0FFD1FE10F18
:10045000F11D1082BE016F5F7F4F81E090E00E942E
:10046000F1030E945802DACFC1986130710511F48E
:10047000C09A01C0C0988FB9779BFECFC19A0895EA
:1004800088EF91E0EBE6F0E0DF019C011D92215046
:100490003040E1F710926A001092690087EF91E016
:1004A000909368008093670081E0809364000895D2
:1004B0000F931F93CF93DF938091690090916A000F
:1004C00099232CF410926A001092690009C0883FA9
:1004D000914034F087EF91E090936A008093690037
:1004E000809167009091680099232CF41092680025
:1004F0001092670009C0883F914034F087EF91E087
:100500009093680080936700C0916900D0916A0061
:10051000CE0164E570E00E94D104162F60E070E027
:1005200080680E94340260E070E0812F80640E9445
:10053000340280916700909168008C179D0794F0B9
:100540008E0105591F4F61E070E0F80181918F0124
:100550000E943402219680916700909168008C1768
:100560009D078CF787EF91E090936A008093690074
:10057000109268001092670010926400DF91CF9192
:100580001F910F910895C29A87B3876A87BBC2985B
:10059000C29A80E58DB9C19A60E070E081E20E9464
:1005A000340260E070E088EC0E94340260E070E0A9
:1005B00086E00E94340260E070E083E10E94340231
:1005C00060E070E080E20E94340260E070E08CE065
:1005D0000E9434020E9440020E94580208958E3008
:1005E000A8F46630A8F490E09C01220F331F820F1C
:1005F000931F880F991F24E5629F800D911D112480
:10060000909366008093650080E0089581E00895EE
:1006100081E008951F93CF93DF932091650030917F
:1006200066004091690050916A002417350724F450
:1006300030936A0020936900E0EEE60FE03630F078
:10064000603C18F0E0EAE60F01C0EFE5813091056B
:1006500049F56091650070916600CB01AB014B5F7D
:100660005F4F2E2F30E0F901EE0FFF1FEE0FFF1F3F
:100670002E0F3F1F261B370B2A593F4FF901E80F5A
:10068000F91FE491DC01A559BF4FEE0FEC930196E1
:100690008417950799F76B5F7F4F7093660060939F
:1006A000650076C0029709F073C0C90184559109AD
:1006B0004091690050916A008417950724F4909343
:1006C0006A008093690099230CF486C08E2F90E015
:1006D000FC01EE0FFF1FEE0FFF1FE80FF91FEA5995
:1006E000FF4FD901A85EBF4FC9018E5D9F4F18E132
:1006F0004491440F542F5470652F660F560F550FB9
:10070000550F642F6270762F770F670F660F562B89
:10071000742F7870719F702D1124572B42954F7054
:10072000642F6170762F770F670F742F7270C72F49
:10073000CC0F7C0F770F762B642F6470C62FCC0FF5
:100740006C0FC62FCC0FCC0F672F6C2B4870419FBE
:10075000C02D1124462F4C2BED01219758835C931B
:10076000ED01CD5ADF4F4883ED01CC5ADF4F48836E
:1007700031961296A817B90709F0BACFC9010B969E
:1007800068EF71E00E94D104909366008093650049
:10079000809165009091660020916700309168001B
:1007A0002817390724F49093680080936700FC01B0
:1007B000E559FF4F1082873F21E0920731F41092F4
:1007C00066001092650082E008C001969093660072
:1007D0008093650080E001C081E0DF91CF911F919F
:1007E0000895FF920F931F93CF93DF938C01EB013A
:1007F0006881662371F0F12CC8010E940A038130E0
:1008000051F0F394FE01EF0DF11D60816111F4CF01
:1008100004C080E003C081E001C080E0DF91CF919F
:100820001F910F91FF9008950F931F93CF93DF9324
:100830008C01EB01FB016491662359F0C8010E9411
:100840000A03813041F02196FE0164916111F6CFD7
:1008500004C080E003C081E001C080E0DF91CF915F
:100860001F910F9108959091A402891728F49091F7
:10087000A402891720F014C01092A4020895982FA2
:10088000E92FF0E0ED59FD4F2081E92FE81BF0E062
:10089000ED59FD4F20839F5F2091A402921780F3B2
:1008A0009091A402981B9093A4020895CF93C82F0F
:1008B0009091A402903460F4E091A402F0E0ED592C
:1008C000FD4F80838091A4028F5F8093A4020EC0AD
:1008D00081E00E943304E091A402F0E0ED59FD4F65
:1008E000C0838091A4028F5F8093A402CF9108956A
:1008F0001F920F920FB60F9211242F933F934F9395
:100900005F936F937F938F939F93AF93BF93EF9377
:10091000FF938CB18093A5020E945604FF91EF9142
:10092000BF91AF919F918F917F916F915F914F9107
:100930003F912F910F900FBE0F901F9018958091AF
:10094000A40208951092A40210BC89B91BB888E9CA
:100950008AB986E880BD81E08093A3020895209142
:10096000A302222359F0FC012081222339F0319681
:100970005D9BFECF2CB921912111FACF0895CF9321
:10098000C62F2091A4022C17E0F34C2F50E063E611
:1009900072E00E94F9048C2F0E9433048C2FCF91B7
:1009A000089597FB072E16F4009407D077FD09D021
:1009B0000E94E50407FC05D03EF4909581959F4F79
:1009C0000895709561957F4F0895AA1BBB1B51E157
:1009D00007C0AA1FBB1FA617B70710F0A61BB70BAF
:1009E000881F991F5A95A9F780959095BC01CD0154
:1009F0000895E62FF72FA82FB92F02C001900D926E
:0C0A000041505040D8F70895F894FFCF03
:040A0C0041540D0044
:00000001FF
