:100000000C94C3010C94E0010C94E0010C94E00109
:100010000C94E0010C94E0010C94E0010C94E001DC
:100020000C94E0010C94E0010C94E0010C94E001CC
:100030000C94E0010C94E0010C94E0010C94E001BC
:100040000C94E0010C94E0010C94E0010C94E001AC
:100050000C94E001496E697469616C697A61746934
:100060006F6E004F6B00000000000000005F00009A
:100070000007000700147F147F14242A7F2A124CE3
:100080002C10686436495522500005030000001CFE
:100090002241000041221C0014083E081408083EBA
:1000A00008080000503000101010101000606000B0
:1000B0000020100804023E5149453E00427F4000A6
:1000C00042615149462141454B311814127F102796
:1000D000454545393C4A49493001710905033649CE
:1000E000494936064949291E003636000000563671
:1000F00000000814224100141414141400412214A6
:10010000080201510906324979413E7E1111117EE2
:100110007F494949363E414141227F4141221C7F6E
:10012000494949417F090909013E4149497A7F0806
:1001300008087F00417F41002040413F017F0814B3
:1001400022417F404040407F020C027F7F04081024
:100150007F3E4141413E7F090909063E4151215EF2
:100160007F09192946464949493101017F01013F6B
:100170004040403F1F2040201F3F4038403F631415
:1001800008146307087008076151494543007F411F
:10019000410002040810200041417F0004020102D6
:1001A0000440404040400001020400205454547870
:1001B0007F484444383844444420384444487F38D5
:1001C00054545418087E0901020C5252523E7F08C2
:1001D00004047800447D40002040443D007F102806
:1001E000440000417F40007C041804787C0804042B
:1001F0007838444444387C14141408081414187CC7
:100200007C080404084854545420043F4440203CD3
:100210004040207C1C2040201C3C4030403C442876
:100220001028440C5050503C4464544C4400083650
:10023000410000007F00000041360800080408105B
:1002400008FFFFFFFFFF7C1211127C7F49494931F3
:100250007F494949367F01010101603F213F607FAD
:100260004949494177087F087722414949367F103B
:1002700008047F7E1009047E7F08142241403E015D
:10028000017F7F020C027F7F0808087F3E414141C9
:100290003E7F0101017F7F090909063E414141225C
:1002A00001017F0101074848483F0E117F110E638D
:1002B000140814633F20203F60070808087F7F4030
:1002C0007E407F3F203F207F017F4848307F48307D
:1002D000007F007F484830224149493E7F083E4127
:1002E0003E462919097F20545454783C4A4A4A31E1
:1002F0007C545428007C04040C00603C243C60388E
:10030000545454186C107C106C00445454287C20B5
:1003100010087C7C2112097C7C10284400403804A1
:10032000047C7C0810087C7C1010107C3844444409
:10033000387C0404047C7C141414083844444400BD
:1003400004047C04040C5050503C08147C140844F1
:10035000281028443C20203C600C1010107C7C406D
:100360007C407C3C203C207C047C5050207C5020F5
:10037000007C007C50502028445454387C10384471
:1003800038485434147C11241FBECFE5D4E0DEBFBE
:10039000CDBF10E0A0E6B0E0EEE2F8E002C00590CC
:1003A0000D92A036B107D9F712E0A0E6B0E001C087
:1003B0001D92AF35B107E1F70E94E2010C941504DC
:1003C0000C94000088E089B982E08BB988E18AB991
:1003D00086E880BD0E94AF020E94110260E080E0CA
:1003E0000E94DA0264E570E081E090E00E94CC03B4
:1003F00061E080E00E94DA0263E670E081E090E074
:100400000E94CC030E942902FFCFC498613071057D
:1004100031F0C3988FB9779BFECFC49A0895C39AE1
:10042000F9CF88EF91E0E0E6F0E0DF019C011D925A
:1004300021503040E1F7109259021092580287EF94
:1004400091E090935B0280935A0281E080935C027A
:100450000895EF92FF920F931F93CF93DF93C09174
:100460005802D0915902D7FD71C0C83F81E0D8072A
:100470000CF048C0CE0164E570E00E94ED03806896
:10048000162F1064E0905A02F0905B02F7FC4AC00D
:1004900098EFE91691E0F9060CF44AC027EF31E035
:1004A00030935B0220935A0260E070E00E940502E4
:1004B00060E070E0812F0E94050287EFE82EFF24A4
:1004C000F3948E01005A1F4F61E070E0F8018191B2
:1004D0008F010E9405022196EC16FD06ACF787EF0E
:1004E00091E0909359028093580210925B0210920F
:1004F0005A0210925C02DF91CF911F910F91FF90F1
:10050000EF90089587EF91E09093590280935802FD
:1005100015E483EDC7EFD1E0E0905A02F0905B0262
:10052000F7FEB6CF10925B0210925A02E12CF12C2A
:1005300060E070E00E94050260E070E0812F0E94A0
:100540000502EC16FD060CF0BCCFC9CF1092590283
:100550001092580210E480E8C0E0D0E093CFC29A35
:1005600087B38C6B87BBC298C29A80E58DB9C49A59
:1005700060E070E081E20E94050260E070E088ECDB
:100580000E94050260E070E086E00E94050260E0E3
:1005900070E083E10E94050260E070E080E20E946A
:1005A000050260E070E08CE00E9405020E941102EA
:1005B0000C9429028E3088F4663078F494E5699FB3
:1005C000B001112496E0899F600D711D1124709374
:1005D0005E0260935D0280E0089581E00895CF930C
:1005E000DF9320915D0230915E024091580250915C
:1005F00059022417350724F43093590220935802E6
:10060000762F7052703618F0603CA0F17054813033
:100610009105A1F1029709F44EC080915A02909180
:100620005B028217930794F0F901E05AFF4F1082A2
:10063000273F81E03807B1F02F5F3F4F30935E02D4
:1006400020935D0280E0DF91CF91089530935B02AB
:1006500020935A02F901E05AFF4F1082273F81E0B0
:10066000380751F710925E0210925D0282E0DF912E
:10067000CF9108957FE58130910561F6672F70E095
:10068000D901A05ABF4F80E090E0AB01440F551F45
:10069000440F551F460F571FFA01E80FF91FEA597B
:1006A000FF4FE491EE0FED93019685309105A1F790
:1006B0002B5F3F4FB2CFC901845591094091580239
:1006C000509159028417950724F49093590280930E
:1006D000580297FD5FC0672F70E0D901A35FBF4F3D
:1006E00080E090E0AB01440F551F440F551F460FAB
:1006F000571FD8E1FA01E80FF91FEA59FF4FE491BB
:10070000EE0F6E2F6470762F770F760F770F770FBF
:10071000FE2FF2706F2F660F6F0F660F762B6E2F06
:1007200068706D9F602D1124762BE295EF70FE2F7F
:10073000F2706F2F660F6F0F660FCE2FC170FC2FF8
:10074000FF0FFC0F6F2BCE2FC470FC2FFF0FFC0F81
:10075000FF0FFF0F6F2BE870ED9FE02D11246E2B24
:10076000FD01319770837C93FD01ED5AFF4F60834B
:10077000FD01EC5AFF4F608301961296853091057A
:1007800009F0B8CFC9010B9668EF71E00E94ED0344
:100790009C0143CF81E057CF0F931F93CF93DF93FB
:1007A0008C01EB01FB016491611106C010C0219620
:1007B000FE016491662359F0C8010E94EF02813066
:1007C000B1F781E0DF91CF911F910F91089580E003
:1007D000DF91CF911F910F91089597FB072E16F48B
:1007E000009407D077FD09D00E94010407FC05D0D2
:1007F0003EF4909581959F4F0895709561957F4F38
:100800000895AA1BBB1B51E107C0AA1FBB1FA61757
:10081000B70710F0A61BB70B881F991F5A95A9F7A9
:0E08200080959095BC01CD010895F894FFCF0E
:00000001FF
