:10000000B2C1CCC1CBC1CAC1C9C1C8C1C7C1C6C1B7
:10001000C5C1C4C1C3C1C2C1C1C1C0C1BFC1BEC1CC
:10002000BDC1BCC13FC4BAC1B9C1B8C1B7C1B6C175
:10003000B5C1B4C14F6B00496E697469616C697A6E
:100040006174696F6E00000000000000005F000036
:100050000007000700147F147F14242A7F2A124C03
:100060002C10686436495522500005030000001C1E
:100070002241000041221C0014083E081408083EDA
:1000800008080000503000101010101000606000D0
:100090000020100804023E5149453E00427F4000C6
:1000A00042615149462141454B311814127F1027B6
:1000B000454545393C4A49493001710905033649EE
:1000C000494936064949291E003636000000563691
:1000D00000000814224100141414141400412214C6
:1000E000080201510906324979413E7E1111117E03
:1000F0007F494949363E414141227F4141221C7F8F
:10010000494949417F090909013E4149497A7F0826
:1001100008087F00417F41002040413F017F0814D3
:1001200022417F404040407F020C027F7F04081044
:100130007F3E4141413E7F090909063E4151215E12
:100140007F09192946464949493101017F01013F8B
:100150004040403F1F2040201F3F4038403F631435
:1001600008146307087008076151494543007F413F
:10017000410002040810200041417F0004020102F6
:100180000440404040400001020400205454547890
:100190007F484444383844444420384444487F38F5
:1001A00054545418087E0901020C5252523E7F08E2
:1001B00004047800447D40002040443D007F102826
:1001C000440000417F40007C041804787C0804044B
:1001D0007838444444387C14141408081414187CE7
:1001E0007C080404084854545420043F4440203CF4
:1001F0004040207C1C2040201C3C4030403C442897
:100200001028440C5050503C4464544C4400083670
:10021000410000007F00000041360800080408107B
:1002200008FFFFFFFFFF7C1211127C7F4949493113
:100230007F494949367F01010101603F213F607FCD
:100240004949494177087F087722414949367F105B
:1002500008047F7E1009047E7F08142241403E017D
:10026000017F7F020C027F7F0808087F3E414141E9
:100270003E7F0101017F7F090909063E414141227C
:1002800001017F0101074848483F0E117F110E63AD
:10029000140814633F20203F60070808087F7F4050
:1002A0007E407F3F203F207F017F4848307F48309D
:1002B000007F007F484830224149493E7F083E4147
:1002C0003E462919097F20545454783C4A4A4A3101
:1002D0007C545428007C04040C00603C243C6038AE
:1002E000545454186C107C106C00445454287C20D6
:1002F00010087C7C2112097C7C10284400403804C2
:10030000047C7C0810087C7C1010107C3844444429
:10031000387C0404047C7C141414083844444400DD
:1003200004047C04040C5050503C08147C14084411
:10033000281028443C20203C600C1010107C7C408D
:100340007C407C3C203C207C047C5050207C502015
:10035000007C007C50502028445454387C10384491
:1003600038485434147C11241FBECFEFD4E0DEBFD4
:10037000CDBF11E0A0E0B1E0EAEFFEE002C00590E1
:100380000D92AC31B107D9F713E0ACE1B1E001C097
:100390001D92A036B107E1F70BD0ADC531CE80E498
:1003A0008AB98EE187BD82E484BD84E085BD08956D
:1003B000CF93DF93CDB7DEB72A970FB6F894DEBFA1
:1003C0000FBECDBFECDF83E394D2C3D043D060E057
:1003D00080E0E3D067E370E081E090E001D261E08B
:1003E00080E0DBD064E370E081E090E0F9D14AD0B6
:1003F000789480E091E08FD209E01DE38DE0B1D2E6
:10040000B9D2AB01BC01C801BA0127D3615067BDA5
:10041000A5D287B54AE050E0BE016F5F7F4F90E004
:100420009ED418D060E080E0B8D0BE016F5F7F4FEF
:1004300081E090E0B3D126D0E1CF299861307105F9
:1004400011F4289A01C028988EBD0DB407FEFDCF87
:10045000299A089588EF91E0E3E2F1E0DF019C0141
:100460001D9221503040E1F710922201109221019B
:1004700087EF91E09093200180931F0181E08093AA
:100480001C0108950F931F93CF93DF938091210157
:100490009091220199232CF41092220110922101B3
:1004A00009C0883F914034F087EF91E0909322019A
:1004B0008093210180911F019091200199232CF4B8
:1004C0001092200110921F0109C0883F914034F022
:1004D00087EF91E09093200180931F01C09121014B
:1004E000D0912201CE0164E570E0B7D2162F60E012
:1004F00070E08068A2DF60E070E0812F80649DDFA3
:1005000080911F01909120018C179D078CF08E0126
:100510000D5D1E4F61E070E0F80181918F018DDF6C
:10052000219680911F01909120018C179D0794F7CF
:1005300087EF91E090932201809321011092200196
:1005400010921F0110921C01DF91CF911F910F910A
:1005500008952A9A84B18F6284B92A982A9A80E5EC
:100560008CBD299A60E070E081E267DF60E070E0B6
:1005700088EC63DF60E070E086E05FDF60E070E001
:1005800083E15BDF60E070E080E257DF60E070E015
:100590008CE053DF5FDF76DF08958E30A8F466309D
:1005A000A8F490E09C01220F331F820F931F880F45
:1005B000991F24E5629F800D911D112490931E01C7
:1005C00080931D0180E0089581E0089581E0089501
:1005D0001F93CF93DF9320911D0130911E01409115
:1005E0002101509122012417350724F43093220170
:1005F00020932101E0EEE60FE03630F0603C18F089
:10060000E0EAE60F01C0EFE58130910549F5609120
:100610001D0170911E01CB01AB014B5F5F4F2E2F6F
:1006200030E0F901EE0FFF1FEE0FFF1F2E0F3F1FEF
:10063000261B370B2A5B3F4FF901E80FF91FE491A6
:10064000DC01AD5DBE4FEE0FEC930196841795076C
:1006500099F76B5F7F4F70931E0160931D0175C00A
:10066000029709F072C0C901845591094091210196
:10067000509122018417950724F4909322018093CE
:10068000210199230CF485C08E2F90E0FC01EE0F20
:10069000FF1FEE0FFF1FE80FF91FEA5BFF4FD901A5
:1006A000A053BF4FC90186529F4F18E14491440F98
:1006B000542F5470652F660F560F550F550F642F2A
:1006C0006270762F770F670F660F562B742F787036
:1006D000719F702D1124572B42954F70642F6170BC
:1006E000762F770F670F742F7270C72FCC0F7C0F88
:1006F000770F762B642F6470C62FCC0F6C0FC62F2C
:10070000CC0FCC0F672F6C2B4870419FC02D11244C
:10071000462F4C2BED01219758835C93ED01CD5A68
:10072000DF4F4883ED01CC5ADF4F48833196129654
:10073000A817B90709F0BACFC9010B9668EF71E0A5
:100740008CD190931E0180931D0180911D01909189
:100750001E0120911F01309120012817390724F430
:100760009093200180931F01FC01ED5DFE4F1082EC
:10077000873F21E0920731F410921E0110921D0173
:1007800082E008C0019690931E0180931D0180E0D5
:1007900001C081E0DF91CF911F910895FF920F93E7
:1007A0001F93CF93DF938C01EB016881662369F07F
:1007B000F12CC8010DDF813051F0F394FE01EF0DF3
:1007C000F11D60816111F5CF04C080E003C081E0BC
:1007D00001C080E0DF91CF911F910F91FF900895AC
:1007E0000F931F93CF93DF938C01EB01FB01649177
:1007F000662351F0C801ECDE813041F02196FE0104
:1008000064916111F7CF04C080E003C081E001C0B2
:1008100080E0DF91CF911F910F91089590915C033B
:10082000891728F490915C03891720F014C0109266
:100830005C030895982FE92FF0E0E55EFC4F2081DE
:10084000E92FE81BF0E0E55EFC4F20839F5F2091DD
:100850005C03921780F390915C03981B90935C0368
:100860000895CF93C82F90915C03903460F4E09189
:100870005C03F0E0E55EFC4F808380915C038F5F5A
:1008800080935C030DC081E0C9DFE0915C03F0E080
:10089000E55EFC4FC08380915C038F5F80935C03B7
:1008A000CF9108951F920F920FB60F9211242F939C
:1008B0003F934F935F936F937F938F939F93AF93E8
:1008C000BF93EF93FF938091C60080935D03C9DFD0
:1008D000FF91EF91BF91AF919F918F917F916F9118
:1008E0005F914F913F912F910F900FBE0F901F90EE
:1008F000189510925C031092C5008093C40010926A
:10090000C00088E98093C10086E08093C20081E046
:1009100080935B030895CF93DF9320915B032223A1
:1009200089F0FC012081222369F0DC011196E0ECC2
:10093000F0E0C6ECD0E0808185FFFDCF28832D91CB
:100940002111F9CFDF91CF91089580915C03882325
:1009500019F080915D0308958FEF089510925C0364
:100960000895CF93C82FF1DF8C13FDCF80915C03E6
:10097000CF910895CF92DF92EF92FF920F931F9342
:10098000CF93DF9300D0CDB7DEB71A821982809162
:100990005C038823B9F180911B038D32E9F190E06B
:1009A000C0970A97E0F1ECE1F3E009C021912D3204
:1009B000C1F130E0205331092A30310590F18F0127
:1009C00040915C0350E09F012B51334024173507C1
:1009D0006CF360E070E080E090E034C021153105F8
:1009E00041F480915C031ADF6C2D7D2D8E2D9F2D9F
:1009F00029C0C9018B51934011DF6C2D7D2D8E2DA7
:100A00009F2D20C060E070E080E090E01BC060E0BF
:100A100070E080E090E016C00BE113E002C00BE153
:100A200013E04AE050E0BE016F5F7F4FC8013CD049
:100A3000C62ED72EE82EF92E29813A8120173107AC
:100A400069F6E5CF0F900F90DF91CF911F910F9135
:100A5000FF90EF90DF90CF90089597FB072E16F44C
:100A6000009406D077FD08D00BD007FC05D03EF4EB
:100A7000909581959F4F0895709561957F4F08954A
:100A8000AA1BBB1B51E107C0AA1FBB1FA617B707B4
:100A900010F0A61BB70B881F991F5A95A9F78095D0
:100AA0009095BC01CD010895A3E0B0E0E9E5F5E043
:100AB000D7C1062F172F5B834A836115710521F07B
:100AC000E62FF72F808391832A813B812115310501
:100AD00031F0225031092332310508F02EC1E82EC1
:100AE000F92ECE2CDF2C3FEFC31AD30AAC2CBD2C31
:100AF000EE2DFF2D8080882D90E029D1892B19F0D3
:100B0000EC2CFD2CEECFFDE28F120BC0AE2CBF2CD7
:100B100022E0A20EB11CEE2DFF2D8180992493942A
:100B20000CC0FBE28F1208C0AE2CBF2C22E0A20E3C
:100B3000B11CEE2DFF2D8180912C8A819B818F7EAF
:100B4000892BA1F4F0E38F1227C0EA2DFB2D8081C1
:100B50008F7D883581F58180F2E0AF0EB11C292DA3
:100B60002260922E40E150E05B834A838A819B8120
:100B70008830910521F144F4029759F5C12CD12C0C
:100B8000E12C30E4F32E3CC0EA81FB81EA30F10530
:100B900039F0709781F11DC02A813B81232B31F7F9
:100BA0002AE030E03B832A832CECC22EDC2CEC2C98
:100BB0002CE0F22E25C04A815B81452BB9F648E036
:100BC00050E05B834A83C12CD12CE12C90E1F92EBB
:100BD00017C060E070E080E090E8EA81FB812E2F92
:100BE0003F2F442737FD4095542FF1D0C22ED32EEE
:100BF000E42EF52E05C0C12CD12CE12C88E0F82E76
:100C000020E060E070E080E090E04A815B81442E6B
:100C1000552E662457FC6094762C2A2C3B2C50EDE4
:100C2000580D59835A3078F03FEB380D3A3120F4A3
:100C3000E9ECE80DE98307C03FE9380D3A31B0F53A
:100C4000F9EAF80DF9833981432F50E0EA81FB81FD
:100C50004E175F075CF527FD22C0C616D706E806CB
:100C6000F906D0F0572D462D352D242DD2D0842FC6
:100C7000952F422F532F682F792F972F862F752F5F
:100C8000642FF9816F0F711D811D911D61307105F8
:100C9000810520E8920710F02FEF01C021E03FEF1F
:100CA000A31AB30AE22DF32D8080B7CF392D31700E
:100CB00001151105A1F0222341F0F1E0AF1AB108AE
:100CC000E02FF12FB182A0820AC091FE1CC0F2E099
:100CD000AF1AB108E02FF12FB182A08214C027FF14
:100CE00012C0332329F060E070E080E090E804C097
:100CF0006FEF7FEF8FEF9FE722E230E030935F03EB
:100D000020935E0316C0332341F090958095709533
:100D100061957F4F8F4F9F4F0CC097FF0AC082E2B3
:100D200090E090935F0380935E036FEF7FEF8FEF10
:100D30009FE7362F272F482F04C030E020E040E007
:100D400090E0632F722F842F2396E2E1A5C09111CA
:100D500029C0803219F089508550D0F70895E62FC8
:100D6000F72F2E2F3F2FE8944230C4F04532B4F4D1
:100D70004A3029F497FB1EF4909581959F4F642F7C
:100D800077277EDE805D8A330CF0895D8193862F24
:100D9000972F0097A1F716F45DE251931082822FEE
:100DA000932F03C0992788270895A82FB92FE82FDC
:100DB000F92F672F71917723E1F7329704C07C9167
:100DC0006D9370836291AE17BF07C8F30895A1E2D7
:100DD0001A2EAA1BBB1BFD010DC0AA1FBB1FEE1FB5
:100DE000FF1FA217B307E407F50720F0A21BB30B00
:100DF000E40BF50B661F771F881F991F1A9469F77C
:100E000060957095809590959B01AC01BD01CF01D7
:100E10000895E894DF93CF93FC01DB0158D07F93D2
:100E20006F93E9019A01AC01BF93AF933F932F9366
:100E3000DF014DD026F46C1B7D0B820B930B9E01C2
:100E4000EB01FC0150D0AF91BF912F913F914BD05E
:100E5000BE01CF01F9012F913F91CF91DF9108950C
:100E60002F923F924F925F926F927F928F929F92BA
:100E7000AF92BF92CF92DF92EF92FF920F931F93A8
:100E8000CF93DF93CDB7DEB7CA1BDB0B0FB6F89459
:100E9000DEBF0FBECDBF09942A88398848885F8499
:100EA0006E847D848C849B84AA84B984C884DF800A
:100EB000EE80FD800C811B81AA81B981CE0FD11DEE
:100EC0000FB6F894DEBF0FBECDBFED010895A29F0F
:100ED000B001B39FC001A39F01D0B29F700D811DCF
:100EE0001124911D0895F3DF460F571FC81FD91F06
:0A0EF00008F431960895F894FFCF3E
:100EFA00456E746572206672657175656E636528E4
:0C0F0A0036302D3135303030293A0A00E5
:00000001FF
