:1000000044C25EC25DC25CC25BC25AC259C258C21F
:1000100057C256C255C254C253C252C251C250C234
:10002000BDC54EC294C54CC24BC24AC249C248C2A9
:1000300047C246C2000000000000005F0000000749
:10004000000700147F147F14242A7F2A124C2C10DE
:10005000686436495522500005030000001C224107
:10006000000041221C0014083E081408083E08083D
:1000700000005030001010101010006060000020D0
:10008000100804023E5149453E00427F4000426153
:100090005149462141454B311814127F10274545DF
:1000A00045393C4A494930017109050336494949F6
:1000B00036064949291E0036360000005636000033
:1000C00008142241001414141414004122140802CC
:1000D00001510906324979413E7E1111117E7F4955
:1000E0004949363E414141227F4141221C7F4949D5
:1000F00049417F090909013E4149497A7F080808B9
:100100007F00417F41002040413F017F0814224190
:100110007F404040407F020C027F7F0408107F3EFA
:100120004141413E7F090909063E4151215E7F0957
:10013000192946464949493101017F01013F4040A3
:10014000403F1F2040201F3F4038403F63140814A9
:100150006307087008076151494543007F4141002A
:1001600002040810200041417F0004020102044003
:1001700040404040000102040020545454787F481D
:100180004444383844444420384444487F38545424
:100190005418087E0901020C5252523E7F08040492
:1001A0007800447D40002040443D007F10284400FA
:1001B00000417F40007C041804787C0804047838EF
:1001C000444444387C14141408081414187C7C0823
:1001D0000404084854545420043F4440203C404008
:1001E000207C1C2040201C3C4030403C44281028EF
:1001F000440C5050503C4464544C44000836410078
:1002000000007F000000413608000804081008FFC5
:10021000FFFFFFFF7C1211127C7F494949317F4962
:100220004949367F01010101603F213F607F494913
:10023000494177087F087722414949367F100804F1
:100240007F7E1009047E7F08142241403E01017F19
:100250007F020C027F7F0808087F3E4141413E7FBC
:100260000101017F7F090909063E41414122010147
:100270007F0101074848483F0E117F110E631408A3
:1002800014633F20203F60070808087F7F407E40BE
:100290007F3F203F207F017F4848307F4830007FEC
:1002A000007F484830224149493E7F083E413E4652
:1002B0002919097F20545454783C4A4A4A317C54C5
:1002C0005428007C04040C00603C243C60385454E6
:1002D00054186C107C106C00445454287C20100876
:1002E0007C7C2112097C7C10284400403804047C6A
:1002F0007C0810087C7C1010107C38444444387C06
:100300000404047C7C141414083844444400040499
:100310007C04040C5050503C08147C1408442810F1
:1003200028443C20203C600C1010107C7C407C4019
:100330007C3C203C207C047C5050207C5020007C65
:10034000007C50502028445454387C10384438489D
:100350005434147C4E414E494E495459494E46CD71
:10036000CCCC3D0AD7233C17B7D13877CC2B32956C
:1003700095E6241FB14F0A000020410000C842004A
:10038000401C4620BCBE4CCA1B0E5AAEC59D740014
:10039000407A10F35A00A0724E18090010A5D4E854
:1003A0000000E87648170000E40B54020000CA9AE7
:1003B0003B000000E1F50500008096980000004039
:1003C000420F000000A0860100000010270000007E
:1003D00000E803000000006400000000000A0000C4
:1003E0000000000100000000002C76D888DC674F78
:1003F0000823DFC1DFAE59E1B1B796E5E3E453C6A8
:100400003AE651997696E8E6C28426EB898C9B629F
:10041000ED407C6FFCEFBC9C9F40F2BAA56FA5F449
:1004200090055A2AF75C936B6CF9676DC11BFCE071
:10043000E40D47FEF520E6B500D0ED902E030094C4
:100440003577050080841E080000204E0A00000059
:10045000C80C333333330F986E12831141EF8D2163
:1004600014893BE65516CFFEE6DB18D1844B381BCA
:10047000F77C1D901DA4BBE424203284725E22818F
:1004800000C9F124ECA1E53D270011241FBECFEFE8
:10049000D4E0DEBFCDBF11E0A0E0B1E0E0E7F9E1DC
:1004A00002C005900D92A031B107D9F713E0A0E189
:1004B000B1E001C01D92AC3AB107E1F7ABD056CA2A
:1004C0009FCD9FEB980F963030F09FE9980F9630B4
:1004D00020F080530895892F0895892F08951F9340
:1004E000CF93DF93EC0188818A3249F0FE01319687
:1004F00010E0EF01182781918A32D9F701C010E08E
:100500008A81DFDF912F9F70981309C08981D9DF1D
:1005100012951F7091E0181390E0892F01C080E0C0
:10052000DF91CF911F910895FC019F012F5F3F4FF5
:10053000822F932F40814C3211F0F901F6CF0895AC
:100540000F931F93CF93DF93EB0164E270E011D61A
:10055000009709F455C08C010F5F1F4F45E050E034
:1005600060E071E0C80112D6892B09F04BC0C801C8
:10057000B6DF882309F448C0C801D6DF8C01FC012E
:1005800080818C3231F0C801CDD5688379838A832C
:100590009B83C801C9DFFC012081233549F44881D0
:1005A00059816A817B817058488359836A837B8330
:1005B000BBDF8C01FC0180818C3231F0C801B2D5E7
:1005C0006C837D838E839F83C801AEDFFC01208115
:1005D000273549F44C815D816E817F8170584C8351
:1005E0005D836E837F83A0DF9FDFFC018081813488
:1005F00021F481E0888780E008C0188680E005C08B
:100600008FEF03C08FEF01C08FEFDF91CF911F916C
:100610000F910895CF93DF93CDB7DEB7C253D1408A
:100620000FB6F894DEBF0FBECDBF63D3789404D16C
:10063000FE0131968FEFDF011D928A95E9F7FE01E9
:10064000EF5FFE4F82E3DF011D928A95E9F760E0DC
:1006500080E016D110E00F2EF2E6CF2EF3E0DF2E71
:10066000F02D0F2EF6E6EF2EF3E0FF2EF02D01C059
:1006700010E073D38823E9F352D38A3019F08D3018
:1006800009F045C0E1E0F0E0EC0FFD1FE10FF11DC6
:1006900010826EE573E0CE01019652DF8111E8CF42
:1006A0004CD060915E0370915F03809160039091E4
:1006B00061038E010F5F1E4F22E042E07ED360E0B7
:1006C00080E0DED0B80181E090E0DBD1F60160810E
:1006D0007181828193818E010F5F1E4F22E042E083
:1006E0006CD361E080E0CCD0B80181E090E0C9D16A
:1006F000D7018C91813041F065E080E0C1D066E0A7
:1007000071E081E090E0BDD130D010E0B2CFE1E007
:10071000F0E0EC0FFD1FE10FF11D80831F5FA9CFFB
:1007200029986130710511F4289A01C028988EBD6E
:100730000DB407FEFDCF299A089588EF91E0E7E117
:10074000F1E0DF019C011D9221503040E1F7109251
:1007500016011092150187EF91E090931401809398
:10076000130181E08093100108950F931F93CF939D
:10077000DF93809115019091160199232CF410922A
:1007800016011092150109C0883F914034F087EF9F
:1007900091E090931601809315018091130190913F
:1007A000140199232CF4109214011092130109C022
:1007B000883F914034F087EF91E09093140180934B
:1007C0001301C0911501D0911601CE0164E570E0CE
:1007D000CDD2162F60E070E08068A2DF60E070E0AC
:1007E000812F80649DDF80911301909114018C17FB
:1007F0009D078CF08E01095E1E4F61E070E0F801EC
:1008000081918F018DDF21968091130190911401C8
:100810008C179D0794F787EF91E0909316018093D2
:100820001501109214011092130110921001DF9122
:10083000CF911F910F9108952A9A84B18F6284B944
:100840002A982A9A80E58CBD299A60E070E081E2BE
:1008500067DF60E070E088EC63DF60E070E086E016
:100860005FDF60E070E083E15BDF60E070E080E22A
:1008700057DF60E070E08CE053DF5FDF76DF0895E4
:100880008E30A8F46630A8F490E09C01220F331F4C
:10089000820F931F880F991F24E5629F800D911D81
:1008A0001124909312018093110180E0089581E05A
:1008B000089581E008951F93CF93DF932091110154
:1008C00030911201409115015091160124173507FE
:1008D00024F43093160120931501E0EEE60FE03684
:1008E00030F0603C18F0E0EAE60F01C0EFE581303F
:1008F000910549F56091110170911201CB01AB0195
:100900004B5F5F4F2E2F30E0F901EE0FFF1FEE0F10
:10091000FF1F2E0F3F1F261B370B2C5C3F4FF9018B
:10092000E80FF91FE491DC01A95EBE4FEE0FEC93D6
:1009300001968417950799F76B5F7F4F70931201AB
:100940006093110175C0029709F072C0C901845506
:10095000910940911501509116018417950724F4CF
:10096000909316018093150199230CF485C08E2F66
:1009700090E0FC01EE0FFF1FEE0FFF1FE80FF91FC5
:10098000EC5CFF4FD901AC53BF4FC90182539F4F5D
:1009900018E14491440F542F5470652F660F560F81
:1009A000550F550F642F6270762F770F670F660F04
:1009B000562B742F7870719F702D1124572B4295F0
:1009C0004F70642F6170762F770F670F742F7270DE
:1009D000C72FCC0F7C0F770F762B642F6470C62F38
:1009E000CC0F6C0FC62FCC0FCC0F672F6C2B487021
:1009F000419FC02D1124462F4C2BED012197588388
:100A00005C93ED01CD5ADF4F4883ED01CC5ADF4FA7
:100A1000488331961296A817B90709F0BACFC901D1
:100A20000B9668EF71E0A2D19093120180931101AF
:100A300080911101909112012091130130911401C4
:100A40002817390724F49093140180931301FC01B3
:100A5000E95EFE4F1082873F21E0920731F4109249
:100A600012011092110182E008C0019690931201C8
:100A70008093110180E001C081E0DF91CF911F914F
:100A80000895FF920F931F93CF93DF938C01EB0197
:100A90006881662369F0F12CC8010DDF813051F0C7
:100AA000F394FE01EF0DF11D60816111F5CF04C0DB
:100AB00080E003C081E001C080E0DF91CF911F9111
:100AC0000F91FF9008959091A803891728F49091B1
:100AD000A803891720F014C01092A8030895982F36
:100AE000E92FF0E0E959FC4F2081E92FE81BF0E005
:100AF000E959FC4F20839F5F2091A803921780F350
:100B00009091A803981B9093A8030895CF93C82FA2
:100B10009091A803903460F4E091A803F0E0E959C3
:100B2000FC4F80838091A8038F5F8093A8030DC042
:100B300081E0C9DFE091A803F0E0E959FC4FC083F0
:100B40008091A8038F5F8093A803CF9108951F928F
:100B50000F920FB60F9211242F933F934F935F93F1
:100B60006F937F938F939F93AF93BF93EF93FF9375
:100B70008091C6008093A903C9DFFF91EF91BF91D7
:100B8000AF919F918F917F916F915F914F913F9125
:100B90002F910F900FBE0F901F9018951F920F92DC
:100BA0000FB60F9211242F938F939F93EF93FF9380
:100BB00086B5825286BD80911503882359F18091B4
:100BC000140381508093140380911403811122C077
:100BD000809111039091120380FF02C0419A01C0DD
:100BE0004198809111039091120396958795909367
:100BF00012038093110383E0809314038091130305
:100C000081508093130380911303811103C01092CC
:100C10001503419A80911903811161C080911A03D3
:100C2000882309F180911703815080931703811164
:100C300056C010921A0310921B0380910F03823C3E
:100C400009F44DC0E0911D03F0E0E25EFC4F8083AB
:100C500080911D038F5F80931D03803408F43FC093
:100C600010921D033CC080911B03811112C030996A
:100C700036C081E080931B031092100310920F0383
:100C800094E09093170398E09093160380931803D1
:100C900026C080911703815019F0809317031FC05D
:100CA00083E080931703309B0BC020911803809141
:100CB0000F0390911003822B9093100380930F03E6
:100CC00080911803880F8093180380911603815038
:100CD00080931603811103C081E080931A03FF9172
:100CE000EF919F918F912F910F900FBE0F901F90BA
:100CF00018951092150310921B0310921A0310926C
:100D000019033898409A399A419A82E085BD8EED50
:100D100086BDEEE6F0E08081816080830895909149
:100D20001D0380911C03981306C080911D039091B0
:100D30001C039817D1F3E0911C03F0E0E25EFC4F36
:100D4000808190911C039F5F90931C03903410F05E
:100D500010921C038A3019F3089590911C0320917E
:100D60001D0381E0291301C080E0089597FB072E41
:100D700016F4009406D077FD08D00BD007FC05D000
:100D80003EF4909581959F4F0895709561957F4FA2
:100D90000895AA1BBB1B51E107C0AA1FBB1FA617C2
:100DA000B70710F0A61BB70B881F991F5A95A9F714
:100DB00080959095BC01CD010895EF920F931F93FC
:100DC000CF93DF93C02FD12F47FF02C034E101C082
:100DD00034E0E42FFF27E7FDF095F7FF03C0F1951E
:100DE000E195F109E32E022F2E2F4C2F5D2FAED26D
:100DF0008C2F9D2FDF91CF911F910F91EF90089530
:100E0000A0E0B0E0E5E0F7E07CC5062F172F611504
:100E1000710529F0A62FB72F8C9311969C93C82F9C
:100E2000D92FAC2EBD2EBFEFAB1ABB0AEA2CFB2C80
:100E3000D8808D2D90E079D1892B19F0CA2DDB2D2A
:100E4000F0CFEDE2DE1209C0EC2EFD2EF2E0EF0E47
:100E5000F11CD980BB24B3940AC02BE2D21206C085
:100E6000EC2EFD2E32E0E30EF11CD980B12CCE2DFC
:100E7000DF2D219743E050E06CE573E08C2F9D2F30
:100E80005CD1892BE9F4CE2DDF2D229645E050E090
:100E900067E573E08C2F9D2F50D1892B19F4CE2D4F
:100EA000DF2D27960115110521F0A02FB12FCD932D
:100EB000DC93B1102AC160E070E080E89FE72EC1AA
:100EC00043E050E064E573E08C2F9D2F36D1892BF1
:100ED00061F40115110509F41DC1B2E0EB0EF11C1E
:100EE000E02FF12FF182E08215C1AE2DBF2D60E021
:100EF00070E080E090E0C0E0D0E0EA2FFB2F30ED22
:100F00003D0D3A3068F52B2D22604B2D4870B2FE16
:100F100004C041112BC0219629C041112197C62E32
:100F2000D72EE82EF92E42E0CC0CDD1CEE1CFF1C67
:100F30004A95D1F76C0D7D1D8E1D9F1D660F771F85
:100F4000881F991F630F711D811D911D683939E933
:100F50007307830739E1930748F02B2D266006C0FD
:100F60003E3F41F4B3FC54C02B2D28601196D08035
:100F7000B22EC3CF2D2D2F7D253409F049C04C91C1
:100F80004D3231F44B2D4061B42EEA2FFB2F08C0B7
:100F9000EA2FFB2F4B3221F0319621E030E005C0E3
:100FA000329611964C9122E030E0A0EDFA2EF40E2C
:100FB000A9E0AF1518F4E21BF30B2AC0AE2FBF2F28
:100FC00020E030E02038ECE03E0764F4422F532F5D
:100FD000440F551F440F551F240F351F220F331F79
:100FE0002F0D311D4A2F5B2F4F5F5F4FE42FF52FE1
:100FF000FC90A0EDFA0EB9E0BF1518F0A42FB52FA4
:10100000E1CFB4FE03C0319521953109C20FD31F42
:10101000B1FE08C00115110529F03197A02FB12F9D
:10102000ED93FC93C7D02B2D2370233029F0C62ECF
:10103000D72EE82EF92E08C0C62ED72EE82EF92E70
:10104000F7FAF094F7F8F09420E030E040E050E058
:101050009F2D8E2D7D2D6C2DA9D0882309F450C095
:10106000D7FF06C0D195C195D10903E713E002C0AF
:101070000BE813E0802E912EB8E18B1A910890E2D4
:10108000A92EB12CE02FF12FC895402C3196C89590
:10109000502C3196C895602C3196C895702CCA1585
:1010A000DB0584F0572D462D352D242D9F2D8E2DBB
:1010B0007D2D6C2DE0D0C62ED72EE82EF92ECA1924
:1010C000DB09EDCF04501109B594A7940815190553
:1010D000C9F68E2D880F8F2D881F8F3F59F020E085
:1010E00030E040E050E09F2D8E2D7D2D6C2D5ED0A8
:1010F000811106C082E290E09093AB038093AA0333
:101100009F2D8E2D7D2D6C2D09C060E070E080E854
:101110009FEF04C060E070E080EC9FE7CDB7DEB7E2
:10112000E0E10BC4662777276BCE911193C3803221
:1011300019F089508550D0F70895E62FF72FA82F82
:10114000B92F4150504098F08D9181341CF08B356F
:101150000CF4805EC895602D319661341CF06B35BF
:101160000CF4605E861B611161F3990B0895881B76
:10117000FCCFE82FF92F8191861721F08823D9F72A
:101180009927089531978E2F9F2F0895E62FF72FD7
:10119000A82FB92F4150504030F08D910190801907
:1011A00019F40020B9F7881B990B089540D008F472
:1011B00081E00895E89409C097FB3EF490958095EE
:1011C000709561957F4F8F4F9F4F9923A9F0F92F0D
:1011D00096E9BB279395F695879577956795B7958B
:1011E000F111F8CFFAF4BB0F11F460FF1BC06F5F71
:1011F0007F4F8F4F9F4F16C0882311F096E911C083
:10120000772321F09EE8872F762F05C0662371F0A3
:1012100096E8862F70E060E02AF09A95660F771FB7
:10122000881FDAF7880F9695879597F90895990F93
:101230000008550FAA0BE0E8FEEF16161706E807A0
:10124000F907C0F012161306E407F50798F0621BC1
:10125000730B840B950B39F40A2661F0232B242B96
:10126000252B21F408950A2609F4A140A6958FEFB5
:10127000811D811D08950AD007C3F8D228F0FDD240
:1012800018F0952309F0E9C2EEC232C30ED3A8F3D9
:101290009923D9F35523C9F3950F50E0551FAA2779
:1012A000EE27FF27BB2700240894679520F4E20F60
:1012B000F31FB41F0A1E220F331F441FAA1F669577
:1012C000A9F7779530F4F30FB41F0A1E121E08F425
:1012D0006395330F441FAA1F221F769599F78795B0
:1012E00020F4B40F0A1E121E631F440FAA1F221FF0
:1012F000331F8695A9F7862F712D602D11249F57D6
:1013000050408AF0E1F088234AF0EE0FFF1FBB1F28
:10131000661F771F881F91505040A9F79E3F5105C7
:1013200070F09BC2E5C25F3FECF3983EDCF386951C
:1013300077956795B795F795E7959F5FC1F7FE2B72
:10134000880F911D9695879597F908958F929F9292
:10135000BF92CF92DF92EF92FF920F931F93CF93A2
:10136000DF93CDB7DEB729970FB6F894DEBF0FBE77
:10137000CDBFC42ED52EB22E102F0C3320F4FF2457
:10138000F394F00E02C0ECE3FE2E0F2D27E04C2F5D
:101390005D2F4F5F5F4F71D17981272F29702130E9
:1013A00031F0E1FC06C0E0FC06C060E005C06DE283
:1013B00003C06BE201C060E2AE2DA07173FF3FC0BD
:1013C000662311F084E001C083E08B1510F4B81A95
:1013D00001C0B12CA1110CC0EC2DFD2D8B2D90E284
:1013E000882319F091938150FBCFCB0CD11CB12CE9
:1013F000662349F0EC2DFD2D60832C2D3D2D2F5FB4
:101400003F4FC22ED32E8C2D9D2D0396E2FE06C09B
:101410002EE4EC2DFD2D208331E405C02EE6EC2DCD
:10142000FD2D208331E631832283E82FF92F2B2DE8
:1014300030E2222309F446C031932150FACF72FFE3
:1014400049C0662311F084E001C083E08B1510F4DD
:10145000B81A01C0B12CA1110CC0EC2DFD2D8B2DA3
:1014600090E2882319F091938150FBCFCB0CD11CD3
:10147000B12C662349F0EC2DFD2D60832C2D3D2DE4
:101480002F5F3F4FC22ED32E8C2D9D2D0396E2FE53
:1014900008C029E4EC2DFD2D20832EE4218326E4D1
:1014A00007C029E6EC2DFD2D20832EE6218326E6BC
:1014B0002283E82FF92F2B2D30E2222319F03193CC
:1014C0002150FBCFE82FF92FEB0DF11D10828EEF8D
:1014D0009FEFC1C0B1E0611101C0B0E04B2F50E0FF
:1014E000181619062CF4282F392F2F5F3F4F02C0F2
:1014F00021E030E0240F351F112329F0412F50E067
:101500004F5F5F4F02C040E050E0420F531F2B2D52
:1015100030E04217530714F4B41A01C0B12C2E2D39
:10152000287161F4EC2DFD2D2B2D30E2222319F0D2
:1015300031932150FBCFCB0CD11CB12CBB2349F0F4
:10154000EC2DFD2D60832C2D3D2D2F5F3F4FC22EA6
:10155000D32EA1110CC0EC2DFD2D2B2D30E3222319
:1015600019F031932150FBCFCB0CD11CB12CF80ECC
:101570000A81372F3071E32E74FF03C0013309F461
:10158000FA941F142CF42F2D293018F028E001C0F4
:1015900021E0482F592F97FF02C040E050E03EE283
:1015A000F32E682F792F621B7109262F372F88247D
:1015B0008394912C8C0E9D1E880E991EA12FB0E055
:1015C000B195A195B1094F3F7FEF570749F4EC2D35
:1015D000FD2DF0826C2D7D2D6F5F7F4FC62ED72E97
:1015E000841795075CF02417350744F4682D792D8E
:1015F000641B750BE62FF72F118101C010E34150DA
:1016000051096C2D7D2D6F5F7F4F4A175B0734F0BA
:10161000EC2DFD2D1083C62ED72ED5CF4817590798
:1016200039F4063320F4053319F4E11001C011E355
:10163000EC2DFD2D1083E62FF72F8B2D90E28823C4
:1016400019F091938150FBCFE62FF72FEB0DF11D91
:10165000108280E090E029960FB6F894DEBF0FBEAE
:10166000CDBFDF91CF911F910F91FF90EF90DF9051
:10167000CF90BF909F908F900895283008F027E07A
:101680003327A42FB52F990F311D87FD9160009648
:101690006105710539F432602E5F3D9330E32A9580
:1016A000E1F708959F3F30F080387105610509F03A
:1016B0003C5F3C5F3D93913008F08068911DDF9363
:1016C000CF931F930F93FF92EF92192F987F9695C8
:1016D000E92F96959695E90FFF27E751FC4F99273B
:1016E0003327EE24FF244E2D5F2DCE2DDF2DC89500
:1016F00031960894079428F4360FE71EF81E491F08
:10170000511D660F771F881F991F0694A1F7C89572
:1017100031960894079428F4E70EF81E491F561FC7
:10172000C11D770F881F991F661F0694A1F7C895E2
:1017300031960894079428F4F80E491F561FC71FC6
:10174000D11D880F991F661F771F0694A1F7C895B2
:10175000079420F4490F561FC71FD81F990F661F03
:10176000771F881F0694A9F73196C895802D10958C
:10177000177041F0D695C79557954795F794E7941C
:101780001A95C1F7EFE8F3E06894C895102C3196EC
:10179000C895102D3196C895302D3196C895602D7D
:1017A0003196C895902D3196C89531967FE2739504
:1017B000E118F10A430B560BC90BD009C0F7E10C35
:1017C000F11E431F561FC91FD01D7EF4703311F444
:1017D0008A95DBCFE894015030F0080F0AF4002717
:1017E000021708F4202F2395022F7A3328F079E38B
:1017F0007D932A95E9F710C07D932A9531F60694DA
:1018000097956795379517951794E118F10A430B4B
:10181000560BC90BD00998F023957E9173957A33B6
:1018200008F070E37C932013B8F77E9170617D938C
:1018300030F0839571E37D9370E32A95E1F71124ED
:10184000EF90FF900F911F91CF91DF91992787FD26
:101850009095089599278827089597F99F6780E8BC
:1018600070E060E008959FEF80EC089500240A94F2
:101870001616170618060906089500240A9412166B
:101880001306140605060895092E0394000C11F49E
:10189000882352F0BB0F40F4BF2B11F460FF04C04B
:1018A0006F5F7F4F8F4F9F4F089557FD9058440FA4
:1018B000551F59F05F3F71F04795880F97FB991FAF
:1018C00061F09F3F79F0879508951216130614066C
:1018D000551FF2CF4695F1DF08C0161617061806F9
:1018E000991FF1CF86957105610508940895E894D4
:1018F000BB2766277727862F972F97F908952F9272
:101900003F924F925F926F927F928F929F92AF928F
:10191000BF92CF92DF92EF92FF920F931F93CF93DC
:10192000DF93CDB7DEB7CA1BDB0B0FB6F894DEBF73
:101930000FBECDBF09942A88398848885F846E8499
:101940007D848C849B84AA84B984C884DF80EE80E3
:10195000FD800C811B81AA81B981CE0FD11D0FB6EC
:10196000F894DEBF0FBECDBFED010895F894FFCF10
:101970004750474C4C006E6F74207265616479006B
:00000001FF
