:1000000012C02CC02BC02AC029C028C027C026C0BF
:1000100025C024C023C05DC021C020C01FC01EC099
:100020001DC01CC01BC011241FBECFE5D4E0DEBF25
:10003000CDBF10E0A0E6B0E0E6E2F1E002C005903E
:100040000D92A036B107D9F710E0A0E6B0E001C0EC
:100050001D92A33AB107E1F702D063C0D1CF8FEF71
:1000600084BB85BB80E090E008959091A100891742
:10007000C0F4982FE92FE81B2091A100921758F4A3
:10008000A92FB0E0A05ABF4F2C91F0E0E05AFF4FEB
:1000900020839F5FEFCF9091A100981B9093A100C8
:1000A00008951092A1000895CF93C82F8091A100C8
:1000B000803410F081E0D9DFE091A100F0E0E05A57
:1000C000FF4FC0838091A1008F5F8093A100CF91EB
:1000D00008951F920F920FB60F9211242F933F9302
:1000E0004F935F936F937F938F939F93AF93BF9340
:1000F000EF93FF93939A8CB18093A200D5DF9398EE
:10010000FF91EF91BF91AF919F918F917F916F91EF
:100110005F914F913F912F910F900FBE0F901F90C5
:060120001895F894FFCFD2
:00000001FF
