:100000000C942A000C94B5000C9447000C94470003
:100010000C9447000C9447000C9447000C94470044
:100020000C9447000C9447000C9447000C94450135
:100030000C9447000C9447000C9447000C94470024
:100040000C9447000C9447000C9447000C94470014
:100050000C94470011241FBECFE5D4E0DEBFCDBF16
:1000600010E0A0E6B0E0E8E6F3E002C005900D92F3
:10007000A036B107D9F710E0A0E6B0E001C01D92AC
:10008000A43AB107E1F70E9449000C94B2010C9424
:100090000000CF93DF93CDB7DEB72A970FB6F89461
:1000A000DEBF0FBECDBF83E30E9471010E948500B9
:1000B0002FE788E391E0215080409040E1F700C0B5
:1000C000000078940E94A50046E050E061E070E0F6
:1000D000CE0101960E94AB010E946E018823E1F3DC
:1000E0000E947D01813321F489818095898305C037
:1000F000823341F48A8180958A8366E0CE0101963D
:100100000E94EC000E948C01E7CF87B3836087BB1D
:10011000C098C19ABE988AE085BF80E48BBF0C94DA
:100120008F01CF93DF931F92CDB7DEB7C1988F7148
:10013000806269830E94A6016981862F0E94A601C0
:10014000C19A0F90DF91CF91089562E085E00E94FF
:10015000910066E081E10E9491001092A3006BE49F
:1001600080E00E949100C09A08951F920F920FB6EE
:100170000F9211242F933F934F935F936F937F932D
:100180008F939F93AF93BF93EF93FF938091A300BF
:10019000882389F0C1988FEF0E94A601C19AC09868
:1001A0006BE480E00E949100C09A1092A30060E38B
:1001B00087E00E949100FF91EF91BF91AF919F91D5
:1001C0008F917F916F915F914F913F912F910F9000
:1001D0000FBE0F901F9018951F93CF93DF93EC01E4
:1001E000162F8091A3008111FCCFC09881E08093ED
:1001F000A3006AE480E00E949100C19881EE0E9411
:10020000A601C19AC19880EA0E94A601612FCE0181
:100210000E949A01C19AC09ADF91CF911F910895CF
:100220009091A1008917C0F4982FE92FE81B209125
:10023000A100921758F4A92FB0E0A05ABF4F2C91FB
:10024000F0E0E05AFF4F20839F5FEFCF9091A10035
:10025000981B9093A10008951092A1000895CF9348
:10026000C82F8091A100803418F081E00E94100115
:10027000E091A100F0E0E05AFF4FC0838091A1001F
:100280008F5F8093A100CF9108951F920F920FB6B8
:100290000F9211242F933F934F935F936F937F930C
:1002A0008F939F93AF93BF93EF93FF93939A8CB1E8
:1002B0008093A2000E942F019398FF91EF91BF912C
:1002C000AF919F918F917F916F915F914F913F91EE
:1002D0002F910F900FBE0F901F9018958091A10045
:1002E00008951092A10089B91BB888E98AB986E8F7
:1002F00080BD81E08093A0000895CF938091A100FC
:10030000882339F0C091600081E00E9410018C2F99
:1003100001C08FEFCF9108951092A100089587B387
:100320008F7087BB87B3806B87BB81E58DB981E018
:100330008EB90895282FFC018E2F821B861728F472
:1003400081918FB9779BFECFF7CF08958FB9779BB7
:10035000FECF8FB10895DC0101C06D934150504034
:08036000E0F70895F894FFCFC7
:00000001FF
