:1000000054C06EC06DC06CC06BC06AC069C068C0AF
:1000100067C066C065C064C063C0BFC161C060C066
:100020005BC45EC0C0C35CC05BC05AC059C058C08E
:1000300057C056C02041542B4353434C4B3D320DC7
:10004000002041542B434C49503D310D0020415478
:100050002B434D47463D310D0020415445300D00A6
:100060004F4B002041540D005370656564004F668E
:100070006600537079002B434D5400204154480DC5
:10008000002B434C4950002041542B434D47533DD6
:1000900022002041542B434D47533D22002B37393A
:1000A0003531323936323437370011241FBECFEFA5
:1000B000D2E0DEBFCDBF11E0A0E0B1E0E2EFFBE0B7
:1000C00002C005900D92A630B107D9F712E0A6E064
:1000D000B1E001C01D92A638B107E1F7DBD187C5B9
:1000E0008FCF9FEB980F963030F09FE9980F9630A6
:1000F00020F080530895892F0895892F08951F9324
:10010000CF93DF93EC0188818A3249F0FE0131966A
:1001100010E0EF01182781918A32D9F701C010E071
:100120008A81DFDF912F9F70981309C08981D9DF01
:1001300012951F7091E0181390E0892F01C080E0A4
:10014000DF91CF911F910895FC019F012F5F3F4FD9
:10015000822F932F40814C3211F0F901F6CF089590
:100160000F931F93CF93DF938B0164E270E00BD565
:10017000009709F457C0EC01219645E050E060E09B
:1001800071E0CE0124D5892B09F04EC0CE01B7DF36
:10019000882309F44BC0CE01D7DFD6DFFC012081D4
:1001A000213449F421E0F8012083CEDFEC0188817D
:1001B0008C3229F40DC0F801108280E03AC0CE01E3
:1001C000C3DFAC014C1B5D0BBE01C8010196E8D436
:1001D000CE01BADFFC012081F80123A3B5DFEC01D9
:1001E00088818C3249F0CE01AFDFAC014C1B5D0B36
:1001F000BE01C8010E96D4D4CE01A6DFFC01208139
:10020000F80124A3A1DFEC0188818C3289F0CE01B2
:100210009BDFAC014C1B5D0BBE01C8014B96C0D4EB
:1002200081E007C080E005C080E003C080E001C03D
:1002300081E0DF91CF911F910F910895579A5F9AB6
:100240002FEF83ED90E3215080409040E1F700C014
:1002500000005F982FEF83ED90E3215080409040A5
:10026000E1F700C0000008951F93CF93DF93CDB74F
:10027000DEB764970FB6F894DEBF0FBECDBF83E63E
:1002800090E038D42FEF84E39CE0215080409040F0
:10029000E1F700C0000010E009C0DFD3E1E0F0E0CA
:1002A000EC0FFD1FE10FF11D80831F5FF7D381115C
:1002B000F4CFE1E0F0E0EC0FFD1FE10FF11D108243
:1002C000E8D360E670E0CE01019630D421E0892BBE
:1002D00009F420E0822F64960FB6F894DEBF0FBEBB
:1002E000CDBFDF91CF911F91089589E590E002D4B1
:1002F0002FEF84E39CE0215080409040E1F700C064
:100300000000C7D38DE490E0F5D32FEF84E39CE0A9
:10031000215080409040E1F700C00000BAD381E452
:1003200090E0E8D32FEF84E39CE0215080409040A0
:10033000E1F700C0000084E390E0DCD32FEF84E31A
:100340009CE0215080409040E1F700C00000A1D324
:1003500008959091D2018917F9F0F8948130C8F08E
:10036000833080F08330A9F45A981092850010925F
:10037000840091E090936F001092800094E090933D
:10038000810007C05A9A1092810010928500109245
:1003900084008093D201789408951F920F920FB633
:1003A0000F9211242F933F934F935F936F937F93FB
:1003B0008F939F93AF93BF93EF93FF938091D0015F
:1003C0009091D10101969093D1018093D0018091B9
:1003D000D0019091D1018A33924030F082E0B9DFB0
:1003E0001092D1011092D001FF91EF91BF91AF9186
:1003F0009F918F917F916F915F914F913F912F913D
:100400000F900FBE0F901F90189582E990E072D365
:100410008DE990E06FD382E24AD38DE048D32FEF8D
:1004200080E792E0215080409040E1F700C000005A
:100430008091CB01833511F48DE239D389EA91E0C3
:100440004BD38BE334D38091CC01873511F48DE20B
:100450002ED386EB91E040D38AE129D31AD30895B5
:1004600087E890E047D38DE990E044D382E21FD340
:100470008DE01DD32FEF80E792E021508040904027
:10048000E1F700C0000083EC91E026D38AE10FD3AE
:1004900000D30895CF93DF93CDB7DEB760970FB643
:1004A000F894DEBF0FBECDBF529AC1D283E3A5D16F
:1004B000789482E04EDF13E0D7DE8093CD01809107
:1004C000CD0181110BC02FEF89E698E121508040CA
:1004D0009040E1F700C00000115071F78091CD010C
:1004E00081110AC0ABDE2FEF85EE9AEA21508040E1
:1004F0009040E1F700C000001092CF011092CE01B1
:10050000F4DEDD24D3948091D2018330F1F072D1F6
:100510008823D9F04DE060E588E591E089D18093AA
:100520005701E0915701F0E0E85AFE4F108268EA67
:1005300071E088E591E014DE882331F08091D201EA
:10054000823011F483E005DFC4D18091CF0188238C
:1005500039F08091A801882319F01092CF0155DF5E
:100560008091CE01882309F4D6C08091A801882308
:1005700009F4D1C01092CE0173DFCDC06ED2898351
:1005800089818A3009F0BBC0E0910601F0E0E95FA3
:10059000FE4F10821092060161E870E087E091E062
:1005A000C5D2892BB9F162E270E087E091E0EBD22D
:1005B0008C017C012FEFE21AF20A62E270E0C701BF
:1005C000E2D20115110531F1009721F1AC01401B78
:1005D000510BB701CE010296E3D26DE970E0CE0176
:1005E000029698D2892BB1F4D092CF018091D2019A
:1005F000833011F482E0ADDE8BE790E07BD28FEFA9
:1006000093ED20E3815090402040E1F700C00000CE
:1006100040D279CF66E770E087E091E087D2892BFE
:1006200009F479C062E270E087E091E0ACD28C011D
:100630007C018FEFE81AF80A62E270E0C701A3D2EA
:100640000115110509F467C0009709F464C0AC01F5
:10065000401B510BB701CE010296A2D26DE970E0AA
:10066000CE01029657D2892B09F055C0109206018F
:10067000F4D18983E09106018981F0E0E95FFE4FC2
:100680008083809106018F5F8093060189818A3083
:1006900079F7E0910601F0E0E95FFE4F108262E732
:1006A00070E087E091E042D2892B21F08D2D51DE60
:1006B000F0D129CF6EE670E087E091E037D2892B48
:1006C00021F083E046DEE5D11ECF68E670E087E0EA
:1006D00091E02CD2892BF9F0D092CE018091D201F9
:1006E000833011F482E035DE9FEF23ED80E39150FB
:1006F00020408040E1F700C00000CBD104CFE09162
:1007000006018981F0E0E95FFE4F80838091060158
:100710008F5F80930601C2D1811130CFF4CE9091CA
:100720008402891728F490918402891720F014C05C
:10073000109284020895982FE92FF0E0EE5CFD4FAF
:100740002081E92FE81BF0E0EE5CFD4F20839F5FE6
:1007500020918402921780F390918402981B9093C9
:1007600084020895CF93C82F90918402913560F44C
:10077000E0918402F0E0EE5CFD4F80838091840282
:100780008F5F809384020DC081E0C9DFE091840215
:10079000F0E0EE5CFD4FC083809184028F5F809318
:1007A0008402CF9108951F920F920FB60F921124D9
:1007B0002F933F934F935F936F937F938F939F9369
:1007C000AF93BF93EF93FF938091C6008093850210
:1007D000C9DFFF91EF91BF91AF919F918F917F9171
:1007E0006F915F914F913F912F910F900FBE0F909E
:1007F0001F9018958091840208951092840210929F
:10080000C5008093C4001092C00088E98093C100A5
:1008100086E08093C20081E08093830208958091F6
:100820008402882319F08091850208958FEF08953E
:10083000FF920F931F93CF93DF93EC01F62E042FBB
:1008400080918402882371F180913202841791F0A3
:10085000A62FB0E011971097F9F410C0212F30E0C7
:10086000F901EE5CFD4F9081901751F02A173B077C
:10087000A1F406C020E030E010E002C09D0110E0CD
:10088000A9014F5F5F4F62E372E0CE0171D11F5F3C
:10089000812F45DF812F17C010E01F5F90918402E8
:1008A0001917E0F2BCDF8013FDCF809184028F1511
:1008B00008F4F82E4F2D50E062E372E0CE0158D1DB
:1008C0008F2D2DDF8F2DDF91CF911F910F91FF90F5
:1008D00008951092840208951F920F920FB60F92FE
:1008E00011242F938F939F93EF93FF9386B582529A
:1008F00086BD8091D901882359F18091D80181501A
:100900008093D8018091D801811122C08091D501B6
:100910009091D60180FF02C0289A01C0289880914A
:10092000D5019091D601969587959093D6018093A5
:10093000D50183E08093D8018091D70181508093C5
:10094000D7018091D701811103C01092D901289A53
:100950008091DD01811161C08091DE01882309F160
:100960008091DB0181508093DB01811156C0109290
:10097000DE011092DF018091D301823C09F44DC069
:10098000E091E101F0E0EE51FE4F80838091E101C2
:100990008F5F8093E101803508F43FC01092E10140
:1009A0003CC08091DF01811112C0199936C081E0ED
:1009B0008093DF011092D4011092D30194E09093C0
:1009C000DB0198E09093DA018093DC0126C08091EE
:1009D000DB01815019F08093DB011FC083E080931D
:1009E000DB01199B0BC02091DC018091D301909118
:1009F000D401822B9093D4018093D3018091DC01A8
:100A0000880F8093DC018091DA0181508093DA01B4
:100A1000811103C081E08093DE01FF91EF919F91EE
:100A20008F912F910F900FBE0F901F9018951092DD
:100A3000D9011092DF011092DE011092DD012198A0
:100A4000299A209A289A82E085BD8EED86BDEEE631
:100A5000F0E080818160808308959091E101809130
:100A6000E001981306C08091E1019091E001981790
:100A7000D1F3E091E001F0E0EE51FE4F80819091E2
:100A8000E0019F5F9093E001903510F01092E0013B
:100A900008951092E1011092E00108959091E00113
:100AA0002091E10181E0291301C080E00895909137
:100AB000D9019111FCCF93E09093D8019AE09093E3
:100AC000D701880F990B92609093D6018093D5013E
:100AD00081E08093D9010895CF93DF93EC01888161
:100AE000882329F02196E3DF89918111FCCFDF91E2
:100AF000CF910895CF93DF93EC01FC01849188237B
:100B000031F0D5DF2196FE0184918111FACFDF917A
:100B1000CF910895E62FF72FA82FB92F8D91C89563
:100B2000319680190110D1F3990B0895E62FF72F14
:100B3000C895502D31965523D1F06E2F7F2FA82FB9
:100B4000B92F4D9145174111E1F771F48A2F9B2F71
:100B5000C8953196002051F04D9140154111C1F3D7
:100B6000E62FF72F4111EBCF81E090E00197089538
:100B7000E62FF72FA82FB92F02C001900D924150F8
:100B80005040D8F70895E82FF92F8191861721F06A
:100B90008823D9F79927089531978E2F9F2F08958D
:100BA000A82FB92FE62FF72F4150504060F051F099
:100BB00001900D920020C1F7E61BF70B31978E2FA5
:100BC0009F2F08951C9201900020E9F7F5CFE62FA2
:100BD000F72FA82FB92F4150504030F08D91019040
:100BE000801919F40020B9F7881B990B0895F8941F
:020BF000FFCF35
:060BF2004750524D430084
:00000001FF
