:1000000055C06FC06EC06DC06CC06BC06AC069C0A7
:1000100068C067C066C065C064C063C062C061C0BC
:1000200061C05FC031C15DC05CC05BC05AC059C017
:1000300058C057C0202021212121222222222323FF
:10004000232324242424242424242525252525256C
:100050002525252525252525252525242424242455
:10006000242424232323232222222221212121206C
:1000700020201F1F1F1E1E1E1D1D1C1C1B1B1B1AAC
:100080001A19191818171716161515141413121211
:10009000111110100F0E0E0D0D0C0B0B0A0A090892
:1000A00008070606050504030302010111241FBE0B
:1000B000CFEFD4E0DEBFCDBF11E0A0E0B1E0E6E2DB
:1000C000F3E002C005900D92AE30B107D9F711E010
:1000D000AEE0B1E001C01D92AD39B107E1F78DD0BE
:1000E00020C18ECF1F920F920FB60F9211242F9323
:1000F0008F939F9388B190910F01953211F41092D4
:100100000F0190910F01911102C080911001209177
:100110000F0190919A01291302C0809199012091B9
:100120000F0190919B01291302C08091970188B91A
:1001300080910F018F5F80930F019F918F912F917D
:100140000F900FBE0F901F9018959C01283681E0EC
:10015000380728F0C90168E671E0CFD09C01C901D9
:100160006CE370E0CAD0DB01A95FBE4F009771F469
:1001700086E280939A0180E280939B018C91809328
:10018000990180931001109297011BC0FC01E05966
:10019000FF4FE491E0939A01FC01EC5CFF4F449126
:1001A00040939B018C918093100111968C918093C8
:1001B0009901E0919901F0E0E050FF4F8081809338
:1001C000970110920F0130931201209311010895AD
:1001D00010920F01109212011092110180911101E1
:1001E00090911201B2DF81E080936E0016BC14BCC6
:1001F00085BD84E680930E0108958FEF87B918B806
:1002000083E369D0E5DF7894C0E0D0E0CE019DDFE4
:100210008FE99FE00197F1F700C000002196F6CF2B
:10022000909198018917C0F4982FE92FE81B20912D
:100230009801921758F4A92FB0E0AD5EBE4F2C91F3
:10024000F0E0ED5EFE4F20839F5FEFCF909198012D
:10025000981B909398010895109298010895CF9358
:10026000C82F8091980187FF02C081E0D9DFE0911B
:100270009801F0E0ED5EFE4FC083809198018F5FA2
:1002800080939801CF9108951F920F920FB60F920D
:1002900011242F933F934F935F936F937F938F938B
:1002A0009F93AF93BF93EF93FF938091C60080938A
:1002B0009C01D5DFFF91EF91BF91AF919F918F91FD
:1002C0007F916F915F914F913F912F910F900FBE52
:1002D0000F901F901895109298011092C50080936E
:1002E000C4001092C00088E98093C10086E080932A
:1002F000C20081E0809396010895AA1BBB1B51E1C7
:1003000007C0AA1FBB1FA617B70710F0A61BB70B85
:10031000881F991F5A95A9F780959095BC01CD012A
:060320000895F894FFCFE0
:0E03260000000007000707040602030105049B
:00000001FF
