:1000000019C033C032C031C030C02FC02EC02DC087
:100010002CC02BC02AC029C028C027C026C025C09C
:1000200025C023C0FCC021C020C01FC01EC01DC0F1
:100030001CC01BC011241FBECFEFD4E0DEBFCDBF5C
:1000400011E0A0E0B1E0E0E8FCE002C005900D9214
:10005000AA39B107D9F711E0AAE9B1E001C01D92B0
:10006000A73EB107E1F782D009C6CACF1F920F920F
:100070000FB60F9211242F938F939F9388B1909175
:100080009A01911101C0876020919A0190919B0182
:10009000291301C08E7F20919A019091E0012913CC
:1000A00001C08D7F20919A019091E201291301C036
:1000B0008B7F88B980919A018F5F80939A019F917D
:1000C0008F912F910F900FBE0F901F9018959093C6
:1000D0009D0180939C0180919C0190919D018836A7
:1000E000914058F080919C0190919D0168E671E0EB
:1000F0006FD190939D0180939C0180919C01909180
:100100009D016AE070E064D17093DF016093DE01CD
:10011000E091DE01F091DF01E65BFE4F808180938C
:100120009B01E091DE01F091DF01EB5DFE4F8081EC
:100130008093E001E091DE01F091DF01E050FF4F9C
:1001400080818093E201089510929A0110929D019E
:1001500010929C0180919C0190919D01B8DF81E0FB
:1001600080936E0016BC14BC85BD0895CF93DF93B9
:1001700000D000D0CDB7DEB78FEF87B918B883E3D2
:1001800075D0E2DF78948FE691E082D08DE09CD04C
:10019000A4D069837A838B839C8393D069817A818D
:1001A000CB0195DF87E891E073D08091DE019091DB
:1001B000DF01E3D0EBCF9091E3018917C0F4982FD2
:1001C000E92FE81B2091E301921758F4A92FB0E022
:1001D000A256BE4F2C91F0E0E256FE4F20839F5F67
:1001E000EFCF9091E301981B9093E3010895109253
:1001F000E3010895CF93C82F8091E301803410F07C
:1002000081E0D9DFE091E301F0E0E256FE4FC083E8
:100210008091E3018F5F8093E301CF9108951F9256
:100220000F920FB60F9211242F933F934F935F932A
:100230006F937F938F939F93AF93BF93EF93FF93AE
:100240008091C6008093E401D5DFFF91EF91BF91CB
:10025000AF919F918F917F916F915F914F913F915E
:100260002F910F900FBE0F901F9018951092E301E1
:100270001092C5008093C4001092C00088E980935A
:10028000C10086E08093C20081E08093E10108957F
:100290002091E101222359F0FC018191882339F05A
:1002A0009091C00095FFFCCF8093C600F6CF0895D3
:1002B0008091E301882319F08091E40108958FEF84
:1002C00008951092E3010895CF93C82FF1DF8C13A6
:1002D000FDCF8091E301CF910895CF92DF92EF920D
:1002E000FF920F931F93CF93DF9300D0CDB7DEB76C
:1002F0001A821982EEE9F1E08F018091E30190E02A
:100300009F012E59314028173907D4F421912D32FD
:1003100041F0332727FD3095205331092A3031052C
:1003200058F74AE050E0BE016F5F7F4FC80164D0CC
:100330006B01F82EE92E29813A812017310729F423
:1003400060E070E080E090E00DC02115310519F407
:100350008091E30103C0C9018E5991402CDFB601A1
:100360008F2D9E2D0F900F90DF91CF911F910F91A8
:10037000FF90EF90DF90CF9008950F931F93CF934E
:10038000DF93CDB7DEB764970FB6F894DEBF0FBE2C
:10039000CDBF9F938F9386E991E09F938F938E01BA
:1003A0000F5F1F4F1F930F9360D1C80171DF0F9034
:1003B0000F900F900F900F900F9064960FB6F894D7
:1003C000DEBF0FBECDBFDF91CF911F910F9108957A
:1003D000AA1BBB1B51E107C0AA1FBB1FA617B7076B
:1003E00010F0A61BB70B881F991F5A95A9F7809587
:1003F0009095BC01CD0108952F923F925F926F922C
:100400007F928F929F92AF92BF92CF92DF92EF92A4
:10041000FF920F931F93CF93DF938B01EA01611536
:10042000710521F0DB018C9311969C93209739F094
:100430009E01225031092332310508F0F8C07C01B9
:100440006701BFEFCB1ADB0A5601F7016080862DEA
:1004500090E003D1892B11F07601F2CFFDE26F120B
:100460000AC0570182E0A80EB11CD70111966C900A
:10047000772473940BC0BBE26B1207C05701E2E014
:10048000AE0EB11CD70111966C90712CCE018F7EEF
:10049000892B89F4B0E36B1222C0F50180818F7D36
:1004A000883541F56180F2E0AF0EB11C872D826086
:1004B000782EC0E1D0E0C830D105F1F04CF4C23064
:1004C000D10511F5C12CD12CE12CB0E4FB2E2EC0AE
:1004D000CA30D10531F0C031D10519F115C02097CE
:1004E00051F7CAE0D0E0ACECCA2EDC2CEC2CACE02E
:1004F000FA2E1CC02097F9F6C8E0D0E0C12CD12C10
:10050000E12CF0E1FF2E12C060E070E080E090E8A6
:100510009E01442737FD4095542F4BD369017A0142
:1005200005C0C12CD12CE12CE8E0FE2EF50160E0E5
:1005300020E030E0A9014E01AA2497FCA094BA2C37
:100540001F0170ED572E560CA9E0A51570F48FEB26
:10055000860D8A3118F499EC592E06C08FE9860D64
:100560008A3128F589EA582E560C852D90E08C1793
:100570009D07ECF467FD17C0C216D306E406F50626
:1005800078F0C501B40106D39B01AC01250D311DE6
:10059000411D511D213031054105B0E85B0710F0C8
:1005A0006FEF01C061E03196D1016C90C9CF872D0A
:1005B00081700115110571F0662329F03197D8017A
:1005C000ED93FC9307C071FE19C03297D801ED93EB
:1005D000FC9314C067FF12C0882329F020E030E0AC
:1005E00040E050E804C02FEF3FEF4FEF5FE782E2BB
:1005F00090E09093E6018093E50116C0882341F0D6
:1006000050954095309521953F4F4F4F5F4F0CC00F
:1006100057FF0AC082E290E09093E6018093E501E3
:100620002FEF3FEF4FEF5FE7B901CA0104C060E071
:1006300070E080E090E0DF91CF911F910F91FF90EB
:10064000EF90DF90CF90BF90AF909F908F907F9072
:100650006F905F903F902F9008959111E8C1803284
:1006600019F089508550D0F70895AEE0B0E0EAE384
:10067000F3E0CFC20D891E8986E08C831A8309833B
:100680008FEF9FE79E838D83AE01475E5F4F6F893B
:10069000788DCE01019608D0EF81F885E00FF11F2B
:1006A00010822E96E4E0D1C2ACE0B0E0E9E5F3E0E0
:1006B000A2C27C016B018A01FC0117821682838130
:1006C00081FFB0C1CE0101964C01F7019381F60183
:1006D00093FD859193FF81916F01882309F49EC159
:1006E000853239F493FD859193FF81916F018532B5
:1006F00021F4B70190E0B4D1E8CF512C312C20E0A7
:100700002032A0F48B3269F030F4803259F0833219
:1007100069F420612CC08D3239F0803339F42160C6
:1007200026C02260246023C0286021C027FD27C086
:1007300030ED380F3A3078F426FF06C0FAE05F9EBD
:10074000300D1124532E13C08AE0389E300D112431
:10075000332E20620CC08E3221F426FD5FC120644E
:1007600006C08C3611F4206802C0883641F4F601C8
:1007700093FD859193FF81916F018111C1CF982FD6
:100780009F7D9554933028F40C5F1F4FFFE3F9834E
:100790000DC0833631F0833771F0833509F057C0CF
:1007A00021C0F801808189830E5F1F4F4424439448
:1007B000512C540114C03801F2E06F0E711CF80185
:1007C000A080B18026FF03C0652D70E002C06FEFEE
:1007D0007FEFC5012C8739D12C0183012C852F7720
:1007E000222E16C03801F2E06F0E711CF801A080B5
:1007F000B18026FF03C0652D70E002C06FEF7FEF70
:10080000C5012C8717D12C012C852068222E83014D
:1008100023FC19C0832D90E048165906A0F4B701B7
:1008200080E290E01DD13A94F5CFF50127FC859147
:1008300027FE81915F01B70190E012D131103A9407
:10084000F1E04F1A51084114510479F7DEC08436A3
:1008500011F0893631F5F80127FF07C060817181F9
:10086000828193810C5F1F4F08C06081718188274E
:1008700077FD8095982F0E5F1F4F2F76B22E97FF32
:1008800009C090958095709561957F4F8F4F9F4FD0
:100890002068B22E2AE030E0A40114D1A82EA818B6
:1008A00043C0853729F42F7EB22E2AE030E025C0E0
:1008B000F22FF97FBF2E8F36C1F018F4883579F00A
:1008C000ADC0803719F0883721F0A8C02F2F2061E4
:1008D000B22EB4FE0DC08B2D8460B82E09C024FF4B
:1008E0000AC09F2F9660B92E06C028E030E005C0F0
:1008F00020E130E002C020E132E0F801B7FE07C09D
:1009000060817181828193810C5F1F4F06C060817D
:10091000718180E090E00E5F1F4FA401D3D0A82E1C
:10092000A818FB2DFF77BF2EB6FE0BC02B2D2E7FF8
:10093000A51450F4B4FE0AC0B2FC08C02B2D2E7EC4
:1009400005C07A2C2B2D03C07A2C01C0752C24FFF6
:100950000DC0FE01EA0DF11D8081803311F4297E66
:1009600009C022FF06C07394739404C0822F867856
:1009700009F0739423FD12C020FF06C05A2C731493
:1009800018F4530C5718732C731460F4B70180E2F9
:1009900090E02C8765D073942C85F6CF731410F4F7
:1009A000371801C0312C24FF11C0B70180E390E05B
:1009B0002C8756D02C8522FF16C021FF03C088E566
:1009C00090E002C088E790E0B7010CC0822F8678E3
:1009D00051F021FD02C080E201C08BE227FD8DE2D3
:1009E000B70190E03DD0A51430F4B70180E390E06A
:1009F00037D05A94F8CFAA94F401EA0DF11D808102
:100A0000B70190E02DD0A110F6CF332009F45DCED0
:100A1000B70180E290E024D03A94F7CFF7018681C5
:100A2000978102C08FEF9FEF2C96E2E100C19927DA
:100A300088270895FC010590615070400110D8F797
:100A4000809590958E0F9F1F0895FC016150704016
:100A500001900110D8F7809590958E0F9F1F0895F3
:100A60000F931F93CF93DF93182F092FEB018B81E7
:100A700081FD03C08FEF9FEF20C082FF10C04E8129
:100A80005F812C813D81421753077CF4E881F98115
:100A90009F012F5F3F4F39832883108306C0E8856D
:100AA000F985812F0995892B29F72E813F812F5FA9
:100AB0003F4F3F832E83812F902FDF91CF911F9146
:100AC0000F910895FA01AA27283051F1203181F1C0
:100AD000E8946F936E7F6E5F7F4F8F4F9F4FAF4F46
:100AE000B1E03ED0B4E03CD0670F781F891F9A1F59
:100AF000A11D680F791F8A1F911DA11D6A0F711D0D
:100B0000811D911DA11D20D009F468943F912AE018
:100B1000269F11243019305D3193DEF6CF01089500
:100B2000462F4770405D4193B3E00FD0C9F7F6CF31
:100B3000462F4F70405D4A3318F0495D31FD4052F9
:100B4000419302D0A9F7EACFB4E0A695979587958F
:100B500077956795BA95C9F700976105710508956E
:100B60009B01AC010A2E069457954795379527951A
:100B7000BA95C9F7620F731F841F951FA01D0895B2
:100B800071D0A59F900DB49F900DA49F800D911DD5
:100B900011240895DB018F939F93F2DFBF91AF91F2
:100BA000A29F800D911DA39F900DB29F900D1124C7
:100BB0000895A1E21A2EAA1BBB1BFD010DC0AA1F9E
:100BC000BB1FEE1FFF1FA217B307E407F50720F0B6
:100BD000A21BB30BE40BF50B661F771F881F991F31
:100BE0001A9469F760957095809590959B01AC017A
:100BF000BD01CF0108952F923F924F925F926F9265
:100C00007F928F929F92AF92BF92CF92DF92EF929C
:100C1000FF920F931F93CF93DF93CDB7DEB7CA1B1D
:100C2000DB0B0FB6F894DEBF0FBECDBF09942A8848
:100C3000398848885F846E847D848C849B84AA84F0
:100C4000B984C884DF80EE80FD800C811B81AA817D
:100C5000B981CE0FD11D0FB6F894DEBF0FBECDBF48
:100C6000ED010895A29FB001B39FC001A39F01D0E1
:100C7000B29F700D811D1124911D0895F894FFCF2E
:100C8000000000000000000000002C577FA3C3DC20
:100C9000EFFAFEFAEFDCEFFAFEFAEFDCC3A37F57C0
:100CA0002C00000000FEFAEFDCC3A37F572C0000ED
:100CB00000000000000000000000002C577FA3C3CC
:100CC000DCEFFAFEFAEFDCEFFAFE7FA3C3DCEFFA0B
:100CD000FEFAEFDCEFFAFEFAEFDCC3A37F572C003D
:100CE0000000000000000000000000002C577F689A
:100CF000656C6C6F206D617821656E746572206122
:100D00006E676C652E0A00616E676C65496E64657E
:0A0D1000783A0025690025690A0001
:00000001FF
